{
  "_format": "hh-sol-artifact-1",
  "contractName": "Marketplace",
  "sourceName": "contracts/Marketplace.sol",
  "abi": [
    {
      "inputs": [
        {
          "internalType": "address",
          "name": "initialOwner",
          "type": "address"
        }
      ],
      "stateMutability": "nonpayable",
      "type": "constructor"
    },
    {
      "inputs": [
        {
          "internalType": "address",
          "name": "owner",
          "type": "address"
        }
      ],
      "name": "OwnableInvalidOwner",
      "type": "error"
    },
    {
      "inputs": [
        {
          "internalType": "address",
          "name": "account",
          "type": "address"
        }
      ],
      "name": "OwnableUnauthorizedAccount",
      "type": "error"
    },
    {
      "anonymous": false,
      "inputs": [
        {
          "indexed": true,
          "internalType": "address",
          "name": "previousOwner",
          "type": "address"
        },
        {
          "indexed": true,
          "internalType": "address",
          "name": "newOwner",
          "type": "address"
        }
      ],
      "name": "OwnershipTransferred",
      "type": "event"
    },
    {
      "anonymous": false,
      "inputs": [
        {
          "indexed": false,
          "internalType": "uint256",
          "name": "newFee",
          "type": "uint256"
        }
      ],
      "name": "PlatformFeeUpdated",
      "type": "event"
    },
    {
      "anonymous": false,
      "inputs": [
        {
          "indexed": true,
          "internalType": "uint256",
          "name": "listingId",
          "type": "uint256"
        },
        {
          "indexed": true,
          "internalType": "uint256",
          "name": "tokenId",
          "type": "uint256"
        },
        {
          "indexed": true,
          "internalType": "address",
          "name": "nftContract",
          "type": "address"
        },
        {
          "indexed": false,
          "internalType": "address",
          "name": "seller",
          "type": "address"
        },
        {
          "indexed": false,
          "internalType": "uint256",
          "name": "price",
          "type": "uint256"
        }
      ],
      "name": "TicketListed",
      "type": "event"
    },
    {
      "anonymous": false,
      "inputs": [
        {
          "indexed": true,
          "internalType": "uint256",
          "name": "listingId",
          "type": "uint256"
        },
        {
          "indexed": true,
          "internalType": "uint256",
          "name": "tokenId",
          "type": "uint256"
        },
        {
          "indexed": true,
          "internalType": "address",
          "name": "nftContract",
          "type": "address"
        },
        {
          "indexed": false,
          "internalType": "address",
          "name": "buyer",
          "type": "address"
        },
        {
          "indexed": false,
          "internalType": "uint256",
          "name": "price",
          "type": "uint256"
        }
      ],
      "name": "TicketSold",
      "type": "event"
    },
    {
      "anonymous": false,
      "inputs": [
        {
          "indexed": true,
          "internalType": "uint256",
          "name": "listingId",
          "type": "uint256"
        }
      ],
      "name": "TicketUnlisted",
      "type": "event"
    },
    {
      "inputs": [
        {
          "internalType": "uint256",
          "name": "listingId",
          "type": "uint256"
        }
      ],
      "name": "buyTicket",
      "outputs": [],
      "stateMutability": "payable",
      "type": "function"
    },
    {
      "inputs": [
        {
          "internalType": "address",
          "name": "nftContract",
          "type": "address"
        },
        {
          "internalType": "uint256",
          "name": "tokenId",
          "type": "uint256"
        },
        {
          "internalType": "uint256",
          "name": "price",
          "type": "uint256"
        }
      ],
      "name": "listTicket",
      "outputs": [],
      "stateMutability": "nonpayable",
      "type": "function"
    },
    {
      "inputs": [
        {
          "internalType": "uint256",
          "name": "",
          "type": "uint256"
        }
      ],
      "name": "listings",
      "outputs": [
        {
          "internalType": "address",
          "name": "seller",
          "type": "address"
        },
        {
          "internalType": "address",
          "name": "nftContract",
          "type": "address"
        },
        {
          "internalType": "uint256",
          "name": "price",
          "type": "uint256"
        },
        {
          "internalType": "uint256",
          "name": "tokenId",
          "type": "uint256"
        }
      ],
      "stateMutability": "view",
      "type": "function"
    },
    {
      "inputs": [],
      "name": "owner",
      "outputs": [
        {
          "internalType": "address",
          "name": "",
          "type": "address"
        }
      ],
      "stateMutability": "view",
      "type": "function"
    },
    {
      "inputs": [],
      "name": "platformFeeBasisPoints",
      "outputs": [
        {
          "internalType": "uint256",
          "name": "",
          "type": "uint256"
        }
      ],
      "stateMutability": "view",
      "type": "function"
    },
    {
      "inputs": [],
      "name": "renounceOwnership",
      "outputs": [],
      "stateMutability": "nonpayable",
      "type": "function"
    },
    {
      "inputs": [
        {
          "internalType": "uint256",
          "name": "_newFeeBasisPoints",
          "type": "uint256"
        }
      ],
      "name": "setPlatformFee",
      "outputs": [],
      "stateMutability": "nonpayable",
      "type": "function"
    },
    {
      "inputs": [
        {
          "internalType": "address",
          "name": "newOwner",
          "type": "address"
        }
      ],
      "name": "transferOwnership",
      "outputs": [],
      "stateMutability": "nonpayable",
      "type": "function"
    },
    {
      "inputs": [
        {
          "internalType": "uint256",
          "name": "listingId",
          "type": "uint256"
        }
      ],
      "name": "unlistTicket",
      "outputs": [],
      "stateMutability": "nonpayable",
      "type": "function"
    }
  ],
  "bytecode": "0x60806040523480156200001157600080fd5b5060405162001c0c38038062001c0c8339818101604052810190620000379190620001fc565b80600073ffffffffffffffffffffffffffffffffffffffff168173ffffffffffffffffffffffffffffffffffffffff1603620000ad5760006040517f1e4fbdf7000000000000000000000000000000000000000000000000000000008152600401620000a491906200023f565b60405180910390fd5b620000be81620000ce60201b60201c565b5060fa600181905550506200025c565b60008060009054906101000a900473ffffffffffffffffffffffffffffffffffffffff169050816000806101000a81548173ffffffffffffffffffffffffffffffffffffffff021916908373ffffffffffffffffffffffffffffffffffffffff1602179055508173ffffffffffffffffffffffffffffffffffffffff168173ffffffffffffffffffffffffffffffffffffffff167f8be0079c531659141344cd1fd0a4f28419497f9722a3daafe3b4186f6b6457e060405160405180910390a35050565b600080fd5b600073ffffffffffffffffffffffffffffffffffffffff82169050919050565b6000620001c48262000197565b9050919050565b620001d681620001b7565b8114620001e257600080fd5b50565b600081519050620001f681620001cb565b92915050565b60006020828403121562000215576200021462000192565b5b60006200022584828501620001e5565b91505092915050565b6200023981620001b7565b82525050565b60006020820190506200025660008301846200022e565b92915050565b6119a0806200026c6000396000f3fe6080604052600436106100865760003560e01c806383ece4c61161005957806383ece4c6146101105780638da5cb5b14610139578063c58bfb6614610164578063de74e57b1461018f578063f2fde38b146101cf57610086565b806312e8e2c31461008b5780631d66b15c146100b457806367dd74ca146100dd578063715018a6146100f9575b600080fd5b34801561009757600080fd5b506100b260048036038101906100ad9190610fe1565b6101f8565b005b3480156100c057600080fd5b506100db60048036038101906100d6919061106c565b610286565b005b6100f760048036038101906100f29190610fe1565b6106e4565b005b34801561010557600080fd5b5061010e610b29565b005b34801561011c57600080fd5b5061013760048036038101906101329190610fe1565b610b3d565b005b34801561014557600080fd5b5061014e610d2e565b60405161015b91906110ce565b60405180910390f35b34801561017057600080fd5b50610179610d57565b60405161018691906110f8565b60405180910390f35b34801561019b57600080fd5b506101b660048036038101906101b19190610fe1565b610d5d565b6040516101c69493929190611113565b60405180910390f35b3480156101db57600080fd5b506101f660048036038101906101f19190611158565b610dcd565b005b610200610e53565b6103e8811115610245576040517f08c379a000000000000000000000000000000000000000000000000000000000815260040161023c90611208565b60405180910390fd5b806001819055507f45610d581145924dd7090a5017e5f2b1d6f42213bb2e95707ff86846bbfcb1ca8160405161027b91906110f8565b60405180910390a150565b600081116102c9576040517f08c379a00000000000000000000000000000000000000000000000000000000081526004016102c09061129a565b60405180910390fd5b60008390506000808273ffffffffffffffffffffffffffffffffffffffff1663033fab35866040518263ffffffff1660e01b815260040161030a91906110f8565b6040805180830381865afa158015610326573d6000803e3d6000fd5b505050506040513d601f19601f8201168201806040525081019061034a91906112cf565b9150915060008373ffffffffffffffffffffffffffffffffffffffff166335332e336040518163ffffffff1660e01b8152600401602060405180830381865afa15801561039b573d6000803e3d6000fd5b505050506040513d601f19601f820116820180604052508101906103bf9190611349565b905060008473ffffffffffffffffffffffffffffffffffffffff166348ad538e6040518163ffffffff1660e01b8152600401602060405180830381865afa15801561040e573d6000803e3d6000fd5b505050506040513d601f19601f820116820180604052508101906104329190611349565b90508161ffff16831061047a576040517f08c379a0000000000000000000000000000000000000000000000000000000008152600401610471906113e8565b60405180910390fd5b60008161ffff1611801561048e5750600084115b156104f857600060648261ffff16866104a79190611437565b6104b191906114a8565b9050808711156104f6576040517f08c379a00000000000000000000000000000000000000000000000000000000081526004016104ed9061154b565b60405180910390fd5b505b8473ffffffffffffffffffffffffffffffffffffffff166323b872dd33308a6040518463ffffffff1660e01b81526004016105359392919061156b565b600060405180830381600087803b15801561054f57600080fd5b505af1158015610563573d6000803e3d6000fd5b5050505060006003600081548092919061057c906115a2565b91905055905060405180608001604052803373ffffffffffffffffffffffffffffffffffffffff1681526020018a73ffffffffffffffffffffffffffffffffffffffff168152602001888152602001898152506002600083815260200190815260200160002060008201518160000160006101000a81548173ffffffffffffffffffffffffffffffffffffffff021916908373ffffffffffffffffffffffffffffffffffffffff16021790555060208201518160010160006101000a81548173ffffffffffffffffffffffffffffffffffffffff021916908373ffffffffffffffffffffffffffffffffffffffff16021790555060408201518160020155606082015181600301559050508873ffffffffffffffffffffffffffffffffffffffff1688827f4ac67bccd2e243451c435501aac7ddea212dd3a1f1974983a33a079c8ed78780338b6040516106d19291906115ea565b60405180910390a4505050505050505050565b60006002600083815260200190815260200160002090506000816002015411610742576040517f08c379a000000000000000000000000000000000000000000000000000000000815260040161073990611685565b60405180910390fd5b8060020154341015610789576040517f08c379a000000000000000000000000000000000000000000000000000000000815260040161078090611717565b60405180910390fd5b60008160030154905060008260000160009054906101000a900473ffffffffffffffffffffffffffffffffffffffff16905060008360010160009054906101000a900473ffffffffffffffffffffffffffffffffffffffff16905060008460020154905060026000878152602001908152602001600020600080820160006101000a81549073ffffffffffffffffffffffffffffffffffffffff02191690556001820160006101000a81549073ffffffffffffffffffffffffffffffffffffffff02191690556002820160009055600382016000905550506000612710600154836108749190611437565b61087e91906114a8565b90506000818361088e9190611737565b9050600061089a610d2e565b73ffffffffffffffffffffffffffffffffffffffff16836040516108bd9061179c565b60006040518083038185875af1925050503d80600081146108fa576040519150601f19603f3d011682016040523d82523d6000602084013e6108ff565b606091505b5050905080610943576040517f08c379a000000000000000000000000000000000000000000000000000000000815260040161093a906117fd565b60405180910390fd5b60008673ffffffffffffffffffffffffffffffffffffffff16836040516109699061179c565b60006040518083038185875af1925050503d80600081146109a6576040519150601f19603f3d011682016040523d82523d6000602084013e6109ab565b606091505b50509050806109ef576040517f08c379a00000000000000000000000000000000000000000000000000000000081526004016109e69061188f565b60405180910390fd5b8573ffffffffffffffffffffffffffffffffffffffff166323b872dd30338b6040518463ffffffff1660e01b8152600401610a2c9392919061156b565b600060405180830381600087803b158015610a4657600080fd5b505af1158015610a5a573d6000803e3d6000fd5b505050508573ffffffffffffffffffffffffffffffffffffffff1663942f357e89876040518363ffffffff1660e01b8152600401610a999291906118af565b600060405180830381600087803b158015610ab357600080fd5b505af1158015610ac7573d6000803e3d6000fd5b505050508573ffffffffffffffffffffffffffffffffffffffff16888b7fe3b74443da83ac244e4695af01f47e1b8620be9691a2812103aa78686e1509753389604051610b159291906115ea565b60405180910390a450505050505050505050565b610b31610e53565b610b3b6000610eda565b565b60006002600083815260200190815260200160002090503373ffffffffffffffffffffffffffffffffffffffff168160000160009054906101000a900473ffffffffffffffffffffffffffffffffffffffff1673ffffffffffffffffffffffffffffffffffffffff1614610be6576040517f08c379a0000000000000000000000000000000000000000000000000000000008152600401610bdd9061194a565b60405180910390fd5b60008160030154905060008260010160009054906101000a900473ffffffffffffffffffffffffffffffffffffffff16905060026000858152602001908152602001600020600080820160006101000a81549073ffffffffffffffffffffffffffffffffffffffff02191690556001820160006101000a81549073ffffffffffffffffffffffffffffffffffffffff02191690556002820160009055600382016000905550508073ffffffffffffffffffffffffffffffffffffffff166323b872dd3033856040518463ffffffff1660e01b8152600401610cc99392919061156b565b600060405180830381600087803b158015610ce357600080fd5b505af1158015610cf7573d6000803e3d6000fd5b50505050837fdb00f3044f762e640c77fdd12df2e7cf2b4c17de34f8995969a4d98b9904af4560405160405180910390a250505050565b60008060009054906101000a900473ffffffffffffffffffffffffffffffffffffffff16905090565b60015481565b60026020528060005260406000206000915090508060000160009054906101000a900473ffffffffffffffffffffffffffffffffffffffff16908060010160009054906101000a900473ffffffffffffffffffffffffffffffffffffffff16908060020154908060030154905084565b610dd5610e53565b600073ffffffffffffffffffffffffffffffffffffffff168173ffffffffffffffffffffffffffffffffffffffff1603610e475760006040517f1e4fbdf7000000000000000000000000000000000000000000000000000000008152600401610e3e91906110ce565b60405180910390fd5b610e5081610eda565b50565b610e5b610f9e565b73ffffffffffffffffffffffffffffffffffffffff16610e79610d2e565b73ffffffffffffffffffffffffffffffffffffffff1614610ed857610e9c610f9e565b6040517f118cdaa7000000000000000000000000000000000000000000000000000000008152600401610ecf91906110ce565b60405180910390fd5b565b60008060009054906101000a900473ffffffffffffffffffffffffffffffffffffffff169050816000806101000a81548173ffffffffffffffffffffffffffffffffffffffff021916908373ffffffffffffffffffffffffffffffffffffffff1602179055508173ffffffffffffffffffffffffffffffffffffffff168173ffffffffffffffffffffffffffffffffffffffff167f8be0079c531659141344cd1fd0a4f28419497f9722a3daafe3b4186f6b6457e060405160405180910390a35050565b600033905090565b600080fd5b6000819050919050565b610fbe81610fab565b8114610fc957600080fd5b50565b600081359050610fdb81610fb5565b92915050565b600060208284031215610ff757610ff6610fa6565b5b600061100584828501610fcc565b91505092915050565b600073ffffffffffffffffffffffffffffffffffffffff82169050919050565b60006110398261100e565b9050919050565b6110498161102e565b811461105457600080fd5b50565b60008135905061106681611040565b92915050565b60008060006060848603121561108557611084610fa6565b5b600061109386828701611057565b93505060206110a486828701610fcc565b92505060406110b586828701610fcc565b9150509250925092565b6110c88161102e565b82525050565b60006020820190506110e360008301846110bf565b92915050565b6110f281610fab565b82525050565b600060208201905061110d60008301846110e9565b92915050565b600060808201905061112860008301876110bf565b61113560208301866110bf565b61114260408301856110e9565b61114f60608301846110e9565b95945050505050565b60006020828403121561116e5761116d610fa6565b5b600061117c84828501611057565b91505092915050565b600082825260208201905092915050565b7f4d61726b6574706c6163653a204665652063616e6e6f7420657863656564203160008201527f3025000000000000000000000000000000000000000000000000000000000000602082015250565b60006111f2602283611185565b91506111fd82611196565b604082019050919050565b60006020820190508181036000830152611221816111e5565b9050919050565b7f4d61726b6574706c6163653a205072696365206d75737420626520677265617460008201527f6572207468616e207a65726f0000000000000000000000000000000000000000602082015250565b6000611284602c83611185565b915061128f82611228565b604082019050919050565b600060208201905081810360008301526112b381611277565b9050919050565b6000815190506112c981610fb5565b92915050565b600080604083850312156112e6576112e5610fa6565b5b60006112f4858286016112ba565b9250506020611305858286016112ba565b9150509250929050565b600061ffff82169050919050565b6113268161130f565b811461133157600080fd5b50565b6000815190506113438161131d565b92915050565b60006020828403121561135f5761135e610fa6565b5b600061136d84828501611334565b91505092915050565b7f4d61726b6574706c6163653a205469636b65742068617320726561636865642060008201527f6d617820726573616c65206c696d697400000000000000000000000000000000602082015250565b60006113d2603083611185565b91506113dd82611376565b604082019050919050565b60006020820190508181036000830152611401816113c5565b9050919050565b7f4e487b7100000000000000000000000000000000000000000000000000000000600052601160045260246000fd5b600061144282610fab565b915061144d83610fab565b925082820261145b81610fab565b9150828204841483151761147257611471611408565b5b5092915050565b7f4e487b7100000000000000000000000000000000000000000000000000000000600052601260045260246000fd5b60006114b382610fab565b91506114be83610fab565b9250826114ce576114cd611479565b5b828204905092915050565b7f4d61726b6574706c6163653a205072696365206578636565647320726573616c60008201527f6520636170000000000000000000000000000000000000000000000000000000602082015250565b6000611535602583611185565b9150611540826114d9565b604082019050919050565b6000602082019050818103600083015261156481611528565b9050919050565b600060608201905061158060008301866110bf565b61158d60208301856110bf565b61159a60408301846110e9565b949350505050565b60006115ad82610fab565b91507fffffffffffffffffffffffffffffffffffffffffffffffffffffffffffffffff82036115df576115de611408565b5b600182019050919050565b60006040820190506115ff60008301856110bf565b61160c60208301846110e9565b9392505050565b7f4d61726b6574706c6163653a205469636b6574206e6f74206c6973746564206660008201527f6f722073616c6500000000000000000000000000000000000000000000000000602082015250565b600061166f602783611185565b915061167a82611613565b604082019050919050565b6000602082019050818103600083015261169e81611662565b9050919050565b7f4d61726b6574706c6163653a20496e73756666696369656e742045544820736560008201527f6e74000000000000000000000000000000000000000000000000000000000000602082015250565b6000611701602283611185565b915061170c826116a5565b604082019050919050565b60006020820190508181036000830152611730816116f4565b9050919050565b600061174282610fab565b915061174d83610fab565b925082820390508181111561176557611764611408565b5b92915050565b600081905092915050565b50565b600061178660008361176b565b915061179182611776565b600082019050919050565b60006117a782611779565b9150819050919050565b7f4d61726b6574706c6163653a20466565207472616e73666572206661696c6564600082015250565b60006117e7602083611185565b91506117f2826117b1565b602082019050919050565b60006020820190508181036000830152611816816117da565b9050919050565b7f4d61726b6574706c6163653a2053656c6c6572207061796d656e74206661696c60008201527f6564000000000000000000000000000000000000000000000000000000000000602082015250565b6000611879602283611185565b91506118848261181d565b604082019050919050565b600060208201905081810360008301526118a88161186c565b9050919050565b60006040820190506118c460008301856110e9565b6118d160208301846110e9565b9392505050565b7f4d61726b6574706c6163653a20596f7520617265206e6f74207468652073656c60008201527f6c65720000000000000000000000000000000000000000000000000000000000602082015250565b6000611934602383611185565b915061193f826118d8565b604082019050919050565b6000602082019050818103600083015261196381611927565b905091905056fea26469706673582212207b19e03f1b660d19d8aff11c3da8547473d8898a175c24d76b3ed7b7cbbf2f7064736f6c63430008140033",
  "linkReferences": {},
  "deployedLinkReferences": {}
}