{
  "_format": "hh-sol-artifact-1",
  "contractName": "Marketplace",
  "sourceName": "contracts/Marketplace.sol",
  "abi": [
    {
      "inputs": [
        {
          "internalType": "address",
          "name": "initialOwner",
          "type": "address"
        }
      ],
      "stateMutability": "nonpayable",
      "type": "constructor"
    },
    {
      "inputs": [
        {
          "internalType": "address",
          "name": "owner",
          "type": "address"
        }
      ],
      "name": "OwnableInvalidOwner",
      "type": "error"
    },
    {
      "inputs": [
        {
          "internalType": "address",
          "name": "account",
          "type": "address"
        }
      ],
      "name": "OwnableUnauthorizedAccount",
      "type": "error"
    },
    {
      "anonymous": false,
      "inputs": [
        {
          "indexed": true,
          "internalType": "address",
          "name": "previousOwner",
          "type": "address"
        },
        {
          "indexed": true,
          "internalType": "address",
          "name": "newOwner",
          "type": "address"
        }
      ],
      "name": "OwnershipTransferred",
      "type": "event"
    },
    {
      "anonymous": false,
      "inputs": [
        {
          "indexed": false,
          "internalType": "uint256",
          "name": "newFee",
          "type": "uint256"
        }
      ],
      "name": "PlatformFeeUpdated",
      "type": "event"
    },
    {
      "anonymous": false,
      "inputs": [
        {
          "indexed": true,
          "internalType": "uint256",
          "name": "listingId",
          "type": "uint256"
        },
        {
          "indexed": true,
          "internalType": "uint256",
          "name": "tokenId",
          "type": "uint256"
        },
        {
          "indexed": true,
          "internalType": "address",
          "name": "nftContract",
          "type": "address"
        },
        {
          "indexed": false,
          "internalType": "address",
          "name": "seller",
          "type": "address"
        },
        {
          "indexed": false,
          "internalType": "uint256",
          "name": "price",
          "type": "uint256"
        }
      ],
      "name": "TicketListed",
      "type": "event"
    },
    {
      "anonymous": false,
      "inputs": [
        {
          "indexed": true,
          "internalType": "uint256",
          "name": "listingId",
          "type": "uint256"
        },
        {
          "indexed": true,
          "internalType": "uint256",
          "name": "tokenId",
          "type": "uint256"
        },
        {
          "indexed": true,
          "internalType": "address",
          "name": "nftContract",
          "type": "address"
        },
        {
          "indexed": false,
          "internalType": "address",
          "name": "buyer",
          "type": "address"
        },
        {
          "indexed": false,
          "internalType": "uint256",
          "name": "price",
          "type": "uint256"
        }
      ],
      "name": "TicketSold",
      "type": "event"
    },
    {
      "anonymous": false,
      "inputs": [
        {
          "indexed": true,
          "internalType": "uint256",
          "name": "listingId",
          "type": "uint256"
        }
      ],
      "name": "TicketUnlisted",
      "type": "event"
    },
    {
      "inputs": [
        {
          "internalType": "uint256",
          "name": "listingId",
          "type": "uint256"
        }
      ],
      "name": "buyTicket",
      "outputs": [],
      "stateMutability": "payable",
      "type": "function"
    },
    {
      "inputs": [
        {
          "internalType": "address",
          "name": "nftContract",
          "type": "address"
        },
        {
          "internalType": "uint256",
          "name": "tokenId",
          "type": "uint256"
        },
        {
          "internalType": "uint256",
          "name": "price",
          "type": "uint256"
        }
      ],
      "name": "listTicket",
      "outputs": [],
      "stateMutability": "nonpayable",
      "type": "function"
    },
    {
      "inputs": [
        {
          "internalType": "uint256",
          "name": "",
          "type": "uint256"
        }
      ],
      "name": "listings",
      "outputs": [
        {
          "internalType": "address",
          "name": "seller",
          "type": "address"
        },
        {
          "internalType": "address",
          "name": "nftContract",
          "type": "address"
        },
        {
          "internalType": "uint256",
          "name": "price",
          "type": "uint256"
        },
        {
          "internalType": "uint256",
          "name": "tokenId",
          "type": "uint256"
        }
      ],
      "stateMutability": "view",
      "type": "function"
    },
    {
      "inputs": [],
      "name": "owner",
      "outputs": [
        {
          "internalType": "address",
          "name": "",
          "type": "address"
        }
      ],
      "stateMutability": "view",
      "type": "function"
    },
    {
      "inputs": [],
      "name": "platformFeeBasisPoints",
      "outputs": [
        {
          "internalType": "uint256",
          "name": "",
          "type": "uint256"
        }
      ],
      "stateMutability": "view",
      "type": "function"
    },
    {
      "inputs": [],
      "name": "renounceOwnership",
      "outputs": [],
      "stateMutability": "nonpayable",
      "type": "function"
    },
    {
      "inputs": [
        {
          "internalType": "uint256",
          "name": "_newFeeBasisPoints",
          "type": "uint256"
        }
      ],
      "name": "setPlatformFee",
      "outputs": [],
      "stateMutability": "nonpayable",
      "type": "function"
    },
    {
      "inputs": [
        {
          "internalType": "address",
          "name": "newOwner",
          "type": "address"
        }
      ],
      "name": "transferOwnership",
      "outputs": [],
      "stateMutability": "nonpayable",
      "type": "function"
    },
    {
      "inputs": [
        {
          "internalType": "uint256",
          "name": "listingId",
          "type": "uint256"
        }
      ],
      "name": "unlistTicket",
      "outputs": [],
      "stateMutability": "nonpayable",
      "type": "function"
    }
  ],
  "bytecode": "0x60806040523480156200001157600080fd5b50604051620017f8380380620017f88339818101604052810190620000379190620001fc565b80600073ffffffffffffffffffffffffffffffffffffffff168173ffffffffffffffffffffffffffffffffffffffff1603620000ad5760006040517f1e4fbdf7000000000000000000000000000000000000000000000000000000008152600401620000a491906200023f565b60405180910390fd5b620000be81620000ce60201b60201c565b5060fa600181905550506200025c565b60008060009054906101000a900473ffffffffffffffffffffffffffffffffffffffff169050816000806101000a81548173ffffffffffffffffffffffffffffffffffffffff021916908373ffffffffffffffffffffffffffffffffffffffff1602179055508173ffffffffffffffffffffffffffffffffffffffff168173ffffffffffffffffffffffffffffffffffffffff167f8be0079c531659141344cd1fd0a4f28419497f9722a3daafe3b4186f6b6457e060405160405180910390a35050565b600080fd5b600073ffffffffffffffffffffffffffffffffffffffff82169050919050565b6000620001c48262000197565b9050919050565b620001d681620001b7565b8114620001e257600080fd5b50565b600081519050620001f681620001cb565b92915050565b60006020828403121562000215576200021462000192565b5b60006200022584828501620001e5565b91505092915050565b6200023981620001b7565b82525050565b60006020820190506200025660008301846200022e565b92915050565b61158c806200026c6000396000f3fe6080604052600436106100865760003560e01c806383ece4c61161005957806383ece4c6146101105780638da5cb5b14610139578063c58bfb6614610164578063de74e57b1461018f578063f2fde38b146101cf57610086565b806312e8e2c31461008b5780631d66b15c146100b457806367dd74ca146100dd578063715018a6146100f9575b600080fd5b34801561009757600080fd5b506100b260048036038101906100ad9190610dad565b6101f8565b005b3480156100c057600080fd5b506100db60048036038101906100d69190610e38565b610286565b005b6100f760048036038101906100f29190610dad565b6104b0565b005b34801561010557600080fd5b5061010e6108f5565b005b34801561011c57600080fd5b5061013760048036038101906101329190610dad565b610909565b005b34801561014557600080fd5b5061014e610afa565b60405161015b9190610e9a565b60405180910390f35b34801561017057600080fd5b50610179610b23565b6040516101869190610ec4565b60405180910390f35b34801561019b57600080fd5b506101b660048036038101906101b19190610dad565b610b29565b6040516101c69493929190610edf565b60405180910390f35b3480156101db57600080fd5b506101f660048036038101906101f19190610f24565b610b99565b005b610200610c1f565b6103e8811115610245576040517f08c379a000000000000000000000000000000000000000000000000000000000815260040161023c90610fd4565b60405180910390fd5b806001819055507f45610d581145924dd7090a5017e5f2b1d6f42213bb2e95707ff86846bbfcb1ca8160405161027b9190610ec4565b60405180910390a150565b600081116102c9576040517f08c379a00000000000000000000000000000000000000000000000000000000081526004016102c090611066565b60405180910390fd5b8273ffffffffffffffffffffffffffffffffffffffff166323b872dd3330856040518463ffffffff1660e01b815260040161030693929190611086565b600060405180830381600087803b15801561032057600080fd5b505af1158015610334573d6000803e3d6000fd5b5050505060006003600081548092919061034d906110ec565b91905055905060405180608001604052803373ffffffffffffffffffffffffffffffffffffffff1681526020018573ffffffffffffffffffffffffffffffffffffffff168152602001838152602001848152506002600083815260200190815260200160002060008201518160000160006101000a81548173ffffffffffffffffffffffffffffffffffffffff021916908373ffffffffffffffffffffffffffffffffffffffff16021790555060208201518160010160006101000a81548173ffffffffffffffffffffffffffffffffffffffff021916908373ffffffffffffffffffffffffffffffffffffffff16021790555060408201518160020155606082015181600301559050508373ffffffffffffffffffffffffffffffffffffffff1683827f4ac67bccd2e243451c435501aac7ddea212dd3a1f1974983a33a079c8ed7878033866040516104a2929190611134565b60405180910390a450505050565b6000600260008381526020019081526020016000209050600081600201541161050e576040517f08c379a0000000000000000000000000000000000000000000000000000000008152600401610505906111cf565b60405180910390fd5b8060020154341015610555576040517f08c379a000000000000000000000000000000000000000000000000000000000815260040161054c90611261565b60405180910390fd5b60008160030154905060008260000160009054906101000a900473ffffffffffffffffffffffffffffffffffffffff16905060008360010160009054906101000a900473ffffffffffffffffffffffffffffffffffffffff16905060008460020154905060026000878152602001908152602001600020600080820160006101000a81549073ffffffffffffffffffffffffffffffffffffffff02191690556001820160006101000a81549073ffffffffffffffffffffffffffffffffffffffff02191690556002820160009055600382016000905550506000612710600154836106409190611281565b61064a91906112f2565b90506000818361065a9190611323565b90506000610666610afa565b73ffffffffffffffffffffffffffffffffffffffff168360405161068990611388565b60006040518083038185875af1925050503d80600081146106c6576040519150601f19603f3d011682016040523d82523d6000602084013e6106cb565b606091505b505090508061070f576040517f08c379a0000000000000000000000000000000000000000000000000000000008152600401610706906113e9565b60405180910390fd5b60008673ffffffffffffffffffffffffffffffffffffffff168360405161073590611388565b60006040518083038185875af1925050503d8060008114610772576040519150601f19603f3d011682016040523d82523d6000602084013e610777565b606091505b50509050806107bb576040517f08c379a00000000000000000000000000000000000000000000000000000000081526004016107b29061147b565b60405180910390fd5b8573ffffffffffffffffffffffffffffffffffffffff166323b872dd30338b6040518463ffffffff1660e01b81526004016107f893929190611086565b600060405180830381600087803b15801561081257600080fd5b505af1158015610826573d6000803e3d6000fd5b505050508573ffffffffffffffffffffffffffffffffffffffff1663942f357e89876040518363ffffffff1660e01b815260040161086592919061149b565b600060405180830381600087803b15801561087f57600080fd5b505af1158015610893573d6000803e3d6000fd5b505050508573ffffffffffffffffffffffffffffffffffffffff16888b7fe3b74443da83ac244e4695af01f47e1b8620be9691a2812103aa78686e15097533896040516108e1929190611134565b60405180910390a450505050505050505050565b6108fd610c1f565b6109076000610ca6565b565b60006002600083815260200190815260200160002090503373ffffffffffffffffffffffffffffffffffffffff168160000160009054906101000a900473ffffffffffffffffffffffffffffffffffffffff1673ffffffffffffffffffffffffffffffffffffffff16146109b2576040517f08c379a00000000000000000000000000000000000000000000000000000000081526004016109a990611536565b60405180910390fd5b60008160030154905060008260010160009054906101000a900473ffffffffffffffffffffffffffffffffffffffff16905060026000858152602001908152602001600020600080820160006101000a81549073ffffffffffffffffffffffffffffffffffffffff02191690556001820160006101000a81549073ffffffffffffffffffffffffffffffffffffffff02191690556002820160009055600382016000905550508073ffffffffffffffffffffffffffffffffffffffff166323b872dd3033856040518463ffffffff1660e01b8152600401610a9593929190611086565b600060405180830381600087803b158015610aaf57600080fd5b505af1158015610ac3573d6000803e3d6000fd5b50505050837fdb00f3044f762e640c77fdd12df2e7cf2b4c17de34f8995969a4d98b9904af4560405160405180910390a250505050565b60008060009054906101000a900473ffffffffffffffffffffffffffffffffffffffff16905090565b60015481565b60026020528060005260406000206000915090508060000160009054906101000a900473ffffffffffffffffffffffffffffffffffffffff16908060010160009054906101000a900473ffffffffffffffffffffffffffffffffffffffff16908060020154908060030154905084565b610ba1610c1f565b600073ffffffffffffffffffffffffffffffffffffffff168173ffffffffffffffffffffffffffffffffffffffff1603610c135760006040517f1e4fbdf7000000000000000000000000000000000000000000000000000000008152600401610c0a9190610e9a565b60405180910390fd5b610c1c81610ca6565b50565b610c27610d6a565b73ffffffffffffffffffffffffffffffffffffffff16610c45610afa565b73ffffffffffffffffffffffffffffffffffffffff1614610ca457610c68610d6a565b6040517f118cdaa7000000000000000000000000000000000000000000000000000000008152600401610c9b9190610e9a565b60405180910390fd5b565b60008060009054906101000a900473ffffffffffffffffffffffffffffffffffffffff169050816000806101000a81548173ffffffffffffffffffffffffffffffffffffffff021916908373ffffffffffffffffffffffffffffffffffffffff1602179055508173ffffffffffffffffffffffffffffffffffffffff168173ffffffffffffffffffffffffffffffffffffffff167f8be0079c531659141344cd1fd0a4f28419497f9722a3daafe3b4186f6b6457e060405160405180910390a35050565b600033905090565b600080fd5b6000819050919050565b610d8a81610d77565b8114610d9557600080fd5b50565b600081359050610da781610d81565b92915050565b600060208284031215610dc357610dc2610d72565b5b6000610dd184828501610d98565b91505092915050565b600073ffffffffffffffffffffffffffffffffffffffff82169050919050565b6000610e0582610dda565b9050919050565b610e1581610dfa565b8114610e2057600080fd5b50565b600081359050610e3281610e0c565b92915050565b600080600060608486031215610e5157610e50610d72565b5b6000610e5f86828701610e23565b9350506020610e7086828701610d98565b9250506040610e8186828701610d98565b9150509250925092565b610e9481610dfa565b82525050565b6000602082019050610eaf6000830184610e8b565b92915050565b610ebe81610d77565b82525050565b6000602082019050610ed96000830184610eb5565b92915050565b6000608082019050610ef46000830187610e8b565b610f016020830186610e8b565b610f0e6040830185610eb5565b610f1b6060830184610eb5565b95945050505050565b600060208284031215610f3a57610f39610d72565b5b6000610f4884828501610e23565b91505092915050565b600082825260208201905092915050565b7f4d61726b6574706c6163653a204665652063616e6e6f7420657863656564203160008201527f3025000000000000000000000000000000000000000000000000000000000000602082015250565b6000610fbe602283610f51565b9150610fc982610f62565b604082019050919050565b60006020820190508181036000830152610fed81610fb1565b9050919050565b7f4d61726b6574706c6163653a205072696365206d75737420626520677265617460008201527f6572207468616e207a65726f0000000000000000000000000000000000000000602082015250565b6000611050602c83610f51565b915061105b82610ff4565b604082019050919050565b6000602082019050818103600083015261107f81611043565b9050919050565b600060608201905061109b6000830186610e8b565b6110a86020830185610e8b565b6110b56040830184610eb5565b949350505050565b7f4e487b7100000000000000000000000000000000000000000000000000000000600052601160045260246000fd5b60006110f782610d77565b91507fffffffffffffffffffffffffffffffffffffffffffffffffffffffffffffffff8203611129576111286110bd565b5b600182019050919050565b60006040820190506111496000830185610e8b565b6111566020830184610eb5565b9392505050565b7f4d61726b6574706c6163653a205469636b6574206e6f74206c6973746564206660008201527f6f722073616c6500000000000000000000000000000000000000000000000000602082015250565b60006111b9602783610f51565b91506111c48261115d565b604082019050919050565b600060208201905081810360008301526111e8816111ac565b9050919050565b7f4d61726b6574706c6163653a20496e73756666696369656e742045544820736560008201527f6e74000000000000000000000000000000000000000000000000000000000000602082015250565b600061124b602283610f51565b9150611256826111ef565b604082019050919050565b6000602082019050818103600083015261127a8161123e565b9050919050565b600061128c82610d77565b915061129783610d77565b92508282026112a581610d77565b915082820484148315176112bc576112bb6110bd565b5b5092915050565b7f4e487b7100000000000000000000000000000000000000000000000000000000600052601260045260246000fd5b60006112fd82610d77565b915061130883610d77565b925082611318576113176112c3565b5b828204905092915050565b600061132e82610d77565b915061133983610d77565b9250828203905081811115611351576113506110bd565b5b92915050565b600081905092915050565b50565b6000611372600083611357565b915061137d82611362565b600082019050919050565b600061139382611365565b9150819050919050565b7f4d61726b6574706c6163653a20466565207472616e73666572206661696c6564600082015250565b60006113d3602083610f51565b91506113de8261139d565b602082019050919050565b60006020820190508181036000830152611402816113c6565b9050919050565b7f4d61726b6574706c6163653a2053656c6c6572207061796d656e74206661696c60008201527f6564000000000000000000000000000000000000000000000000000000000000602082015250565b6000611465602283610f51565b915061147082611409565b604082019050919050565b6000602082019050818103600083015261149481611458565b9050919050565b60006040820190506114b06000830185610eb5565b6114bd6020830184610eb5565b9392505050565b7f4d61726b6574706c6163653a20596f7520617265206e6f74207468652073656c60008201527f6c65720000000000000000000000000000000000000000000000000000000000602082015250565b6000611520602383610f51565b915061152b826114c4565b604082019050919050565b6000602082019050818103600083015261154f81611513565b905091905056fea2646970667358221220d9ccd5e94436157bf6802c76e3a5cb9887f90589a239db7b13ab287b125955cf64736f6c63430008140033",
  "linkReferences": {},
  "deployedLinkReferences": {}
}