{
  "_format": "hh-sol-artifact-1",
  "contractName": "Marketplace",
  "sourceName": "contracts/Marketplace.sol",
  "abi": [
    {
      "inputs": [
        {
          "internalType": "address",
          "name": "initialOwner",
          "type": "address"
        }
      ],
      "stateMutability": "nonpayable",
      "type": "constructor"
    },
    {
      "inputs": [
        {
          "internalType": "address",
          "name": "owner",
          "type": "address"
        }
      ],
      "name": "OwnableInvalidOwner",
      "type": "error"
    },
    {
      "inputs": [
        {
          "internalType": "address",
          "name": "account",
          "type": "address"
        }
      ],
      "name": "OwnableUnauthorizedAccount",
      "type": "error"
    },
    {
      "anonymous": false,
      "inputs": [
        {
          "indexed": true,
          "internalType": "address",
          "name": "previousOwner",
          "type": "address"
        },
        {
          "indexed": true,
          "internalType": "address",
          "name": "newOwner",
          "type": "address"
        }
      ],
      "name": "OwnershipTransferred",
      "type": "event"
    },
    {
      "anonymous": false,
      "inputs": [
        {
          "indexed": false,
          "internalType": "uint256",
          "name": "newFee",
          "type": "uint256"
        }
      ],
      "name": "PlatformFeeUpdated",
      "type": "event"
    },
    {
      "anonymous": false,
      "inputs": [
        {
          "indexed": true,
          "internalType": "uint256",
          "name": "listingId",
          "type": "uint256"
        },
        {
          "indexed": true,
          "internalType": "uint256",
          "name": "tokenId",
          "type": "uint256"
        },
        {
          "indexed": true,
          "internalType": "address",
          "name": "nftContract",
          "type": "address"
        },
        {
          "indexed": false,
          "internalType": "address",
          "name": "seller",
          "type": "address"
        },
        {
          "indexed": false,
          "internalType": "uint256",
          "name": "price",
          "type": "uint256"
        }
      ],
      "name": "TicketListed",
      "type": "event"
    },
    {
      "anonymous": false,
      "inputs": [
        {
          "indexed": true,
          "internalType": "uint256",
          "name": "listingId",
          "type": "uint256"
        },
        {
          "indexed": true,
          "internalType": "uint256",
          "name": "tokenId",
          "type": "uint256"
        },
        {
          "indexed": true,
          "internalType": "address",
          "name": "nftContract",
          "type": "address"
        },
        {
          "indexed": false,
          "internalType": "address",
          "name": "buyer",
          "type": "address"
        },
        {
          "indexed": false,
          "internalType": "uint256",
          "name": "price",
          "type": "uint256"
        }
      ],
      "name": "TicketSold",
      "type": "event"
    },
    {
      "anonymous": false,
      "inputs": [
        {
          "indexed": true,
          "internalType": "uint256",
          "name": "listingId",
          "type": "uint256"
        }
      ],
      "name": "TicketUnlisted",
      "type": "event"
    },
    {
      "inputs": [
        {
          "internalType": "uint256",
          "name": "listingId",
          "type": "uint256"
        },
        {
          "internalType": "uint256",
          "name": "tokenId",
          "type": "uint256"
        }
      ],
      "name": "buyTicket",
      "outputs": [],
      "stateMutability": "payable",
      "type": "function"
    },
    {
      "inputs": [
        {
          "internalType": "address",
          "name": "nftContract",
          "type": "address"
        },
        {
          "internalType": "uint256",
          "name": "tokenId",
          "type": "uint256"
        },
        {
          "internalType": "uint256",
          "name": "price",
          "type": "uint256"
        }
      ],
      "name": "listTicket",
      "outputs": [],
      "stateMutability": "nonpayable",
      "type": "function"
    },
    {
      "inputs": [
        {
          "internalType": "uint256",
          "name": "",
          "type": "uint256"
        }
      ],
      "name": "listings",
      "outputs": [
        {
          "internalType": "address",
          "name": "seller",
          "type": "address"
        },
        {
          "internalType": "address",
          "name": "nftContract",
          "type": "address"
        },
        {
          "internalType": "uint256",
          "name": "price",
          "type": "uint256"
        }
      ],
      "stateMutability": "view",
      "type": "function"
    },
    {
      "inputs": [],
      "name": "owner",
      "outputs": [
        {
          "internalType": "address",
          "name": "",
          "type": "address"
        }
      ],
      "stateMutability": "view",
      "type": "function"
    },
    {
      "inputs": [],
      "name": "platformFeeBasisPoints",
      "outputs": [
        {
          "internalType": "uint256",
          "name": "",
          "type": "uint256"
        }
      ],
      "stateMutability": "view",
      "type": "function"
    },
    {
      "inputs": [],
      "name": "renounceOwnership",
      "outputs": [],
      "stateMutability": "nonpayable",
      "type": "function"
    },
    {
      "inputs": [
        {
          "internalType": "uint256",
          "name": "_newFeeBasisPoints",
          "type": "uint256"
        }
      ],
      "name": "setPlatformFee",
      "outputs": [],
      "stateMutability": "nonpayable",
      "type": "function"
    },
    {
      "inputs": [
        {
          "internalType": "address",
          "name": "newOwner",
          "type": "address"
        }
      ],
      "name": "transferOwnership",
      "outputs": [],
      "stateMutability": "nonpayable",
      "type": "function"
    },
    {
      "inputs": [
        {
          "internalType": "uint256",
          "name": "listingId",
          "type": "uint256"
        },
        {
          "internalType": "uint256",
          "name": "tokenId",
          "type": "uint256"
        }
      ],
      "name": "unlistTicket",
      "outputs": [],
      "stateMutability": "nonpayable",
      "type": "function"
    }
  ],
  "bytecode": "0x608060405234801561001057600080fd5b50604051611708380380611708833981810160405281019061003291906101ea565b80600073ffffffffffffffffffffffffffffffffffffffff168173ffffffffffffffffffffffffffffffffffffffff16036100a55760006040517f1e4fbdf700000000000000000000000000000000000000000000000000000000815260040161009c9190610226565b60405180910390fd5b6100b4816100c360201b60201c565b5060fa60018190555050610241565b60008060009054906101000a900473ffffffffffffffffffffffffffffffffffffffff169050816000806101000a81548173ffffffffffffffffffffffffffffffffffffffff021916908373ffffffffffffffffffffffffffffffffffffffff1602179055508173ffffffffffffffffffffffffffffffffffffffff168173ffffffffffffffffffffffffffffffffffffffff167f8be0079c531659141344cd1fd0a4f28419497f9722a3daafe3b4186f6b6457e060405160405180910390a35050565b600080fd5b600073ffffffffffffffffffffffffffffffffffffffff82169050919050565b60006101b78261018c565b9050919050565b6101c7816101ac565b81146101d257600080fd5b50565b6000815190506101e4816101be565b92915050565b600060208284031215610200576101ff610187565b5b600061020e848285016101d5565b91505092915050565b610220816101ac565b82525050565b600060208201905061023b6000830184610217565b92915050565b6114b8806102506000396000f3fe6080604052600436106100865760003560e01c80638da5cb5b116100595780638da5cb5b14610110578063c58bfb661461013b578063de74e57b14610166578063ef0d756f146101a5578063f2fde38b146101ce57610086565b806312e8e2c31461008b5780631d66b15c146100b4578063298ec208146100dd578063715018a6146100f9575b600080fd5b34801561009757600080fd5b506100b260048036038101906100ad9190610d07565b6101f7565b005b3480156100c057600080fd5b506100db60048036038101906100d69190610d92565b610285565b005b6100f760048036038101906100f29190610de5565b61049f565b005b34801561010557600080fd5b5061010e610866565b005b34801561011c57600080fd5b5061012561087a565b6040516101329190610e34565b60405180910390f35b34801561014757600080fd5b506101506108a3565b60405161015d9190610e5e565b60405180910390f35b34801561017257600080fd5b5061018d60048036038101906101889190610d07565b6108a9565b60405161019c93929190610e79565b60405180910390f35b3480156101b157600080fd5b506101cc60048036038101906101c79190610de5565b610913565b005b3480156101da57600080fd5b506101f560048036038101906101f09190610eb0565b610af3565b005b6101ff610b79565b6103e8811115610244576040517f08c379a000000000000000000000000000000000000000000000000000000000815260040161023b90610f60565b60405180910390fd5b806001819055507f45610d581145924dd7090a5017e5f2b1d6f42213bb2e95707ff86846bbfcb1ca8160405161027a9190610e5e565b60405180910390a150565b600081116102c8576040517f08c379a00000000000000000000000000000000000000000000000000000000081526004016102bf90610ff2565b60405180910390fd5b8273ffffffffffffffffffffffffffffffffffffffff166323b872dd3330856040518463ffffffff1660e01b815260040161030593929190610e79565b600060405180830381600087803b15801561031f57600080fd5b505af1158015610333573d6000803e3d6000fd5b5050505060006003600081548092919061034c90611041565b91905055905060405180606001604052803373ffffffffffffffffffffffffffffffffffffffff1681526020018573ffffffffffffffffffffffffffffffffffffffff168152602001838152506002600083815260200190815260200160002060008201518160000160006101000a81548173ffffffffffffffffffffffffffffffffffffffff021916908373ffffffffffffffffffffffffffffffffffffffff16021790555060208201518160010160006101000a81548173ffffffffffffffffffffffffffffffffffffffff021916908373ffffffffffffffffffffffffffffffffffffffff160217905550604082015181600201559050508373ffffffffffffffffffffffffffffffffffffffff1683827f4ac67bccd2e243451c435501aac7ddea212dd3a1f1974983a33a079c8ed787803386604051610491929190611089565b60405180910390a450505050565b600060026000848152602001908152602001600020905060008160020154116104fd576040517f08c379a00000000000000000000000000000000000000000000000000000000081526004016104f490611124565b60405180910390fd5b8060020154341015610544576040517f08c379a000000000000000000000000000000000000000000000000000000000815260040161053b906111b6565b60405180910390fd5b60008160000160009054906101000a900473ffffffffffffffffffffffffffffffffffffffff16905060008260010160009054906101000a900473ffffffffffffffffffffffffffffffffffffffff16905060008360020154905060026000878152602001908152602001600020600080820160006101000a81549073ffffffffffffffffffffffffffffffffffffffff02191690556001820160006101000a81549073ffffffffffffffffffffffffffffffffffffffff02191690556002820160009055505060006127106001548361061e91906111d6565b6106289190611247565b9050600081836106389190611278565b9050600061064461087a565b73ffffffffffffffffffffffffffffffffffffffff1683604051610667906112dd565b60006040518083038185875af1925050503d80600081146106a4576040519150601f19603f3d011682016040523d82523d6000602084013e6106a9565b606091505b50509050806106ed576040517f08c379a00000000000000000000000000000000000000000000000000000000081526004016106e49061133e565b60405180910390fd5b60008673ffffffffffffffffffffffffffffffffffffffff1683604051610713906112dd565b60006040518083038185875af1925050503d8060008114610750576040519150601f19603f3d011682016040523d82523d6000602084013e610755565b606091505b5050905080610799576040517f08c379a0000000000000000000000000000000000000000000000000000000008152600401610790906113d0565b60405180910390fd5b8573ffffffffffffffffffffffffffffffffffffffff166323b872dd30338c6040518463ffffffff1660e01b81526004016107d693929190610e79565b600060405180830381600087803b1580156107f057600080fd5b505af1158015610804573d6000803e3d6000fd5b505050508573ffffffffffffffffffffffffffffffffffffffff16898b7fe3b74443da83ac244e4695af01f47e1b8620be9691a2812103aa78686e1509753389604051610852929190611089565b60405180910390a450505050505050505050565b61086e610b79565b6108786000610c00565b565b60008060009054906101000a900473ffffffffffffffffffffffffffffffffffffffff16905090565b60015481565b60026020528060005260406000206000915090508060000160009054906101000a900473ffffffffffffffffffffffffffffffffffffffff16908060010160009054906101000a900473ffffffffffffffffffffffffffffffffffffffff16908060020154905083565b60006002600084815260200190815260200160002090503373ffffffffffffffffffffffffffffffffffffffff168160000160009054906101000a900473ffffffffffffffffffffffffffffffffffffffff1673ffffffffffffffffffffffffffffffffffffffff16146109bc576040517f08c379a00000000000000000000000000000000000000000000000000000000081526004016109b390611462565b60405180910390fd5b60008160010160009054906101000a900473ffffffffffffffffffffffffffffffffffffffff16905060026000858152602001908152602001600020600080820160006101000a81549073ffffffffffffffffffffffffffffffffffffffff02191690556001820160006101000a81549073ffffffffffffffffffffffffffffffffffffffff0219169055600282016000905550508073ffffffffffffffffffffffffffffffffffffffff166323b872dd3033866040518463ffffffff1660e01b8152600401610a8e93929190610e79565b600060405180830381600087803b158015610aa857600080fd5b505af1158015610abc573d6000803e3d6000fd5b50505050837fdb00f3044f762e640c77fdd12df2e7cf2b4c17de34f8995969a4d98b9904af4560405160405180910390a250505050565b610afb610b79565b600073ffffffffffffffffffffffffffffffffffffffff168173ffffffffffffffffffffffffffffffffffffffff1603610b6d5760006040517f1e4fbdf7000000000000000000000000000000000000000000000000000000008152600401610b649190610e34565b60405180910390fd5b610b7681610c00565b50565b610b81610cc4565b73ffffffffffffffffffffffffffffffffffffffff16610b9f61087a565b73ffffffffffffffffffffffffffffffffffffffff1614610bfe57610bc2610cc4565b6040517f118cdaa7000000000000000000000000000000000000000000000000000000008152600401610bf59190610e34565b60405180910390fd5b565b60008060009054906101000a900473ffffffffffffffffffffffffffffffffffffffff169050816000806101000a81548173ffffffffffffffffffffffffffffffffffffffff021916908373ffffffffffffffffffffffffffffffffffffffff1602179055508173ffffffffffffffffffffffffffffffffffffffff168173ffffffffffffffffffffffffffffffffffffffff167f8be0079c531659141344cd1fd0a4f28419497f9722a3daafe3b4186f6b6457e060405160405180910390a35050565b600033905090565b600080fd5b6000819050919050565b610ce481610cd1565b8114610cef57600080fd5b50565b600081359050610d0181610cdb565b92915050565b600060208284031215610d1d57610d1c610ccc565b5b6000610d2b84828501610cf2565b91505092915050565b600073ffffffffffffffffffffffffffffffffffffffff82169050919050565b6000610d5f82610d34565b9050919050565b610d6f81610d54565b8114610d7a57600080fd5b50565b600081359050610d8c81610d66565b92915050565b600080600060608486031215610dab57610daa610ccc565b5b6000610db986828701610d7d565b9350506020610dca86828701610cf2565b9250506040610ddb86828701610cf2565b9150509250925092565b60008060408385031215610dfc57610dfb610ccc565b5b6000610e0a85828601610cf2565b9250506020610e1b85828601610cf2565b9150509250929050565b610e2e81610d54565b82525050565b6000602082019050610e496000830184610e25565b92915050565b610e5881610cd1565b82525050565b6000602082019050610e736000830184610e4f565b92915050565b6000606082019050610e8e6000830186610e25565b610e9b6020830185610e25565b610ea86040830184610e4f565b949350505050565b600060208284031215610ec657610ec5610ccc565b5b6000610ed484828501610d7d565b91505092915050565b600082825260208201905092915050565b7f4d61726b6574706c6163653a204665652063616e6e6f7420657863656564203160008201527f3025000000000000000000000000000000000000000000000000000000000000602082015250565b6000610f4a602283610edd565b9150610f5582610eee565b604082019050919050565b60006020820190508181036000830152610f7981610f3d565b9050919050565b7f4d61726b6574706c6163653a205072696365206d75737420626520677265617460008201527f6572207468616e207a65726f0000000000000000000000000000000000000000602082015250565b6000610fdc602c83610edd565b9150610fe782610f80565b604082019050919050565b6000602082019050818103600083015261100b81610fcf565b9050919050565b7f4e487b7100000000000000000000000000000000000000000000000000000000600052601160045260246000fd5b600061104c82610cd1565b91507fffffffffffffffffffffffffffffffffffffffffffffffffffffffffffffffff820361107e5761107d611012565b5b600182019050919050565b600060408201905061109e6000830185610e25565b6110ab6020830184610e4f565b9392505050565b7f4d61726b6574706c6163653a205469636b6574206e6f74206c6973746564206660008201527f6f722073616c6500000000000000000000000000000000000000000000000000602082015250565b600061110e602783610edd565b9150611119826110b2565b604082019050919050565b6000602082019050818103600083015261113d81611101565b9050919050565b7f4d61726b6574706c6163653a20496e73756666696369656e742045544820736560008201527f6e74000000000000000000000000000000000000000000000000000000000000602082015250565b60006111a0602283610edd565b91506111ab82611144565b604082019050919050565b600060208201905081810360008301526111cf81611193565b9050919050565b60006111e182610cd1565b91506111ec83610cd1565b92508282026111fa81610cd1565b9150828204841483151761121157611210611012565b5b5092915050565b7f4e487b7100000000000000000000000000000000000000000000000000000000600052601260045260246000fd5b600061125282610cd1565b915061125d83610cd1565b92508261126d5761126c611218565b5b828204905092915050565b600061128382610cd1565b915061128e83610cd1565b92508282039050818111156112a6576112a5611012565b5b92915050565b600081905092915050565b50565b60006112c76000836112ac565b91506112d2826112b7565b600082019050919050565b60006112e8826112ba565b9150819050919050565b7f4d61726b6574706c6163653a20466565207472616e73666572206661696c6564600082015250565b6000611328602083610edd565b9150611333826112f2565b602082019050919050565b600060208201905081810360008301526113578161131b565b9050919050565b7f4d61726b6574706c6163653a2053656c6c6572207061796d656e74206661696c60008201527f6564000000000000000000000000000000000000000000000000000000000000602082015250565b60006113ba602283610edd565b91506113c58261135e565b604082019050919050565b600060208201905081810360008301526113e9816113ad565b9050919050565b7f4d61726b6574706c6163653a20596f7520617265206e6f74207468652073656c60008201527f6c65720000000000000000000000000000000000000000000000000000000000602082015250565b600061144c602383610edd565b9150611457826113f0565b604082019050919050565b6000602082019050818103600083015261147b8161143f565b905091905056fea2646970667358221220f1f23de0c3ff2bfd331a7410b76072952276b843c0494e479a0afa888439989864736f6c634300081c0033",
  "linkReferences": {},
  "deployedLinkReferences": {}
}