{
  "_format": "hh-sol-artifact-1",
  "contractName": "TicketNFTFactory",
  "sourceName": "contracts/TicketNFTFactory.sol",
  "abi": [
    {
      "anonymous": false,
      "inputs": [
        {
          "indexed": true,
          "internalType": "address",
          "name": "eventContract",
          "type": "address"
        },
        {
          "indexed": true,
          "internalType": "address",
          "name": "organizer",
          "type": "address"
        }
      ],
      "name": "EventContractCreated",
      "type": "event"
    },
    {
      "inputs": [
        {
          "internalType": "uint16",
          "name": "_maxResaleCount",
          "type": "uint16"
        },
        {
          "internalType": "uint16",
          "name": "_resalePriceCapPct",
          "type": "uint16"
        }
      ],
      "name": "createEventContract",
      "outputs": [],
      "stateMutability": "nonpayable",
      "type": "function"
    },
    {
      "inputs": [
        {
          "internalType": "uint256",
          "name": "",
          "type": "uint256"
        }
      ],
      "name": "deployedEventContracts",
      "outputs": [
        {
          "internalType": "contract TicketNFT",
          "name": "",
          "type": "address"
        }
      ],
      "stateMutability": "view",
      "type": "function"
    }
  ],
  "bytecode": "0x608060405234801561001057600080fd5b50614814806100206000396000f3fe60806040523480156200001157600080fd5b50600436106200003a5760003560e01c806308a13fee146200003f5780638902f93c1462000075575b600080fd5b6200005d600480360381019062000057919062000226565b62000095565b6040516200006c9190620002e3565b60405180910390f35b6200009360048036038101906200008d91906200033f565b620000d5565b005b60008181548110620000a657600080fd5b906000526020600020016000915054906101000a900473ffffffffffffffffffffffffffffffffffffffff1681565b6000338383604051620000e890620001d8565b620000f693929190620003bc565b604051809103906000f08015801562000113573d6000803e3d6000fd5b5090506000819080600181540180825580915050600190039060005260206000200160009091909190916101000a81548173ffffffffffffffffffffffffffffffffffffffff021916908373ffffffffffffffffffffffffffffffffffffffff1602179055503373ffffffffffffffffffffffffffffffffffffffff168173ffffffffffffffffffffffffffffffffffffffff167fc8efa8b5a7b93f12b6d5c818c5aee7334382101389704f4549ce1f12810ca97960405160405180910390a3505050565b6143e580620003fa83390190565b600080fd5b6000819050919050565b6200020081620001eb565b81146200020c57600080fd5b50565b6000813590506200022081620001f5565b92915050565b6000602082840312156200023f576200023e620001e6565b5b60006200024f848285016200020f565b91505092915050565b600073ffffffffffffffffffffffffffffffffffffffff82169050919050565b6000819050919050565b6000620002a36200029d620002978462000258565b62000278565b62000258565b9050919050565b6000620002b78262000282565b9050919050565b6000620002cb82620002aa565b9050919050565b620002dd81620002be565b82525050565b6000602082019050620002fa6000830184620002d2565b92915050565b600061ffff82169050919050565b620003198162000300565b81146200032557600080fd5b50565b60008135905062000339816200030e565b92915050565b60008060408385031215620003595762000358620001e6565b5b6000620003698582860162000328565b92505060206200037c8582860162000328565b9150509250929050565b60006200039382620002aa565b9050919050565b620003a58162000386565b82525050565b620003b68162000300565b82525050565b6000606082019050620003d360008301866200039a565b620003e26020830185620003ab565b620003f16040830184620003ab565b94935050505056fe60c06040523480156200001157600080fd5b50604051620043e5380380620043e583398181016040528101906200003791906200031c565b826040518060400160405280600981526020017f5469636b65744e465400000000000000000000000000000000000000000000008152506040518060400160405280600381526020017f544b5400000000000000000000000000000000000000000000000000000000008152508160009081620000b59190620005f2565b508060019081620000c79190620005f2565b505050600073ffffffffffffffffffffffffffffffffffffffff168173ffffffffffffffffffffffffffffffffffffffff16036200013f5760006040517f1e4fbdf7000000000000000000000000000000000000000000000000000000008152600401620001369190620006ea565b60405180910390fd5b6200015081620001ad60201b60201c565b506101f4600f60146101000a8154816bffffffffffffffffffffffff02191690836bffffffffffffffffffffffff1602179055508161ffff1660808161ffff16815250508061ffff1660a08161ffff168152505050505062000707565b6000600b60009054906101000a900473ffffffffffffffffffffffffffffffffffffffff16905081600b60006101000a81548173ffffffffffffffffffffffffffffffffffffffff021916908373ffffffffffffffffffffffffffffffffffffffff1602179055508173ffffffffffffffffffffffffffffffffffffffff168173ffffffffffffffffffffffffffffffffffffffff167f8be0079c531659141344cd1fd0a4f28419497f9722a3daafe3b4186f6b6457e060405160405180910390a35050565b600080fd5b600073ffffffffffffffffffffffffffffffffffffffff82169050919050565b6000620002a58262000278565b9050919050565b620002b78162000298565b8114620002c357600080fd5b50565b600081519050620002d781620002ac565b92915050565b600061ffff82169050919050565b620002f681620002dd565b81146200030257600080fd5b50565b6000815190506200031681620002eb565b92915050565b60008060006060848603121562000338576200033762000273565b5b60006200034886828701620002c6565b93505060206200035b8682870162000305565b92505060406200036e8682870162000305565b9150509250925092565b600081519050919050565b7f4e487b7100000000000000000000000000000000000000000000000000000000600052604160045260246000fd5b7f4e487b7100000000000000000000000000000000000000000000000000000000600052602260045260246000fd5b60006002820490506001821680620003fa57607f821691505b60208210810362000410576200040f620003b2565b5b50919050565b60008190508160005260206000209050919050565b60006020601f8301049050919050565b600082821b905092915050565b6000600883026200047a7fffffffffffffffffffffffffffffffffffffffffffffffffffffffffffffffff826200043b565b6200048686836200043b565b95508019841693508086168417925050509392505050565b6000819050919050565b6000819050919050565b6000620004d3620004cd620004c7846200049e565b620004a8565b6200049e565b9050919050565b6000819050919050565b620004ef83620004b2565b62000507620004fe82620004da565b84845462000448565b825550505050565b600090565b6200051e6200050f565b6200052b818484620004e4565b505050565b5b8181101562000553576200054760008262000514565b60018101905062000531565b5050565b601f821115620005a2576200056c8162000416565b62000577846200042b565b8101602085101562000587578190505b6200059f62000596856200042b565b83018262000530565b50505b505050565b600082821c905092915050565b6000620005c760001984600802620005a7565b1980831691505092915050565b6000620005e28383620005b4565b9150826002028217905092915050565b620005fd8262000378565b67ffffffffffffffff81111562000619576200061862000383565b5b620006258254620003e1565b6200063282828562000557565b600060209050601f8311600181146200066a576000841562000655578287015190505b620006618582620005d4565b865550620006d1565b601f1984166200067a8662000416565b60005b82811015620006a4578489015182556001820191506020850194506020810190506200067d565b86831015620006c45784890151620006c0601f891682620005b4565b8355505b6001600288020188555050505b505050505050565b620006e48162000298565b82525050565b6000602082019050620007016000830184620006d9565b92915050565b60805160a051613cb86200072d6000396000610cdb01526000610b6c0152613cb86000f3fe6080604052600436106101ee5760003560e01c80636352211e1161010d578063a476b73d116100a0578063c87b56dd1161006f578063c87b56dd14610703578063daa17f4914610740578063e985e9c51461076b578063f2fde38b146107a8578063f881917c146107d1576101ee565b8063a476b73d1461066c578063b47cc55614610695578063b88d4fde146106be578063ba7aef43146106e7576101ee565b80638da5cb5b116100dc5780638da5cb5b146105c4578063942f357e146105ef57806395d89b4114610618578063a22cb46514610643576101ee565b80636352211e1461050857806370a0823114610545578063715018a61461058257806375794a3c14610599576101ee565b80632f745c59116101855780633ccfd60b116101545780633ccfd60b1461046057806342842e0e1461047757806348ad538e146104a05780634f6ccce7146104cb576101ee565b80632f745c591461039157806331faafb4146103ce57806335332e33146103f7578063394803fd14610422576101ee565b8063095ea7b3116101c1578063095ea7b3146102d657806318160ddd146102ff57806323b872dd1461032a5780632a55205a14610353576101ee565b806301ffc9a7146101f3578063033fab351461023057806306fdde031461026e578063081812fc14610299575b600080fd5b3480156101ff57600080fd5b5061021a60048036038101906102159190612be8565b6107fc565b6040516102279190612c30565b60405180910390f35b34801561023c57600080fd5b5061025760048036038101906102529190612c81565b61080e565b604051610265929190612cbd565b60405180910390f35b34801561027a57600080fd5b5061028361085b565b6040516102909190612d76565b60405180910390f35b3480156102a557600080fd5b506102c060048036038101906102bb9190612c81565b6108ed565b6040516102cd9190612dd9565b60405180910390f35b3480156102e257600080fd5b506102fd60048036038101906102f89190612e20565b610909565b005b34801561030b57600080fd5b5061031461091f565b6040516103219190612e60565b60405180910390f35b34801561033657600080fd5b50610351600480360381019061034c9190612e7b565b61092c565b005b34801561035f57600080fd5b5061037a60048036038101906103759190612ece565b610a2e565b604051610388929190612f0e565b60405180910390f35b34801561039d57600080fd5b506103b860048036038101906103b39190612e20565b610a85565b6040516103c59190612e60565b60405180910390f35b3480156103da57600080fd5b506103f560048036038101906103f09190612f7b565b610b2e565b005b34801561040357600080fd5b5061040c610b6a565b6040516104199190612fc5565b60405180910390f35b34801561042e57600080fd5b5061044960048036038101906104449190612c81565b610b8e565b604051610457929190612cbd565b60405180910390f35b34801561046c57600080fd5b50610475610bb2565b005b34801561048357600080fd5b5061049e60048036038101906104999190612e7b565b610cb9565b005b3480156104ac57600080fd5b506104b5610cd9565b6040516104c29190612fc5565b60405180910390f35b3480156104d757600080fd5b506104f260048036038101906104ed9190612c81565b610cfd565b6040516104ff9190612e60565b60405180910390f35b34801561051457600080fd5b5061052f600480360381019061052a9190612c81565b610d73565b60405161053c9190612dd9565b60405180910390f35b34801561055157600080fd5b5061056c60048036038101906105679190612fe0565b610d85565b6040516105799190612e60565b60405180910390f35b34801561058e57600080fd5b50610597610e3f565b005b3480156105a557600080fd5b506105ae610e53565b6040516105bb9190612e60565b60405180910390f35b3480156105d057600080fd5b506105d9610e5d565b6040516105e69190612dd9565b60405180910390f35b3480156105fb57600080fd5b5061061660048036038101906106119190612ece565b610e87565b005b34801561062457600080fd5b5061062d610f56565b60405161063a9190612d76565b60405180910390f35b34801561064f57600080fd5b5061066a60048036038101906106659190613039565b610fe8565b005b34801561067857600080fd5b50610693600480360381019061068e9190612c81565b610ffe565b005b3480156106a157600080fd5b506106bc60048036038101906106b79190612fe0565b611038565b005b3480156106ca57600080fd5b506106e560048036038101906106e091906131ae565b611084565b005b61070160048036038101906106fc91906132d2565b6110a9565b005b34801561070f57600080fd5b5061072a60048036038101906107259190612c81565b611161565b6040516107379190612d76565b60405180910390f35b34801561074c57600080fd5b50610755611173565b6040516107629190612dd9565b60405180910390f35b34801561077757600080fd5b50610792600480360381019061078d9190613341565b611199565b60405161079f9190612c30565b60405180910390f35b3480156107b457600080fd5b506107cf60048036038101906107ca9190612fe0565b61122d565b005b3480156107dd57600080fd5b506107e66112b3565b6040516107f39190613390565b60405180910390f35b6000610807826112d1565b9050919050565b600080600060106000858152602001908152602001600020604051806040016040529081600082015481526020016001820154815250509050806000015181602001519250925050915091565b60606000805461086a906133da565b80601f0160208091040260200160405190810160405280929190818152602001828054610896906133da565b80156108e35780601f106108b8576101008083540402835291602001916108e3565b820191906000526020600020905b8154815290600101906020018083116108c657829003601f168201915b5050505050905090565b60006108f88261134b565b50610902826113d3565b9050919050565b61091b8282610916611410565b611418565b5050565b6000600880549050905090565b600073ffffffffffffffffffffffffffffffffffffffff168273ffffffffffffffffffffffffffffffffffffffff160361099e5760006040517f64a0ae920000000000000000000000000000000000000000000000000000000081526004016109959190612dd9565b60405180910390fd5b60006109b283836109ad611410565b61142a565b90508373ffffffffffffffffffffffffffffffffffffffff168173ffffffffffffffffffffffffffffffffffffffff1614610a28578382826040517f64283d7b000000000000000000000000000000000000000000000000000000008152600401610a1f9392919061340b565b60405180910390fd5b50505050565b600080610a39610e5d565b612710600f60149054906101000a90046bffffffffffffffffffffffff166bffffffffffffffffffffffff1685610a709190613471565b610a7a91906134e2565b915091509250929050565b6000610a9083610d85565b8210610ad55782826040517fa57d13dc000000000000000000000000000000000000000000000000000000008152600401610acc929190612f0e565b60405180910390fd5b600660008473ffffffffffffffffffffffffffffffffffffffff1673ffffffffffffffffffffffffffffffffffffffff168152602001908152602001600020600083815260200190815260200160002054905092915050565b610b366115c9565b80600f60146101000a8154816bffffffffffffffffffffffff02191690836bffffffffffffffffffffffff16021790555050565b7f000000000000000000000000000000000000000000000000000000000000000081565b60106020528060005260406000206000915090508060000154908060010154905082565b610bba6115c9565b600047905060008111610c02576040517f08c379a0000000000000000000000000000000000000000000000000000000008152600401610bf99061355f565b60405180910390fd5b6000610c0c610e5d565b73ffffffffffffffffffffffffffffffffffffffff1682604051610c2f906135b0565b60006040518083038185875af1925050503d8060008114610c6c576040519150601f19603f3d011682016040523d82523d6000602084013e610c71565b606091505b5050905080610cb5576040517f08c379a0000000000000000000000000000000000000000000000000000000008152600401610cac90613611565b60405180910390fd5b5050565b610cd483838360405180602001604052806000815250611084565b505050565b7f000000000000000000000000000000000000000000000000000000000000000081565b6000610d0761091f565b8210610d4d576000826040517fa57d13dc000000000000000000000000000000000000000000000000000000008152600401610d44929190612f0e565b60405180910390fd5b60088281548110610d6157610d60613631565b5b90600052602060002001549050919050565b6000610d7e8261134b565b9050919050565b60008073ffffffffffffffffffffffffffffffffffffffff168273ffffffffffffffffffffffffffffffffffffffff1603610df85760006040517f89c62b64000000000000000000000000000000000000000000000000000000008152600401610def9190612dd9565b60405180910390fd5b600360008373ffffffffffffffffffffffffffffffffffffffff1673ffffffffffffffffffffffffffffffffffffffff168152602001908152602001600020549050919050565b610e476115c9565b610e516000611650565b565b6000600e54905090565b6000600b60009054906101000a900473ffffffffffffffffffffffffffffffffffffffff16905090565b600f60009054906101000a900473ffffffffffffffffffffffffffffffffffffffff1673ffffffffffffffffffffffffffffffffffffffff163373ffffffffffffffffffffffffffffffffffffffff1614610f17576040517f08c379a0000000000000000000000000000000000000000000000000000000008152600401610f0e906136d2565b60405180910390fd5b6000601060008481526020019081526020016000209050818160000181905550806001016000815480929190610f4c906136f2565b9190505550505050565b606060018054610f65906133da565b80601f0160208091040260200160405190810160405280929190818152602001828054610f91906133da565b8015610fde5780601f10610fb357610100808354040283529160200191610fde565b820191906000526020600020905b815481529060010190602001808311610fc157829003601f168201915b5050505050905090565b610ffa610ff3611410565b8383611716565b5050565b6110066115c9565b61100f81611885565b601060008281526020019081526020016000206000808201600090556001820160009055505050565b6110406115c9565b80600f60006101000a81548173ffffffffffffffffffffffffffffffffffffffff021916908373ffffffffffffffffffffffffffffffffffffffff16021790555050565b61108f84848461092c565b6110a361109a611410565b8585858561190b565b50505050565b803410156110ec576040517f08c379a00000000000000000000000000000000000000000000000000000000081526004016110e3906137ac565b60405180910390fd5b6000600e6000815480929190611101906136f2565b9190505590506111118482611abc565b61111b8184611ada565b6040518060400160405280838152602001600081525060106000838152602001908152602001600020600082015181600001556020820151816001015590505050505050565b606061116c82611b36565b9050919050565b600f60009054906101000a900473ffffffffffffffffffffffffffffffffffffffff1681565b6000600560008473ffffffffffffffffffffffffffffffffffffffff1673ffffffffffffffffffffffffffffffffffffffff16815260200190815260200160002060008373ffffffffffffffffffffffffffffffffffffffff1673ffffffffffffffffffffffffffffffffffffffff16815260200190815260200160002060009054906101000a900460ff16905092915050565b6112356115c9565b600073ffffffffffffffffffffffffffffffffffffffff168173ffffffffffffffffffffffffffffffffffffffff16036112a75760006040517f1e4fbdf700000000000000000000000000000000000000000000000000000000815260040161129e9190612dd9565b60405180910390fd5b6112b081611650565b50565b600f60149054906101000a90046bffffffffffffffffffffffff1681565b60007f2a55205a000000000000000000000000000000000000000000000000000000007bffffffffffffffffffffffffffffffffffffffffffffffffffffffff1916827bffffffffffffffffffffffffffffffffffffffffffffffffffffffff19161480611344575061134382611c49565b5b9050919050565b60008061135783611caa565b9050600073ffffffffffffffffffffffffffffffffffffffff168173ffffffffffffffffffffffffffffffffffffffff16036113ca57826040517f7e2732890000000000000000000000000000000000000000000000000000000081526004016113c19190612e60565b60405180910390fd5b80915050919050565b60006004600083815260200190815260200160002060009054906101000a900473ffffffffffffffffffffffffffffffffffffffff169050919050565b600033905090565b6114258383836001611ce7565b505050565b60008061143684611caa565b9050600073ffffffffffffffffffffffffffffffffffffffff168173ffffffffffffffffffffffffffffffffffffffff160361147f57611477858585611eac565b9150506115c2565b600073ffffffffffffffffffffffffffffffffffffffff168573ffffffffffffffffffffffffffffffffffffffff16036114c6576114be858585611eac565b9150506115c2565b600f60009054906101000a900473ffffffffffffffffffffffffffffffffffffffff1673ffffffffffffffffffffffffffffffffffffffff168573ffffffffffffffffffffffffffffffffffffffff16148061156f5750600f60009054906101000a900473ffffffffffffffffffffffffffffffffffffffff1673ffffffffffffffffffffffffffffffffffffffff168173ffffffffffffffffffffffffffffffffffffffff16145b156115875761157f858585611eac565b9150506115c2565b6040517f08c379a00000000000000000000000000000000000000000000000000000000081526004016115b99061383e565b60405180910390fd5b9392505050565b6115d1611410565b73ffffffffffffffffffffffffffffffffffffffff166115ef610e5d565b73ffffffffffffffffffffffffffffffffffffffff161461164e57611612611410565b6040517f118cdaa70000000000000000000000000000000000000000000000000000000081526004016116459190612dd9565b60405180910390fd5b565b6000600b60009054906101000a900473ffffffffffffffffffffffffffffffffffffffff16905081600b60006101000a81548173ffffffffffffffffffffffffffffffffffffffff021916908373ffffffffffffffffffffffffffffffffffffffff1602179055508173ffffffffffffffffffffffffffffffffffffffff168173ffffffffffffffffffffffffffffffffffffffff167f8be0079c531659141344cd1fd0a4f28419497f9722a3daafe3b4186f6b6457e060405160405180910390a35050565b600073ffffffffffffffffffffffffffffffffffffffff168273ffffffffffffffffffffffffffffffffffffffff160361178757816040517f5b08ba1800000000000000000000000000000000000000000000000000000000815260040161177e9190612dd9565b60405180910390fd5b80600560008573ffffffffffffffffffffffffffffffffffffffff1673ffffffffffffffffffffffffffffffffffffffff16815260200190815260200160002060008473ffffffffffffffffffffffffffffffffffffffff1673ffffffffffffffffffffffffffffffffffffffff16815260200190815260200160002060006101000a81548160ff0219169083151502179055508173ffffffffffffffffffffffffffffffffffffffff168373ffffffffffffffffffffffffffffffffffffffff167f17307eab39ab6107e8899845ad3d59bd9653f200f220920489ca2b5937696c31836040516118789190612c30565b60405180910390a3505050565b6000611894600083600061142a565b9050600073ffffffffffffffffffffffffffffffffffffffff168173ffffffffffffffffffffffffffffffffffffffff160361190757816040517f7e2732890000000000000000000000000000000000000000000000000000000081526004016118fe9190612e60565b60405180910390fd5b5050565b60008373ffffffffffffffffffffffffffffffffffffffff163b1115611ab5578273ffffffffffffffffffffffffffffffffffffffff1663150b7a02868685856040518563ffffffff1660e01b815260040161196a94939291906138b3565b6020604051808303816000875af19250505080156119a657506040513d601f19601f820116820180604052508101906119a39190613914565b60015b611a2a573d80600081146119d6576040519150601f19603f3d011682016040523d82523d6000602084013e6119db565b606091505b506000815103611a2257836040517f64a0ae92000000000000000000000000000000000000000000000000000000008152600401611a199190612dd9565b60405180910390fd5b805160208201fd5b63150b7a0260e01b7bffffffffffffffffffffffffffffffffffffffffffffffffffffffff1916817bffffffffffffffffffffffffffffffffffffffffffffffffffffffff191614611ab357836040517f64a0ae92000000000000000000000000000000000000000000000000000000008152600401611aaa9190612dd9565b60405180910390fd5b505b5050505050565b611ad6828260405180602001604052806000815250611fc9565b5050565b80600a60008481526020019081526020016000209081611afa9190613aed565b507ff8e1a15aba9398e019f0b49df1a4fde98ee17ae345cb5f6b5e2c27f5033e8ce782604051611b2a9190612e60565b60405180910390a15050565b6060611b418261134b565b506000600a60008481526020019081526020016000208054611b62906133da565b80601f0160208091040260200160405190810160405280929190818152602001828054611b8e906133da565b8015611bdb5780601f10611bb057610100808354040283529160200191611bdb565b820191906000526020600020905b815481529060010190602001808311611bbe57829003601f168201915b505050505090506000611bec611fed565b90506000815103611c01578192505050611c44565b600082511115611c36578082604051602001611c1e929190613bfb565b60405160208183030381529060405292505050611c44565b611c3f84612004565b925050505b919050565b6000634906490660e01b7bffffffffffffffffffffffffffffffffffffffffffffffffffffffff1916827bffffffffffffffffffffffffffffffffffffffffffffffffffffffff19161480611ca35750611ca28261206d565b5b9050919050565b60006002600083815260200190815260200160002060009054906101000a900473ffffffffffffffffffffffffffffffffffffffff169050919050565b8080611d205750600073ffffffffffffffffffffffffffffffffffffffff168273ffffffffffffffffffffffffffffffffffffffff1614155b15611e54576000611d308461134b565b9050600073ffffffffffffffffffffffffffffffffffffffff168373ffffffffffffffffffffffffffffffffffffffff1614158015611d9b57508273ffffffffffffffffffffffffffffffffffffffff168173ffffffffffffffffffffffffffffffffffffffff1614155b8015611dae5750611dac8184611199565b155b15611df057826040517fa9fbf51f000000000000000000000000000000000000000000000000000000008152600401611de79190612dd9565b60405180910390fd5b8115611e5257838573ffffffffffffffffffffffffffffffffffffffff168273ffffffffffffffffffffffffffffffffffffffff167f8c5be1e5ebec7d5bd14f71427d1e84f3dd0314c0f7b2291e5b200ac8c7c3b92560405160405180910390a45b505b836004600085815260200190815260200160002060006101000a81548173ffffffffffffffffffffffffffffffffffffffff021916908373ffffffffffffffffffffffffffffffffffffffff16021790555050505050565b600080611eba8585856120e7565b9050600073ffffffffffffffffffffffffffffffffffffffff168173ffffffffffffffffffffffffffffffffffffffff1603611efe57611ef984612301565b611f3d565b8473ffffffffffffffffffffffffffffffffffffffff168173ffffffffffffffffffffffffffffffffffffffff1614611f3c57611f3b818561234a565b5b5b600073ffffffffffffffffffffffffffffffffffffffff168573ffffffffffffffffffffffffffffffffffffffff1603611f7f57611f7a84612435565b611fbe565b8473ffffffffffffffffffffffffffffffffffffffff168173ffffffffffffffffffffffffffffffffffffffff1614611fbd57611fbc8585612506565b5b5b809150509392505050565b611fd38383612591565b611fe8611fde611410565b600085858561190b565b505050565b606060405180602001604052806000815250905090565b606061200f8261134b565b50600061201a611fed565b9050600081511161203a5760405180602001604052806000815250612065565b806120448461268a565b604051602001612055929190613bfb565b6040516020818303038152906040525b915050919050565b60007f780e9d63000000000000000000000000000000000000000000000000000000007bffffffffffffffffffffffffffffffffffffffffffffffffffffffff1916827bffffffffffffffffffffffffffffffffffffffffffffffffffffffff191614806120e057506120df82612758565b5b9050919050565b6000806120f384611caa565b9050600073ffffffffffffffffffffffffffffffffffffffff168373ffffffffffffffffffffffffffffffffffffffff16146121355761213481848661283a565b5b600073ffffffffffffffffffffffffffffffffffffffff168173ffffffffffffffffffffffffffffffffffffffff16146121c657612177600085600080611ce7565b6001600360008373ffffffffffffffffffffffffffffffffffffffff1673ffffffffffffffffffffffffffffffffffffffff168152602001908152602001600020600082825403925050819055505b600073ffffffffffffffffffffffffffffffffffffffff168573ffffffffffffffffffffffffffffffffffffffff1614612249576001600360008773ffffffffffffffffffffffffffffffffffffffff1673ffffffffffffffffffffffffffffffffffffffff168152602001908152602001600020600082825401925050819055505b846002600086815260200190815260200160002060006101000a81548173ffffffffffffffffffffffffffffffffffffffff021916908373ffffffffffffffffffffffffffffffffffffffff160217905550838573ffffffffffffffffffffffffffffffffffffffff168273ffffffffffffffffffffffffffffffffffffffff167fddf252ad1be2c89b69c2b068fc378daa952ba7f163c4a11628f55a4df523b3ef60405160405180910390a4809150509392505050565b6008805490506009600083815260200190815260200160002081905550600881908060018154018082558091505060019003906000526020600020016000909190919091505550565b600061235583610d85565b90506000600760008481526020019081526020016000205490506000600660008673ffffffffffffffffffffffffffffffffffffffff1673ffffffffffffffffffffffffffffffffffffffff16815260200190815260200160002090508282146124015760008160008581526020019081526020016000205490508082600085815260200190815260200160002081905550826007600083815260200190815260200160002081905550505b6007600085815260200190815260200160002060009055806000848152602001908152602001600020600090555050505050565b600060016008805490506124499190613c1f565b905060006009600084815260200190815260200160002054905060006008838154811061247957612478613631565b5b90600052602060002001549050806008838154811061249b5761249a613631565b5b9060005260206000200181905550816009600083815260200190815260200160002081905550600960008581526020019081526020016000206000905560088054806124ea576124e9613c53565b5b6001900381819060005260206000200160009055905550505050565b6000600161251384610d85565b61251d9190613c1f565b905081600660008573ffffffffffffffffffffffffffffffffffffffff1673ffffffffffffffffffffffffffffffffffffffff168152602001908152602001600020600083815260200190815260200160002081905550806007600084815260200190815260200160002081905550505050565b600073ffffffffffffffffffffffffffffffffffffffff168273ffffffffffffffffffffffffffffffffffffffff16036126035760006040517f64a0ae920000000000000000000000000000000000000000000000000000000081526004016125fa9190612dd9565b60405180910390fd5b60006126118383600061142a565b9050600073ffffffffffffffffffffffffffffffffffffffff168173ffffffffffffffffffffffffffffffffffffffff16146126855760006040517f73c6ac6e00000000000000000000000000000000000000000000000000000000815260040161267c9190612dd9565b60405180910390fd5b505050565b606060006001612699846128fe565b01905060008167ffffffffffffffff8111156126b8576126b7613083565b5b6040519080825280601f01601f1916602001820160405280156126ea5781602001600182028036833780820191505090505b509050600082602083010190505b60011561274d578080600190039150507f3031323334353637383961626364656600000000000000000000000000000000600a86061a8153600a8581612741576127406134b3565b5b049450600085036126f8575b819350505050919050565b60007f80ac58cd000000000000000000000000000000000000000000000000000000007bffffffffffffffffffffffffffffffffffffffffffffffffffffffff1916827bffffffffffffffffffffffffffffffffffffffffffffffffffffffff1916148061282357507f5b5e139f000000000000000000000000000000000000000000000000000000007bffffffffffffffffffffffffffffffffffffffffffffffffffffffff1916827bffffffffffffffffffffffffffffffffffffffffffffffffffffffff1916145b80612833575061283282612a51565b5b9050919050565b612845838383612abb565b6128f957600073ffffffffffffffffffffffffffffffffffffffff168373ffffffffffffffffffffffffffffffffffffffff16036128ba57806040517f7e2732890000000000000000000000000000000000000000000000000000000081526004016128b19190612e60565b60405180910390fd5b81816040517f177e802f0000000000000000000000000000000000000000000000000000000081526004016128f0929190612f0e565b60405180910390fd5b505050565b600080600090507a184f03e93ff9f4daa797ed6e38ed64bf6a1f010000000000000000831061295c577a184f03e93ff9f4daa797ed6e38ed64bf6a1f0100000000000000008381612952576129516134b3565b5b0492506040810190505b6d04ee2d6d415b85acef81000000008310612999576d04ee2d6d415b85acef8100000000838161298f5761298e6134b3565b5b0492506020810190505b662386f26fc1000083106129c857662386f26fc1000083816129be576129bd6134b3565b5b0492506010810190505b6305f5e10083106129f1576305f5e10083816129e7576129e66134b3565b5b0492506008810190505b6127108310612a16576127108381612a0c57612a0b6134b3565b5b0492506004810190505b60648310612a395760648381612a2f57612a2e6134b3565b5b0492506002810190505b600a8310612a48576001810190505b80915050919050565b60007f01ffc9a7000000000000000000000000000000000000000000000000000000007bffffffffffffffffffffffffffffffffffffffffffffffffffffffff1916827bffffffffffffffffffffffffffffffffffffffffffffffffffffffff1916149050919050565b60008073ffffffffffffffffffffffffffffffffffffffff168373ffffffffffffffffffffffffffffffffffffffff1614158015612b7357508273ffffffffffffffffffffffffffffffffffffffff168473ffffffffffffffffffffffffffffffffffffffff161480612b345750612b338484611199565b5b80612b7257508273ffffffffffffffffffffffffffffffffffffffff16612b5a836113d3565b73ffffffffffffffffffffffffffffffffffffffff16145b5b90509392505050565b6000604051905090565b600080fd5b600080fd5b60007fffffffff0000000000000000000000000000000000000000000000000000000082169050919050565b612bc581612b90565b8114612bd057600080fd5b50565b600081359050612be281612bbc565b92915050565b600060208284031215612bfe57612bfd612b86565b5b6000612c0c84828501612bd3565b91505092915050565b60008115159050919050565b612c2a81612c15565b82525050565b6000602082019050612c456000830184612c21565b92915050565b6000819050919050565b612c5e81612c4b565b8114612c6957600080fd5b50565b600081359050612c7b81612c55565b92915050565b600060208284031215612c9757612c96612b86565b5b6000612ca584828501612c6c565b91505092915050565b612cb781612c4b565b82525050565b6000604082019050612cd26000830185612cae565b612cdf6020830184612cae565b9392505050565b600081519050919050565b600082825260208201905092915050565b60005b83811015612d20578082015181840152602081019050612d05565b60008484015250505050565b6000601f19601f8301169050919050565b6000612d4882612ce6565b612d528185612cf1565b9350612d62818560208601612d02565b612d6b81612d2c565b840191505092915050565b60006020820190508181036000830152612d908184612d3d565b905092915050565b600073ffffffffffffffffffffffffffffffffffffffff82169050919050565b6000612dc382612d98565b9050919050565b612dd381612db8565b82525050565b6000602082019050612dee6000830184612dca565b92915050565b612dfd81612db8565b8114612e0857600080fd5b50565b600081359050612e1a81612df4565b92915050565b60008060408385031215612e3757612e36612b86565b5b6000612e4585828601612e0b565b9250506020612e5685828601612c6c565b9150509250929050565b6000602082019050612e756000830184612cae565b92915050565b600080600060608486031215612e9457612e93612b86565b5b6000612ea286828701612e0b565b9350506020612eb386828701612e0b565b9250506040612ec486828701612c6c565b9150509250925092565b60008060408385031215612ee557612ee4612b86565b5b6000612ef385828601612c6c565b9250506020612f0485828601612c6c565b9150509250929050565b6000604082019050612f236000830185612dca565b612f306020830184612cae565b9392505050565b60006bffffffffffffffffffffffff82169050919050565b612f5881612f37565b8114612f6357600080fd5b50565b600081359050612f7581612f4f565b92915050565b600060208284031215612f9157612f90612b86565b5b6000612f9f84828501612f66565b91505092915050565b600061ffff82169050919050565b612fbf81612fa8565b82525050565b6000602082019050612fda6000830184612fb6565b92915050565b600060208284031215612ff657612ff5612b86565b5b600061300484828501612e0b565b91505092915050565b61301681612c15565b811461302157600080fd5b50565b6000813590506130338161300d565b92915050565b600080604083850312156130505761304f612b86565b5b600061305e85828601612e0b565b925050602061306f85828601613024565b9150509250929050565b600080fd5b600080fd5b7f4e487b7100000000000000000000000000000000000000000000000000000000600052604160045260246000fd5b6130bb82612d2c565b810181811067ffffffffffffffff821117156130da576130d9613083565b5b80604052505050565b60006130ed612b7c565b90506130f982826130b2565b919050565b600067ffffffffffffffff82111561311957613118613083565b5b61312282612d2c565b9050602081019050919050565b82818337600083830152505050565b600061315161314c846130fe565b6130e3565b90508281526020810184848401111561316d5761316c61307e565b5b61317884828561312f565b509392505050565b600082601f83011261319557613194613079565b5b81356131a584826020860161313e565b91505092915050565b600080600080608085870312156131c8576131c7612b86565b5b60006131d687828801612e0b565b94505060206131e787828801612e0b565b93505060406131f887828801612c6c565b925050606085013567ffffffffffffffff81111561321957613218612b8b565b5b61322587828801613180565b91505092959194509250565b600067ffffffffffffffff82111561324c5761324b613083565b5b61325582612d2c565b9050602081019050919050565b600061327561327084613231565b6130e3565b9050828152602081018484840111156132915761329061307e565b5b61329c84828561312f565b509392505050565b600082601f8301126132b9576132b8613079565b5b81356132c9848260208601613262565b91505092915050565b6000806000606084860312156132eb576132ea612b86565b5b60006132f986828701612e0b565b935050602084013567ffffffffffffffff81111561331a57613319612b8b565b5b613326868287016132a4565b925050604061333786828701612c6c565b9150509250925092565b6000806040838503121561335857613357612b86565b5b600061336685828601612e0b565b925050602061337785828601612e0b565b9150509250929050565b61338a81612f37565b82525050565b60006020820190506133a56000830184613381565b92915050565b7f4e487b7100000000000000000000000000000000000000000000000000000000600052602260045260246000fd5b600060028204905060018216806133f257607f821691505b602082108103613405576134046133ab565b5b50919050565b60006060820190506134206000830186612dca565b61342d6020830185612cae565b61343a6040830184612dca565b949350505050565b7f4e487b7100000000000000000000000000000000000000000000000000000000600052601160045260246000fd5b600061347c82612c4b565b915061348783612c4b565b925082820261349581612c4b565b915082820484148315176134ac576134ab613442565b5b5092915050565b7f4e487b7100000000000000000000000000000000000000000000000000000000600052601260045260246000fd5b60006134ed82612c4b565b91506134f883612c4b565b925082613508576135076134b3565b5b828204905092915050565b7f4e6f2066756e647320746f2077697468647261772e0000000000000000000000600082015250565b6000613549601583612cf1565b915061355482613513565b602082019050919050565b600060208201905081810360008301526135788161353c565b9050919050565b600081905092915050565b50565b600061359a60008361357f565b91506135a58261358a565b600082019050919050565b60006135bb8261358d565b9150819050919050565b7f5769746864726177616c206661696c65642e0000000000000000000000000000600082015250565b60006135fb601283612cf1565b9150613606826135c5565b602082019050919050565b6000602082019050818103600083015261362a816135ee565b9050919050565b7f4e487b7100000000000000000000000000000000000000000000000000000000600052603260045260246000fd5b7f5469636b65744e46543a2043616c6c6572206973206e6f74207468652061707060008201527f726f766564206d61726b6574706c616365000000000000000000000000000000602082015250565b60006136bc603183612cf1565b91506136c782613660565b604082019050919050565b600060208201905081810360008301526136eb816136af565b9050919050565b60006136fd82612c4b565b91507fffffffffffffffffffffffffffffffffffffffffffffffffffffffffffffffff820361372f5761372e613442565b5b600182019050919050565b7f5469636b65744e46543a204d7573742073656e6420636f72726563742070726960008201527f636520746f206d696e7400000000000000000000000000000000000000000000602082015250565b6000613796602a83612cf1565b91506137a18261373a565b604082019050919050565b600060208201905081810360008301526137c581613789565b9050919050565b7f5469636b65744e46543a205472616e736665727320617265206f6e6c7920616c60008201527f6c6f7765642076696120746865206d61726b6574706c61636500000000000000602082015250565b6000613828603983612cf1565b9150613833826137cc565b604082019050919050565b600060208201905081810360008301526138578161381b565b9050919050565b600081519050919050565b600082825260208201905092915050565b60006138858261385e565b61388f8185613869565b935061389f818560208601612d02565b6138a881612d2c565b840191505092915050565b60006080820190506138c86000830187612dca565b6138d56020830186612dca565b6138e26040830185612cae565b81810360608301526138f4818461387a565b905095945050505050565b60008151905061390e81612bbc565b92915050565b60006020828403121561392a57613929612b86565b5b6000613938848285016138ff565b91505092915050565b60008190508160005260206000209050919050565b60006020601f8301049050919050565b600082821b905092915050565b6000600883026139a37fffffffffffffffffffffffffffffffffffffffffffffffffffffffffffffffff82613966565b6139ad8683613966565b95508019841693508086168417925050509392505050565b6000819050919050565b60006139ea6139e56139e084612c4b565b6139c5565b612c4b565b9050919050565b6000819050919050565b613a04836139cf565b613a18613a10826139f1565b848454613973565b825550505050565b600090565b613a2d613a20565b613a388184846139fb565b505050565b5b81811015613a5c57613a51600082613a25565b600181019050613a3e565b5050565b601f821115613aa157613a7281613941565b613a7b84613956565b81016020851015613a8a578190505b613a9e613a9685613956565b830182613a3d565b50505b505050565b600082821c905092915050565b6000613ac460001984600802613aa6565b1980831691505092915050565b6000613add8383613ab3565b9150826002028217905092915050565b613af682612ce6565b67ffffffffffffffff811115613b0f57613b0e613083565b5b613b1982546133da565b613b24828285613a60565b600060209050601f831160018114613b575760008415613b45578287015190505b613b4f8582613ad1565b865550613bb7565b601f198416613b6586613941565b60005b82811015613b8d57848901518255600182019150602085019450602081019050613b68565b86831015613baa5784890151613ba6601f891682613ab3565b8355505b6001600288020188555050505b505050505050565b600081905092915050565b6000613bd582612ce6565b613bdf8185613bbf565b9350613bef818560208601612d02565b80840191505092915050565b6000613c078285613bca565b9150613c138284613bca565b91508190509392505050565b6000613c2a82612c4b565b9150613c3583612c4b565b9250828203905081811115613c4d57613c4c613442565b5b92915050565b7f4e487b7100000000000000000000000000000000000000000000000000000000600052603160045260246000fdfea2646970667358221220876b313957db8ed53c5df8da7dac2c868ba640a9eb8d4aec868e4fe00c856f3364736f6c63430008140033a2646970667358221220adb46287d28444b6d7cb65908359dcfd95d965b4651985793538f697af77fff364736f6c63430008140033",
  "linkReferences": {},
  "deployedLinkReferences": {}
}