{
  "_format": "hh-sol-artifact-1",
  "contractName": "TicketNFTFactory",
  "sourceName": "contracts/TicketNFTFactory.sol",
  "abi": [
    {
      "anonymous": false,
      "inputs": [
        {
          "indexed": true,
          "internalType": "address",
          "name": "eventContract",
          "type": "address"
        },
        {
          "indexed": true,
          "internalType": "address",
          "name": "organizer",
          "type": "address"
        }
      ],
      "name": "EventContractCreated",
      "type": "event"
    },
    {
      "inputs": [],
      "name": "createEventContract",
      "outputs": [],
      "stateMutability": "nonpayable",
      "type": "function"
    },
    {
      "inputs": [
        {
          "internalType": "uint256",
          "name": "",
          "type": "uint256"
        }
      ],
      "name": "deployedEventContracts",
      "outputs": [
        {
          "internalType": "contract TicketNFT",
          "name": "",
          "type": "address"
        }
      ],
      "stateMutability": "view",
      "type": "function"
    }
  ],
  "bytecode": "0x608060405234801561001057600080fd5b5061456f806100206000396000f3fe60806040523480156200001157600080fd5b50600436106200003a5760003560e01c806308a13fee146200003f57806398d094fa1462000075575b600080fd5b6200005d60048036038101906200005791906200020c565b62000081565b6040516200006c9190620002c9565b60405180910390f35b6200007f620000c1565b005b600081815481106200009257600080fd5b906000526020600020016000915054906101000a900473ffffffffffffffffffffffffffffffffffffffff1681565b600033604051620000d290620001be565b620000de91906200030b565b604051809103906000f080158015620000fb573d6000803e3d6000fd5b5090506000819080600181540180825580915050600190039060005260206000200160009091909190916101000a81548173ffffffffffffffffffffffffffffffffffffffff021916908373ffffffffffffffffffffffffffffffffffffffff1602179055503373ffffffffffffffffffffffffffffffffffffffff168173ffffffffffffffffffffffffffffffffffffffff167fc8efa8b5a7b93f12b6d5c818c5aee7334382101389704f4549ce1f12810ca97960405160405180910390a350565b614211806200032983390190565b600080fd5b6000819050919050565b620001e681620001d1565b8114620001f257600080fd5b50565b6000813590506200020681620001db565b92915050565b600060208284031215620002255762000224620001cc565b5b60006200023584828501620001f5565b91505092915050565b600073ffffffffffffffffffffffffffffffffffffffff82169050919050565b6000819050919050565b600062000289620002836200027d846200023e565b6200025e565b6200023e565b9050919050565b60006200029d8262000268565b9050919050565b6000620002b18262000290565b9050919050565b620002c381620002a4565b82525050565b6000602082019050620002e06000830184620002b8565b92915050565b6000620002f38262000290565b9050919050565b6200030581620002e6565b82525050565b6000602082019050620003226000830184620002fa565b9291505056fe60806040523480156200001157600080fd5b5060405162004211380380620042118339818101604052810190620000379190620002bb565b806040518060400160405280600981526020017f5469636b65744e465400000000000000000000000000000000000000000000008152506040518060400160405280600381526020017f544b5400000000000000000000000000000000000000000000000000000000008152508160009081620000b5919062000567565b508060019081620000c7919062000567565b505050600073ffffffffffffffffffffffffffffffffffffffff168173ffffffffffffffffffffffffffffffffffffffff16036200013f5760006040517f1e4fbdf70000000000000000000000000000000000000000000000000000000081526004016200013691906200065f565b60405180910390fd5b62000150816200018b60201b60201c565b506101f4600f60146101000a8154816bffffffffffffffffffffffff02191690836bffffffffffffffffffffffff160217905550506200067c565b6000600b60009054906101000a900473ffffffffffffffffffffffffffffffffffffffff16905081600b60006101000a81548173ffffffffffffffffffffffffffffffffffffffff021916908373ffffffffffffffffffffffffffffffffffffffff1602179055508173ffffffffffffffffffffffffffffffffffffffff168173ffffffffffffffffffffffffffffffffffffffff167f8be0079c531659141344cd1fd0a4f28419497f9722a3daafe3b4186f6b6457e060405160405180910390a35050565b600080fd5b600073ffffffffffffffffffffffffffffffffffffffff82169050919050565b6000620002838262000256565b9050919050565b620002958162000276565b8114620002a157600080fd5b50565b600081519050620002b5816200028a565b92915050565b600060208284031215620002d457620002d362000251565b5b6000620002e484828501620002a4565b91505092915050565b600081519050919050565b7f4e487b7100000000000000000000000000000000000000000000000000000000600052604160045260246000fd5b7f4e487b7100000000000000000000000000000000000000000000000000000000600052602260045260246000fd5b600060028204905060018216806200036f57607f821691505b60208210810362000385576200038462000327565b5b50919050565b60008190508160005260206000209050919050565b60006020601f8301049050919050565b600082821b905092915050565b600060088302620003ef7fffffffffffffffffffffffffffffffffffffffffffffffffffffffffffffffff82620003b0565b620003fb8683620003b0565b95508019841693508086168417925050509392505050565b6000819050919050565b6000819050919050565b600062000448620004426200043c8462000413565b6200041d565b62000413565b9050919050565b6000819050919050565b620004648362000427565b6200047c62000473826200044f565b848454620003bd565b825550505050565b600090565b6200049362000484565b620004a081848462000459565b505050565b5b81811015620004c857620004bc60008262000489565b600181019050620004a6565b5050565b601f8211156200051757620004e1816200038b565b620004ec84620003a0565b81016020851015620004fc578190505b620005146200050b85620003a0565b830182620004a5565b50505b505050565b600082821c905092915050565b60006200053c600019846008026200051c565b1980831691505092915050565b600062000557838362000529565b9150826002028217905092915050565b6200057282620002ed565b67ffffffffffffffff8111156200058e576200058d620002f8565b5b6200059a825462000356565b620005a7828285620004cc565b600060209050601f831160018114620005df5760008415620005ca578287015190505b620005d6858262000549565b86555062000646565b601f198416620005ef866200038b565b60005b828110156200061957848901518255600182019150602085019450602081019050620005f2565b8683101562000639578489015162000635601f89168262000529565b8355505b6001600288020188555050505b505050505050565b620006598162000276565b82525050565b60006020820190506200067660008301846200064e565b92915050565b613b85806200068c6000396000f3fe6080604052600436106101d85760003560e01c806370a0823111610102578063b47cc55611610095578063daa17f4911610064578063daa17f49146106d4578063e985e9c5146106ff578063f2fde38b1461073c578063f881917c14610765576101d8565b8063b47cc55614610629578063b88d4fde14610652578063ba7aef431461067b578063c87b56dd14610697576101d8565b8063942f357e116100d1578063942f357e1461058357806395d89b41146105ac578063a22cb465146105d7578063a476b73d14610600576101d8565b806370a08231146104d9578063715018a61461051657806375794a3c1461052d5780638da5cb5b14610558576101d8565b80632a55205a1161017a5780633ccfd60b116101495780633ccfd60b1461041f57806342842e0e146104365780634f6ccce71461045f5780636352211e1461049c576101d8565b80632a55205a1461033d5780632f745c591461037b57806331faafb4146103b8578063394803fd146103e1576101d8565b8063081812fc116101b6578063081812fc14610283578063095ea7b3146102c057806318160ddd146102e957806323b872dd14610314576101d8565b806301ffc9a7146101dd578063033fab351461021a57806306fdde0314610258575b600080fd5b3480156101e957600080fd5b5061020460048036038101906101ff9190612aed565b610790565b6040516102119190612b35565b60405180910390f35b34801561022657600080fd5b50610241600480360381019061023c9190612b86565b6107a2565b60405161024f929190612bc2565b60405180910390f35b34801561026457600080fd5b5061026d6107ef565b60405161027a9190612c7b565b60405180910390f35b34801561028f57600080fd5b506102aa60048036038101906102a59190612b86565b610881565b6040516102b79190612cde565b60405180910390f35b3480156102cc57600080fd5b506102e760048036038101906102e29190612d25565b61089d565b005b3480156102f557600080fd5b506102fe6108b3565b60405161030b9190612d65565b60405180910390f35b34801561032057600080fd5b5061033b60048036038101906103369190612d80565b6108c0565b005b34801561034957600080fd5b50610364600480360381019061035f9190612dd3565b6109c2565b604051610372929190612e13565b60405180910390f35b34801561038757600080fd5b506103a2600480360381019061039d9190612d25565b610a19565b6040516103af9190612d65565b60405180910390f35b3480156103c457600080fd5b506103df60048036038101906103da9190612e80565b610ac2565b005b3480156103ed57600080fd5b5061040860048036038101906104039190612b86565b610afe565b604051610416929190612bc2565b60405180910390f35b34801561042b57600080fd5b50610434610b22565b005b34801561044257600080fd5b5061045d60048036038101906104589190612d80565b610c29565b005b34801561046b57600080fd5b5061048660048036038101906104819190612b86565b610c49565b6040516104939190612d65565b60405180910390f35b3480156104a857600080fd5b506104c360048036038101906104be9190612b86565b610cbf565b6040516104d09190612cde565b60405180910390f35b3480156104e557600080fd5b5061050060048036038101906104fb9190612ead565b610cd1565b60405161050d9190612d65565b60405180910390f35b34801561052257600080fd5b5061052b610d8b565b005b34801561053957600080fd5b50610542610d9f565b60405161054f9190612d65565b60405180910390f35b34801561056457600080fd5b5061056d610da9565b60405161057a9190612cde565b60405180910390f35b34801561058f57600080fd5b506105aa60048036038101906105a59190612dd3565b610dd3565b005b3480156105b857600080fd5b506105c1610ea2565b6040516105ce9190612c7b565b60405180910390f35b3480156105e357600080fd5b506105fe60048036038101906105f99190612f06565b610f34565b005b34801561060c57600080fd5b5061062760048036038101906106229190612b86565b610f4a565b005b34801561063557600080fd5b50610650600480360381019061064b9190612ead565b610f84565b005b34801561065e57600080fd5b506106796004803603810190610674919061307b565b610fd0565b005b6106956004803603810190610690919061319f565b610ff5565b005b3480156106a357600080fd5b506106be60048036038101906106b99190612b86565b6110ad565b6040516106cb9190612c7b565b60405180910390f35b3480156106e057600080fd5b506106e96110bf565b6040516106f69190612cde565b60405180910390f35b34801561070b57600080fd5b506107266004803603810190610721919061320e565b6110e5565b6040516107339190612b35565b60405180910390f35b34801561074857600080fd5b50610763600480360381019061075e9190612ead565b611179565b005b34801561077157600080fd5b5061077a6111ff565b604051610787919061325d565b60405180910390f35b600061079b8261121d565b9050919050565b600080600060106000858152602001908152602001600020604051806040016040529081600082015481526020016001820154815250509050806000015181602001519250925050915091565b6060600080546107fe906132a7565b80601f016020809104026020016040519081016040528092919081815260200182805461082a906132a7565b80156108775780601f1061084c57610100808354040283529160200191610877565b820191906000526020600020905b81548152906001019060200180831161085a57829003601f168201915b5050505050905090565b600061088c82611297565b506108968261131f565b9050919050565b6108af82826108aa61135c565b611364565b5050565b6000600880549050905090565b600073ffffffffffffffffffffffffffffffffffffffff168273ffffffffffffffffffffffffffffffffffffffff16036109325760006040517f64a0ae920000000000000000000000000000000000000000000000000000000081526004016109299190612cde565b60405180910390fd5b6000610946838361094161135c565b611376565b90508373ffffffffffffffffffffffffffffffffffffffff168173ffffffffffffffffffffffffffffffffffffffff16146109bc578382826040517f64283d7b0000000000000000000000000000000000000000000000000000000081526004016109b3939291906132d8565b60405180910390fd5b50505050565b6000806109cd610da9565b612710600f60149054906101000a90046bffffffffffffffffffffffff166bffffffffffffffffffffffff1685610a04919061333e565b610a0e91906133af565b915091509250929050565b6000610a2483610cd1565b8210610a695782826040517fa57d13dc000000000000000000000000000000000000000000000000000000008152600401610a60929190612e13565b60405180910390fd5b600660008473ffffffffffffffffffffffffffffffffffffffff1673ffffffffffffffffffffffffffffffffffffffff168152602001908152602001600020600083815260200190815260200160002054905092915050565b610aca6114ce565b80600f60146101000a8154816bffffffffffffffffffffffff02191690836bffffffffffffffffffffffff16021790555050565b60106020528060005260406000206000915090508060000154908060010154905082565b610b2a6114ce565b600047905060008111610b72576040517f08c379a0000000000000000000000000000000000000000000000000000000008152600401610b699061342c565b60405180910390fd5b6000610b7c610da9565b73ffffffffffffffffffffffffffffffffffffffff1682604051610b9f9061347d565b60006040518083038185875af1925050503d8060008114610bdc576040519150601f19603f3d011682016040523d82523d6000602084013e610be1565b606091505b5050905080610c25576040517f08c379a0000000000000000000000000000000000000000000000000000000008152600401610c1c906134de565b60405180910390fd5b5050565b610c4483838360405180602001604052806000815250610fd0565b505050565b6000610c536108b3565b8210610c99576000826040517fa57d13dc000000000000000000000000000000000000000000000000000000008152600401610c90929190612e13565b60405180910390fd5b60088281548110610cad57610cac6134fe565b5b90600052602060002001549050919050565b6000610cca82611297565b9050919050565b60008073ffffffffffffffffffffffffffffffffffffffff168273ffffffffffffffffffffffffffffffffffffffff1603610d445760006040517f89c62b64000000000000000000000000000000000000000000000000000000008152600401610d3b9190612cde565b60405180910390fd5b600360008373ffffffffffffffffffffffffffffffffffffffff1673ffffffffffffffffffffffffffffffffffffffff168152602001908152602001600020549050919050565b610d936114ce565b610d9d6000611555565b565b6000600e54905090565b6000600b60009054906101000a900473ffffffffffffffffffffffffffffffffffffffff16905090565b600f60009054906101000a900473ffffffffffffffffffffffffffffffffffffffff1673ffffffffffffffffffffffffffffffffffffffff163373ffffffffffffffffffffffffffffffffffffffff1614610e63576040517f08c379a0000000000000000000000000000000000000000000000000000000008152600401610e5a9061359f565b60405180910390fd5b6000601060008481526020019081526020016000209050818160000181905550806001016000815480929190610e98906135bf565b9190505550505050565b606060018054610eb1906132a7565b80601f0160208091040260200160405190810160405280929190818152602001828054610edd906132a7565b8015610f2a5780601f10610eff57610100808354040283529160200191610f2a565b820191906000526020600020905b815481529060010190602001808311610f0d57829003601f168201915b5050505050905090565b610f46610f3f61135c565b838361161b565b5050565b610f526114ce565b610f5b8161178a565b601060008281526020019081526020016000206000808201600090556001820160009055505050565b610f8c6114ce565b80600f60006101000a81548173ffffffffffffffffffffffffffffffffffffffff021916908373ffffffffffffffffffffffffffffffffffffffff16021790555050565b610fdb8484846108c0565b610fef610fe661135c565b85858585611810565b50505050565b80341015611038576040517f08c379a000000000000000000000000000000000000000000000000000000000815260040161102f90613679565b60405180910390fd5b6000600e600081548092919061104d906135bf565b91905055905061105d84826119c1565b61106781846119df565b6040518060400160405280838152602001600081525060106000838152602001908152602001600020600082015181600001556020820151816001015590505050505050565b60606110b882611a3b565b9050919050565b600f60009054906101000a900473ffffffffffffffffffffffffffffffffffffffff1681565b6000600560008473ffffffffffffffffffffffffffffffffffffffff1673ffffffffffffffffffffffffffffffffffffffff16815260200190815260200160002060008373ffffffffffffffffffffffffffffffffffffffff1673ffffffffffffffffffffffffffffffffffffffff16815260200190815260200160002060009054906101000a900460ff16905092915050565b6111816114ce565b600073ffffffffffffffffffffffffffffffffffffffff168173ffffffffffffffffffffffffffffffffffffffff16036111f35760006040517f1e4fbdf70000000000000000000000000000000000000000000000000000000081526004016111ea9190612cde565b60405180910390fd5b6111fc81611555565b50565b600f60149054906101000a90046bffffffffffffffffffffffff1681565b60007f2a55205a000000000000000000000000000000000000000000000000000000007bffffffffffffffffffffffffffffffffffffffffffffffffffffffff1916827bffffffffffffffffffffffffffffffffffffffffffffffffffffffff19161480611290575061128f82611b4e565b5b9050919050565b6000806112a383611baf565b9050600073ffffffffffffffffffffffffffffffffffffffff168173ffffffffffffffffffffffffffffffffffffffff160361131657826040517f7e27328900000000000000000000000000000000000000000000000000000000815260040161130d9190612d65565b60405180910390fd5b80915050919050565b60006004600083815260200190815260200160002060009054906101000a900473ffffffffffffffffffffffffffffffffffffffff169050919050565b600033905090565b6113718383836001611bec565b505050565b60008061138284611baf565b9050600073ffffffffffffffffffffffffffffffffffffffff168173ffffffffffffffffffffffffffffffffffffffff16036113cb576113c3858585611db1565b9150506114c7565b600f60009054906101000a900473ffffffffffffffffffffffffffffffffffffffff1673ffffffffffffffffffffffffffffffffffffffff168573ffffffffffffffffffffffffffffffffffffffff1614806114745750600f60009054906101000a900473ffffffffffffffffffffffffffffffffffffffff1673ffffffffffffffffffffffffffffffffffffffff168173ffffffffffffffffffffffffffffffffffffffff16145b1561148c57611484858585611db1565b9150506114c7565b6040517f08c379a00000000000000000000000000000000000000000000000000000000081526004016114be9061370b565b60405180910390fd5b9392505050565b6114d661135c565b73ffffffffffffffffffffffffffffffffffffffff166114f4610da9565b73ffffffffffffffffffffffffffffffffffffffff16146115535761151761135c565b6040517f118cdaa700000000000000000000000000000000000000000000000000000000815260040161154a9190612cde565b60405180910390fd5b565b6000600b60009054906101000a900473ffffffffffffffffffffffffffffffffffffffff16905081600b60006101000a81548173ffffffffffffffffffffffffffffffffffffffff021916908373ffffffffffffffffffffffffffffffffffffffff1602179055508173ffffffffffffffffffffffffffffffffffffffff168173ffffffffffffffffffffffffffffffffffffffff167f8be0079c531659141344cd1fd0a4f28419497f9722a3daafe3b4186f6b6457e060405160405180910390a35050565b600073ffffffffffffffffffffffffffffffffffffffff168273ffffffffffffffffffffffffffffffffffffffff160361168c57816040517f5b08ba180000000000000000000000000000000000000000000000000000000081526004016116839190612cde565b60405180910390fd5b80600560008573ffffffffffffffffffffffffffffffffffffffff1673ffffffffffffffffffffffffffffffffffffffff16815260200190815260200160002060008473ffffffffffffffffffffffffffffffffffffffff1673ffffffffffffffffffffffffffffffffffffffff16815260200190815260200160002060006101000a81548160ff0219169083151502179055508173ffffffffffffffffffffffffffffffffffffffff168373ffffffffffffffffffffffffffffffffffffffff167f17307eab39ab6107e8899845ad3d59bd9653f200f220920489ca2b5937696c318360405161177d9190612b35565b60405180910390a3505050565b60006117996000836000611376565b9050600073ffffffffffffffffffffffffffffffffffffffff168173ffffffffffffffffffffffffffffffffffffffff160361180c57816040517f7e2732890000000000000000000000000000000000000000000000000000000081526004016118039190612d65565b60405180910390fd5b5050565b60008373ffffffffffffffffffffffffffffffffffffffff163b11156119ba578273ffffffffffffffffffffffffffffffffffffffff1663150b7a02868685856040518563ffffffff1660e01b815260040161186f9493929190613780565b6020604051808303816000875af19250505080156118ab57506040513d601f19601f820116820180604052508101906118a891906137e1565b60015b61192f573d80600081146118db576040519150601f19603f3d011682016040523d82523d6000602084013e6118e0565b606091505b50600081510361192757836040517f64a0ae9200000000000000000000000000000000000000000000000000000000815260040161191e9190612cde565b60405180910390fd5b805160208201fd5b63150b7a0260e01b7bffffffffffffffffffffffffffffffffffffffffffffffffffffffff1916817bffffffffffffffffffffffffffffffffffffffffffffffffffffffff1916146119b857836040517f64a0ae920000000000000000000000000000000000000000000000000000000081526004016119af9190612cde565b60405180910390fd5b505b5050505050565b6119db828260405180602001604052806000815250611ece565b5050565b80600a600084815260200190815260200160002090816119ff91906139ba565b507ff8e1a15aba9398e019f0b49df1a4fde98ee17ae345cb5f6b5e2c27f5033e8ce782604051611a2f9190612d65565b60405180910390a15050565b6060611a4682611297565b506000600a60008481526020019081526020016000208054611a67906132a7565b80601f0160208091040260200160405190810160405280929190818152602001828054611a93906132a7565b8015611ae05780601f10611ab557610100808354040283529160200191611ae0565b820191906000526020600020905b815481529060010190602001808311611ac357829003601f168201915b505050505090506000611af1611ef2565b90506000815103611b06578192505050611b49565b600082511115611b3b578082604051602001611b23929190613ac8565b60405160208183030381529060405292505050611b49565b611b4484611f09565b925050505b919050565b6000634906490660e01b7bffffffffffffffffffffffffffffffffffffffffffffffffffffffff1916827bffffffffffffffffffffffffffffffffffffffffffffffffffffffff19161480611ba85750611ba782611f72565b5b9050919050565b60006002600083815260200190815260200160002060009054906101000a900473ffffffffffffffffffffffffffffffffffffffff169050919050565b8080611c255750600073ffffffffffffffffffffffffffffffffffffffff168273ffffffffffffffffffffffffffffffffffffffff1614155b15611d59576000611c3584611297565b9050600073ffffffffffffffffffffffffffffffffffffffff168373ffffffffffffffffffffffffffffffffffffffff1614158015611ca057508273ffffffffffffffffffffffffffffffffffffffff168173ffffffffffffffffffffffffffffffffffffffff1614155b8015611cb35750611cb181846110e5565b155b15611cf557826040517fa9fbf51f000000000000000000000000000000000000000000000000000000008152600401611cec9190612cde565b60405180910390fd5b8115611d5757838573ffffffffffffffffffffffffffffffffffffffff168273ffffffffffffffffffffffffffffffffffffffff167f8c5be1e5ebec7d5bd14f71427d1e84f3dd0314c0f7b2291e5b200ac8c7c3b92560405160405180910390a45b505b836004600085815260200190815260200160002060006101000a81548173ffffffffffffffffffffffffffffffffffffffff021916908373ffffffffffffffffffffffffffffffffffffffff16021790555050505050565b600080611dbf858585611fec565b9050600073ffffffffffffffffffffffffffffffffffffffff168173ffffffffffffffffffffffffffffffffffffffff1603611e0357611dfe84612206565b611e42565b8473ffffffffffffffffffffffffffffffffffffffff168173ffffffffffffffffffffffffffffffffffffffff1614611e4157611e40818561224f565b5b5b600073ffffffffffffffffffffffffffffffffffffffff168573ffffffffffffffffffffffffffffffffffffffff1603611e8457611e7f8461233a565b611ec3565b8473ffffffffffffffffffffffffffffffffffffffff168173ffffffffffffffffffffffffffffffffffffffff1614611ec257611ec1858561240b565b5b5b809150509392505050565b611ed88383612496565b611eed611ee361135c565b6000858585611810565b505050565b606060405180602001604052806000815250905090565b6060611f1482611297565b506000611f1f611ef2565b90506000815111611f3f5760405180602001604052806000815250611f6a565b80611f498461258f565b604051602001611f5a929190613ac8565b6040516020818303038152906040525b915050919050565b60007f780e9d63000000000000000000000000000000000000000000000000000000007bffffffffffffffffffffffffffffffffffffffffffffffffffffffff1916827bffffffffffffffffffffffffffffffffffffffffffffffffffffffff19161480611fe55750611fe48261265d565b5b9050919050565b600080611ff884611baf565b9050600073ffffffffffffffffffffffffffffffffffffffff168373ffffffffffffffffffffffffffffffffffffffff161461203a5761203981848661273f565b5b600073ffffffffffffffffffffffffffffffffffffffff168173ffffffffffffffffffffffffffffffffffffffff16146120cb5761207c600085600080611bec565b6001600360008373ffffffffffffffffffffffffffffffffffffffff1673ffffffffffffffffffffffffffffffffffffffff168152602001908152602001600020600082825403925050819055505b600073ffffffffffffffffffffffffffffffffffffffff168573ffffffffffffffffffffffffffffffffffffffff161461214e576001600360008773ffffffffffffffffffffffffffffffffffffffff1673ffffffffffffffffffffffffffffffffffffffff168152602001908152602001600020600082825401925050819055505b846002600086815260200190815260200160002060006101000a81548173ffffffffffffffffffffffffffffffffffffffff021916908373ffffffffffffffffffffffffffffffffffffffff160217905550838573ffffffffffffffffffffffffffffffffffffffff168273ffffffffffffffffffffffffffffffffffffffff167fddf252ad1be2c89b69c2b068fc378daa952ba7f163c4a11628f55a4df523b3ef60405160405180910390a4809150509392505050565b6008805490506009600083815260200190815260200160002081905550600881908060018154018082558091505060019003906000526020600020016000909190919091505550565b600061225a83610cd1565b90506000600760008481526020019081526020016000205490506000600660008673ffffffffffffffffffffffffffffffffffffffff1673ffffffffffffffffffffffffffffffffffffffff16815260200190815260200160002090508282146123065760008160008581526020019081526020016000205490508082600085815260200190815260200160002081905550826007600083815260200190815260200160002081905550505b6007600085815260200190815260200160002060009055806000848152602001908152602001600020600090555050505050565b6000600160088054905061234e9190613aec565b905060006009600084815260200190815260200160002054905060006008838154811061237e5761237d6134fe565b5b9060005260206000200154905080600883815481106123a05761239f6134fe565b5b9060005260206000200181905550816009600083815260200190815260200160002081905550600960008581526020019081526020016000206000905560088054806123ef576123ee613b20565b5b6001900381819060005260206000200160009055905550505050565b6000600161241884610cd1565b6124229190613aec565b905081600660008573ffffffffffffffffffffffffffffffffffffffff1673ffffffffffffffffffffffffffffffffffffffff168152602001908152602001600020600083815260200190815260200160002081905550806007600084815260200190815260200160002081905550505050565b600073ffffffffffffffffffffffffffffffffffffffff168273ffffffffffffffffffffffffffffffffffffffff16036125085760006040517f64a0ae920000000000000000000000000000000000000000000000000000000081526004016124ff9190612cde565b60405180910390fd5b600061251683836000611376565b9050600073ffffffffffffffffffffffffffffffffffffffff168173ffffffffffffffffffffffffffffffffffffffff161461258a5760006040517f73c6ac6e0000000000000000000000000000000000000000000000000000000081526004016125819190612cde565b60405180910390fd5b505050565b60606000600161259e84612803565b01905060008167ffffffffffffffff8111156125bd576125bc612f50565b5b6040519080825280601f01601f1916602001820160405280156125ef5781602001600182028036833780820191505090505b509050600082602083010190505b600115612652578080600190039150507f3031323334353637383961626364656600000000000000000000000000000000600a86061a8153600a858161264657612645613380565b5b049450600085036125fd575b819350505050919050565b60007f80ac58cd000000000000000000000000000000000000000000000000000000007bffffffffffffffffffffffffffffffffffffffffffffffffffffffff1916827bffffffffffffffffffffffffffffffffffffffffffffffffffffffff1916148061272857507f5b5e139f000000000000000000000000000000000000000000000000000000007bffffffffffffffffffffffffffffffffffffffffffffffffffffffff1916827bffffffffffffffffffffffffffffffffffffffffffffffffffffffff1916145b80612738575061273782612956565b5b9050919050565b61274a8383836129c0565b6127fe57600073ffffffffffffffffffffffffffffffffffffffff168373ffffffffffffffffffffffffffffffffffffffff16036127bf57806040517f7e2732890000000000000000000000000000000000000000000000000000000081526004016127b69190612d65565b60405180910390fd5b81816040517f177e802f0000000000000000000000000000000000000000000000000000000081526004016127f5929190612e13565b60405180910390fd5b505050565b600080600090507a184f03e93ff9f4daa797ed6e38ed64bf6a1f0100000000000000008310612861577a184f03e93ff9f4daa797ed6e38ed64bf6a1f010000000000000000838161285757612856613380565b5b0492506040810190505b6d04ee2d6d415b85acef8100000000831061289e576d04ee2d6d415b85acef8100000000838161289457612893613380565b5b0492506020810190505b662386f26fc1000083106128cd57662386f26fc1000083816128c3576128c2613380565b5b0492506010810190505b6305f5e10083106128f6576305f5e10083816128ec576128eb613380565b5b0492506008810190505b612710831061291b57612710838161291157612910613380565b5b0492506004810190505b6064831061293e576064838161293457612933613380565b5b0492506002810190505b600a831061294d576001810190505b80915050919050565b60007f01ffc9a7000000000000000000000000000000000000000000000000000000007bffffffffffffffffffffffffffffffffffffffffffffffffffffffff1916827bffffffffffffffffffffffffffffffffffffffffffffffffffffffff1916149050919050565b60008073ffffffffffffffffffffffffffffffffffffffff168373ffffffffffffffffffffffffffffffffffffffff1614158015612a7857508273ffffffffffffffffffffffffffffffffffffffff168473ffffffffffffffffffffffffffffffffffffffff161480612a395750612a3884846110e5565b5b80612a7757508273ffffffffffffffffffffffffffffffffffffffff16612a5f8361131f565b73ffffffffffffffffffffffffffffffffffffffff16145b5b90509392505050565b6000604051905090565b600080fd5b600080fd5b60007fffffffff0000000000000000000000000000000000000000000000000000000082169050919050565b612aca81612a95565b8114612ad557600080fd5b50565b600081359050612ae781612ac1565b92915050565b600060208284031215612b0357612b02612a8b565b5b6000612b1184828501612ad8565b91505092915050565b60008115159050919050565b612b2f81612b1a565b82525050565b6000602082019050612b4a6000830184612b26565b92915050565b6000819050919050565b612b6381612b50565b8114612b6e57600080fd5b50565b600081359050612b8081612b5a565b92915050565b600060208284031215612b9c57612b9b612a8b565b5b6000612baa84828501612b71565b91505092915050565b612bbc81612b50565b82525050565b6000604082019050612bd76000830185612bb3565b612be46020830184612bb3565b9392505050565b600081519050919050565b600082825260208201905092915050565b60005b83811015612c25578082015181840152602081019050612c0a565b60008484015250505050565b6000601f19601f8301169050919050565b6000612c4d82612beb565b612c578185612bf6565b9350612c67818560208601612c07565b612c7081612c31565b840191505092915050565b60006020820190508181036000830152612c958184612c42565b905092915050565b600073ffffffffffffffffffffffffffffffffffffffff82169050919050565b6000612cc882612c9d565b9050919050565b612cd881612cbd565b82525050565b6000602082019050612cf36000830184612ccf565b92915050565b612d0281612cbd565b8114612d0d57600080fd5b50565b600081359050612d1f81612cf9565b92915050565b60008060408385031215612d3c57612d3b612a8b565b5b6000612d4a85828601612d10565b9250506020612d5b85828601612b71565b9150509250929050565b6000602082019050612d7a6000830184612bb3565b92915050565b600080600060608486031215612d9957612d98612a8b565b5b6000612da786828701612d10565b9350506020612db886828701612d10565b9250506040612dc986828701612b71565b9150509250925092565b60008060408385031215612dea57612de9612a8b565b5b6000612df885828601612b71565b9250506020612e0985828601612b71565b9150509250929050565b6000604082019050612e286000830185612ccf565b612e356020830184612bb3565b9392505050565b60006bffffffffffffffffffffffff82169050919050565b612e5d81612e3c565b8114612e6857600080fd5b50565b600081359050612e7a81612e54565b92915050565b600060208284031215612e9657612e95612a8b565b5b6000612ea484828501612e6b565b91505092915050565b600060208284031215612ec357612ec2612a8b565b5b6000612ed184828501612d10565b91505092915050565b612ee381612b1a565b8114612eee57600080fd5b50565b600081359050612f0081612eda565b92915050565b60008060408385031215612f1d57612f1c612a8b565b5b6000612f2b85828601612d10565b9250506020612f3c85828601612ef1565b9150509250929050565b600080fd5b600080fd5b7f4e487b7100000000000000000000000000000000000000000000000000000000600052604160045260246000fd5b612f8882612c31565b810181811067ffffffffffffffff82111715612fa757612fa6612f50565b5b80604052505050565b6000612fba612a81565b9050612fc68282612f7f565b919050565b600067ffffffffffffffff821115612fe657612fe5612f50565b5b612fef82612c31565b9050602081019050919050565b82818337600083830152505050565b600061301e61301984612fcb565b612fb0565b90508281526020810184848401111561303a57613039612f4b565b5b613045848285612ffc565b509392505050565b600082601f83011261306257613061612f46565b5b813561307284826020860161300b565b91505092915050565b6000806000806080858703121561309557613094612a8b565b5b60006130a387828801612d10565b94505060206130b487828801612d10565b93505060406130c587828801612b71565b925050606085013567ffffffffffffffff8111156130e6576130e5612a90565b5b6130f28782880161304d565b91505092959194509250565b600067ffffffffffffffff82111561311957613118612f50565b5b61312282612c31565b9050602081019050919050565b600061314261313d846130fe565b612fb0565b90508281526020810184848401111561315e5761315d612f4b565b5b613169848285612ffc565b509392505050565b600082601f83011261318657613185612f46565b5b813561319684826020860161312f565b91505092915050565b6000806000606084860312156131b8576131b7612a8b565b5b60006131c686828701612d10565b935050602084013567ffffffffffffffff8111156131e7576131e6612a90565b5b6131f386828701613171565b925050604061320486828701612b71565b9150509250925092565b6000806040838503121561322557613224612a8b565b5b600061323385828601612d10565b925050602061324485828601612d10565b9150509250929050565b61325781612e3c565b82525050565b6000602082019050613272600083018461324e565b92915050565b7f4e487b7100000000000000000000000000000000000000000000000000000000600052602260045260246000fd5b600060028204905060018216806132bf57607f821691505b6020821081036132d2576132d1613278565b5b50919050565b60006060820190506132ed6000830186612ccf565b6132fa6020830185612bb3565b6133076040830184612ccf565b949350505050565b7f4e487b7100000000000000000000000000000000000000000000000000000000600052601160045260246000fd5b600061334982612b50565b915061335483612b50565b925082820261336281612b50565b915082820484148315176133795761337861330f565b5b5092915050565b7f4e487b7100000000000000000000000000000000000000000000000000000000600052601260045260246000fd5b60006133ba82612b50565b91506133c583612b50565b9250826133d5576133d4613380565b5b828204905092915050565b7f4e6f2066756e647320746f2077697468647261772e0000000000000000000000600082015250565b6000613416601583612bf6565b9150613421826133e0565b602082019050919050565b6000602082019050818103600083015261344581613409565b9050919050565b600081905092915050565b50565b600061346760008361344c565b915061347282613457565b600082019050919050565b60006134888261345a565b9150819050919050565b7f5769746864726177616c206661696c65642e0000000000000000000000000000600082015250565b60006134c8601283612bf6565b91506134d382613492565b602082019050919050565b600060208201905081810360008301526134f7816134bb565b9050919050565b7f4e487b7100000000000000000000000000000000000000000000000000000000600052603260045260246000fd5b7f5469636b65744e46543a2043616c6c6572206973206e6f74207468652061707060008201527f726f766564206d61726b6574706c616365000000000000000000000000000000602082015250565b6000613589603183612bf6565b91506135948261352d565b604082019050919050565b600060208201905081810360008301526135b88161357c565b9050919050565b60006135ca82612b50565b91507fffffffffffffffffffffffffffffffffffffffffffffffffffffffffffffffff82036135fc576135fb61330f565b5b600182019050919050565b7f5469636b65744e46543a204d7573742073656e6420636f72726563742070726960008201527f636520746f206d696e7400000000000000000000000000000000000000000000602082015250565b6000613663602a83612bf6565b915061366e82613607565b604082019050919050565b6000602082019050818103600083015261369281613656565b9050919050565b7f5469636b65744e46543a205472616e736665727320617265206f6e6c7920616c60008201527f6c6f7765642076696120746865206d61726b6574706c61636500000000000000602082015250565b60006136f5603983612bf6565b915061370082613699565b604082019050919050565b60006020820190508181036000830152613724816136e8565b9050919050565b600081519050919050565b600082825260208201905092915050565b60006137528261372b565b61375c8185613736565b935061376c818560208601612c07565b61377581612c31565b840191505092915050565b60006080820190506137956000830187612ccf565b6137a26020830186612ccf565b6137af6040830185612bb3565b81810360608301526137c18184613747565b905095945050505050565b6000815190506137db81612ac1565b92915050565b6000602082840312156137f7576137f6612a8b565b5b6000613805848285016137cc565b91505092915050565b60008190508160005260206000209050919050565b60006020601f8301049050919050565b600082821b905092915050565b6000600883026138707fffffffffffffffffffffffffffffffffffffffffffffffffffffffffffffffff82613833565b61387a8683613833565b95508019841693508086168417925050509392505050565b6000819050919050565b60006138b76138b26138ad84612b50565b613892565b612b50565b9050919050565b6000819050919050565b6138d18361389c565b6138e56138dd826138be565b848454613840565b825550505050565b600090565b6138fa6138ed565b6139058184846138c8565b505050565b5b818110156139295761391e6000826138f2565b60018101905061390b565b5050565b601f82111561396e5761393f8161380e565b61394884613823565b81016020851015613957578190505b61396b61396385613823565b83018261390a565b50505b505050565b600082821c905092915050565b600061399160001984600802613973565b1980831691505092915050565b60006139aa8383613980565b9150826002028217905092915050565b6139c382612beb565b67ffffffffffffffff8111156139dc576139db612f50565b5b6139e682546132a7565b6139f182828561392d565b600060209050601f831160018114613a245760008415613a12578287015190505b613a1c858261399e565b865550613a84565b601f198416613a328661380e565b60005b82811015613a5a57848901518255600182019150602085019450602081019050613a35565b86831015613a775784890151613a73601f891682613980565b8355505b6001600288020188555050505b505050505050565b600081905092915050565b6000613aa282612beb565b613aac8185613a8c565b9350613abc818560208601612c07565b80840191505092915050565b6000613ad48285613a97565b9150613ae08284613a97565b91508190509392505050565b6000613af782612b50565b9150613b0283612b50565b9250828203905081811115613b1a57613b1961330f565b5b92915050565b7f4e487b7100000000000000000000000000000000000000000000000000000000600052603160045260246000fdfea2646970667358221220482a104da42d13695c28ab002acf31d690483d50ecd0ea84c071f225060d605964736f6c63430008140033a264697066735822122070f32c5d9000d5109f22ce5bb2f45ff0be4d04b0ff5033582e980f45907d805864736f6c63430008140033",
  "linkReferences": {},
  "deployedLinkReferences": {}
}