{
  "_format": "hh-sol-artifact-1",
  "contractName": "TicketNFTFactory",
  "sourceName": "contracts/TicketNFTFactory.sol",
  "abi": [
    {
      "anonymous": false,
      "inputs": [
        {
          "indexed": true,
          "internalType": "address",
          "name": "eventContract",
          "type": "address"
        },
        {
          "indexed": true,
          "internalType": "address",
          "name": "organizer",
          "type": "address"
        }
      ],
      "name": "EventContractCreated",
      "type": "event"
    },
    {
      "inputs": [],
      "name": "createEventContract",
      "outputs": [],
      "stateMutability": "nonpayable",
      "type": "function"
    },
    {
      "inputs": [
        {
          "internalType": "uint256",
          "name": "",
          "type": "uint256"
        }
      ],
      "name": "deployedEventContracts",
      "outputs": [
        {
          "internalType": "contract TicketNFT",
          "name": "",
          "type": "address"
        }
      ],
      "stateMutability": "view",
      "type": "function"
    }
  ],
  "bytecode": "0x6080604052348015600f57600080fd5b50613fde8061001f6000396000f3fe608060405234801561001057600080fd5b50600436106100365760003560e01c806308a13fee1461003b57806398d094fa1461006b575b600080fd5b610055600480360381019061005091906101f4565b610075565b60405161006291906102a0565b60405180910390f35b6100736100b4565b005b6000818154811061008557600080fd5b906000526020600020016000915054906101000a900473ffffffffffffffffffffffffffffffffffffffff1681565b6000336040516100c3906101ac565b6100cd91906102dc565b604051809103906000f0801580156100e9573d6000803e3d6000fd5b5090506000819080600181540180825580915050600190039060005260206000200160009091909190916101000a81548173ffffffffffffffffffffffffffffffffffffffff021916908373ffffffffffffffffffffffffffffffffffffffff1602179055503373ffffffffffffffffffffffffffffffffffffffff168173ffffffffffffffffffffffffffffffffffffffff167fc8efa8b5a7b93f12b6d5c818c5aee7334382101389704f4549ce1f12810ca97960405160405180910390a350565b613cb1806102f883390190565b600080fd5b6000819050919050565b6101d1816101be565b81146101dc57600080fd5b50565b6000813590506101ee816101c8565b92915050565b60006020828403121561020a576102096101b9565b5b6000610218848285016101df565b91505092915050565b600073ffffffffffffffffffffffffffffffffffffffff82169050919050565b6000819050919050565b600061026661026161025c84610221565b610241565b610221565b9050919050565b60006102788261024b565b9050919050565b600061028a8261026d565b9050919050565b61029a8161027f565b82525050565b60006020820190506102b56000830184610291565b92915050565b60006102c68261026d565b9050919050565b6102d6816102bb565b82525050565b60006020820190506102f160008301846102cd565b9291505056fe608060405234801561001057600080fd5b50604051613cb1380380613cb1833981810160405281019061003291906102a5565b806040518060400160405280600981526020017f5469636b65744e465400000000000000000000000000000000000000000000008152506040518060400160405280600381526020017f544b54000000000000000000000000000000000000000000000000000000000081525081600090816100ae9190610522565b5080600190816100be9190610522565b505050600073ffffffffffffffffffffffffffffffffffffffff168173ffffffffffffffffffffffffffffffffffffffff16036101335760006040517f1e4fbdf700000000000000000000000000000000000000000000000000000000815260040161012a9190610603565b60405180910390fd5b6101428161017c60201b60201c565b506101f4600f60146101000a8154816bffffffffffffffffffffffff02191690836bffffffffffffffffffffffff1602179055505061061e565b6000600b60009054906101000a900473ffffffffffffffffffffffffffffffffffffffff16905081600b60006101000a81548173ffffffffffffffffffffffffffffffffffffffff021916908373ffffffffffffffffffffffffffffffffffffffff1602179055508173ffffffffffffffffffffffffffffffffffffffff168173ffffffffffffffffffffffffffffffffffffffff167f8be0079c531659141344cd1fd0a4f28419497f9722a3daafe3b4186f6b6457e060405160405180910390a35050565b600080fd5b600073ffffffffffffffffffffffffffffffffffffffff82169050919050565b600061027282610247565b9050919050565b61028281610267565b811461028d57600080fd5b50565b60008151905061029f81610279565b92915050565b6000602082840312156102bb576102ba610242565b5b60006102c984828501610290565b91505092915050565b600081519050919050565b7f4e487b7100000000000000000000000000000000000000000000000000000000600052604160045260246000fd5b7f4e487b7100000000000000000000000000000000000000000000000000000000600052602260045260246000fd5b6000600282049050600182168061035357607f821691505b6020821081036103665761036561030c565b5b50919050565b60008190508160005260206000209050919050565b60006020601f8301049050919050565b600082821b905092915050565b6000600883026103ce7fffffffffffffffffffffffffffffffffffffffffffffffffffffffffffffffff82610391565b6103d88683610391565b95508019841693508086168417925050509392505050565b6000819050919050565b6000819050919050565b600061041f61041a610415846103f0565b6103fa565b6103f0565b9050919050565b6000819050919050565b61043983610404565b61044d61044582610426565b84845461039e565b825550505050565b600090565b610462610455565b61046d818484610430565b505050565b5b818110156104915761048660008261045a565b600181019050610473565b5050565b601f8211156104d6576104a78161036c565b6104b084610381565b810160208510156104bf578190505b6104d36104cb85610381565b830182610472565b50505b505050565b600082821c905092915050565b60006104f9600019846008026104db565b1980831691505092915050565b600061051283836104e8565b9150826002028217905092915050565b61052b826102d2565b67ffffffffffffffff811115610544576105436102dd565b5b61054e825461033b565b610559828285610495565b600060209050601f83116001811461058c576000841561057a578287015190505b6105848582610506565b8655506105ec565b601f19841661059a8661036c565b60005b828110156105c25784890151825560018201915060208501945060208101905061059d565b868310156105df57848901516105db601f8916826104e8565b8355505b6001600288020188555050505b505050505050565b6105fd81610267565b82525050565b600060208201905061061860008301846105f4565b92915050565b6136848061062d6000396000f3fe608060405234801561001057600080fd5b50600436106101da5760003560e01c806370a0823111610104578063b47cc556116100a2578063daa17f4911610071578063daa17f4914610568578063e985e9c514610586578063f2fde38b146105b6578063f881917c146105d2576101da565b8063b47cc556146104e4578063b88d4fde14610500578063ba7aef431461051c578063c87b56dd14610538576101da565b80638da5cb5b116100de5780638da5cb5b14610470578063942f357e1461048e57806395d89b41146104aa578063a22cb465146104c8576101da565b806370a0823114610418578063715018a61461044857806375794a3c14610452576101da565b80632a55205a1161017c5780633ccfd60b1161014b5780633ccfd60b1461039257806342842e0e1461039c5780634f6ccce7146103b85780636352211e146103e8576101da565b80632a55205a146102e45780632f745c591461031557806331faafb414610345578063394803fd14610361576101da565b8063081812fc116101b8578063081812fc1461025e578063095ea7b31461028e57806318160ddd146102aa57806323b872dd146102c8576101da565b806301ffc9a7146101df578063033fab351461020f57806306fdde0314610240575b600080fd5b6101f960048036038101906101f49190612710565b6105f0565b6040516102069190612758565b60405180910390f35b610229600480360381019061022491906127a9565b610602565b6040516102379291906127e5565b60405180910390f35b61024861064f565b604051610255919061289e565b60405180910390f35b610278600480360381019061027391906127a9565b6106e1565b6040516102859190612901565b60405180910390f35b6102a860048036038101906102a39190612948565b6106fd565b005b6102b2610713565b6040516102bf9190612988565b60405180910390f35b6102e260048036038101906102dd91906129a3565b610720565b005b6102fe60048036038101906102f991906129f6565b610822565b60405161030c929190612a36565b60405180910390f35b61032f600480360381019061032a9190612948565b610879565b60405161033c9190612988565b60405180910390f35b61035f600480360381019061035a9190612aa3565b610922565b005b61037b600480360381019061037691906127a9565b61095e565b6040516103899291906127e5565b60405180910390f35b61039a610982565b005b6103b660048036038101906103b191906129a3565b610a89565b005b6103d260048036038101906103cd91906127a9565b610aa9565b6040516103df9190612988565b60405180910390f35b61040260048036038101906103fd91906127a9565b610b1f565b60405161040f9190612901565b60405180910390f35b610432600480360381019061042d9190612ad0565b610b31565b60405161043f9190612988565b60405180910390f35b610450610beb565b005b61045a610bff565b6040516104679190612988565b60405180910390f35b610478610c09565b6040516104859190612901565b60405180910390f35b6104a860048036038101906104a391906129f6565b610c33565b005b6104b2610d02565b6040516104bf919061289e565b60405180910390f35b6104e260048036038101906104dd9190612b29565b610d94565b005b6104fe60048036038101906104f99190612ad0565b610daa565b005b61051a60048036038101906105159190612c9e565b610df6565b005b61053660048036038101906105319190612dc2565b610e1b565b005b610552600480360381019061054d91906127a9565b610e98565b60405161055f919061289e565b60405180910390f35b610570610eaa565b60405161057d9190612901565b60405180910390f35b6105a0600480360381019061059b9190612e31565b610ed0565b6040516105ad9190612758565b60405180910390f35b6105d060048036038101906105cb9190612ad0565b610f64565b005b6105da610fea565b6040516105e79190612e80565b60405180910390f35b60006105fb82611008565b9050919050565b600080600060106000858152602001908152602001600020604051806040016040529081600082015481526020016001820154815250509050806000015181602001519250925050915091565b60606000805461065e90612eca565b80601f016020809104026020016040519081016040528092919081815260200182805461068a90612eca565b80156106d75780601f106106ac576101008083540402835291602001916106d7565b820191906000526020600020905b8154815290600101906020018083116106ba57829003601f168201915b5050505050905090565b60006106ec82611082565b506106f68261110a565b9050919050565b61070f828261070a611147565b61114f565b5050565b6000600880549050905090565b600073ffffffffffffffffffffffffffffffffffffffff168273ffffffffffffffffffffffffffffffffffffffff16036107925760006040517f64a0ae920000000000000000000000000000000000000000000000000000000081526004016107899190612901565b60405180910390fd5b60006107a683836107a1611147565b611161565b90508373ffffffffffffffffffffffffffffffffffffffff168173ffffffffffffffffffffffffffffffffffffffff161461081c578382826040517f64283d7b00000000000000000000000000000000000000000000000000000000815260040161081393929190612efb565b60405180910390fd5b50505050565b60008061082d610c09565b612710600f60149054906101000a90046bffffffffffffffffffffffff166bffffffffffffffffffffffff16856108649190612f61565b61086e9190612fd2565b915091509250929050565b600061088483610b31565b82106108c95782826040517fa57d13dc0000000000000000000000000000000000000000000000000000000081526004016108c0929190612a36565b60405180910390fd5b600660008473ffffffffffffffffffffffffffffffffffffffff1673ffffffffffffffffffffffffffffffffffffffff168152602001908152602001600020600083815260200190815260200160002054905092915050565b61092a611177565b80600f60146101000a8154816bffffffffffffffffffffffff02191690836bffffffffffffffffffffffff16021790555050565b60106020528060005260406000206000915090508060000154908060010154905082565b61098a611177565b6000479050600081116109d2576040517f08c379a00000000000000000000000000000000000000000000000000000000081526004016109c99061304f565b60405180910390fd5b60006109dc610c09565b73ffffffffffffffffffffffffffffffffffffffff16826040516109ff906130a0565b60006040518083038185875af1925050503d8060008114610a3c576040519150601f19603f3d011682016040523d82523d6000602084013e610a41565b606091505b5050905080610a85576040517f08c379a0000000000000000000000000000000000000000000000000000000008152600401610a7c90613101565b60405180910390fd5b5050565b610aa483838360405180602001604052806000815250610df6565b505050565b6000610ab3610713565b8210610af9576000826040517fa57d13dc000000000000000000000000000000000000000000000000000000008152600401610af0929190612a36565b60405180910390fd5b60088281548110610b0d57610b0c613121565b5b90600052602060002001549050919050565b6000610b2a82611082565b9050919050565b60008073ffffffffffffffffffffffffffffffffffffffff168273ffffffffffffffffffffffffffffffffffffffff1603610ba45760006040517f89c62b64000000000000000000000000000000000000000000000000000000008152600401610b9b9190612901565b60405180910390fd5b600360008373ffffffffffffffffffffffffffffffffffffffff1673ffffffffffffffffffffffffffffffffffffffff168152602001908152602001600020549050919050565b610bf3611177565b610bfd60006111fe565b565b6000600e54905090565b6000600b60009054906101000a900473ffffffffffffffffffffffffffffffffffffffff16905090565b600f60009054906101000a900473ffffffffffffffffffffffffffffffffffffffff1673ffffffffffffffffffffffffffffffffffffffff163373ffffffffffffffffffffffffffffffffffffffff1614610cc3576040517f08c379a0000000000000000000000000000000000000000000000000000000008152600401610cba906131c2565b60405180910390fd5b6000601060008481526020019081526020016000209050818160000181905550806001016000815480929190610cf8906131e2565b9190505550505050565b606060018054610d1190612eca565b80601f0160208091040260200160405190810160405280929190818152602001828054610d3d90612eca565b8015610d8a5780601f10610d5f57610100808354040283529160200191610d8a565b820191906000526020600020905b815481529060010190602001808311610d6d57829003601f168201915b5050505050905090565b610da6610d9f611147565b83836112c4565b5050565b610db2611177565b80600f60006101000a81548173ffffffffffffffffffffffffffffffffffffffff021916908373ffffffffffffffffffffffffffffffffffffffff16021790555050565b610e01848484610720565b610e15610e0c611147565b85858585611433565b50505050565b610e23611177565b6000600e6000815480929190610e38906131e2565b919050559050610e4884826115e4565b610e528184611602565b6040518060400160405280838152602001600081525060106000838152602001908152602001600020600082015181600001556020820151816001015590505050505050565b6060610ea38261165e565b9050919050565b600f60009054906101000a900473ffffffffffffffffffffffffffffffffffffffff1681565b6000600560008473ffffffffffffffffffffffffffffffffffffffff1673ffffffffffffffffffffffffffffffffffffffff16815260200190815260200160002060008373ffffffffffffffffffffffffffffffffffffffff1673ffffffffffffffffffffffffffffffffffffffff16815260200190815260200160002060009054906101000a900460ff16905092915050565b610f6c611177565b600073ffffffffffffffffffffffffffffffffffffffff168173ffffffffffffffffffffffffffffffffffffffff1603610fde5760006040517f1e4fbdf7000000000000000000000000000000000000000000000000000000008152600401610fd59190612901565b60405180910390fd5b610fe7816111fe565b50565b600f60149054906101000a90046bffffffffffffffffffffffff1681565b60007f2a55205a000000000000000000000000000000000000000000000000000000007bffffffffffffffffffffffffffffffffffffffffffffffffffffffff1916827bffffffffffffffffffffffffffffffffffffffffffffffffffffffff1916148061107b575061107a82611771565b5b9050919050565b60008061108e836117d2565b9050600073ffffffffffffffffffffffffffffffffffffffff168173ffffffffffffffffffffffffffffffffffffffff160361110157826040517f7e2732890000000000000000000000000000000000000000000000000000000081526004016110f89190612988565b60405180910390fd5b80915050919050565b60006004600083815260200190815260200160002060009054906101000a900473ffffffffffffffffffffffffffffffffffffffff169050919050565b600033905090565b61115c838383600161180f565b505050565b600061116e8484846119d4565b90509392505050565b61117f611147565b73ffffffffffffffffffffffffffffffffffffffff1661119d610c09565b73ffffffffffffffffffffffffffffffffffffffff16146111fc576111c0611147565b6040517f118cdaa70000000000000000000000000000000000000000000000000000000081526004016111f39190612901565b60405180910390fd5b565b6000600b60009054906101000a900473ffffffffffffffffffffffffffffffffffffffff16905081600b60006101000a81548173ffffffffffffffffffffffffffffffffffffffff021916908373ffffffffffffffffffffffffffffffffffffffff1602179055508173ffffffffffffffffffffffffffffffffffffffff168173ffffffffffffffffffffffffffffffffffffffff167f8be0079c531659141344cd1fd0a4f28419497f9722a3daafe3b4186f6b6457e060405160405180910390a35050565b600073ffffffffffffffffffffffffffffffffffffffff168273ffffffffffffffffffffffffffffffffffffffff160361133557816040517f5b08ba1800000000000000000000000000000000000000000000000000000000815260040161132c9190612901565b60405180910390fd5b80600560008573ffffffffffffffffffffffffffffffffffffffff1673ffffffffffffffffffffffffffffffffffffffff16815260200190815260200160002060008473ffffffffffffffffffffffffffffffffffffffff1673ffffffffffffffffffffffffffffffffffffffff16815260200190815260200160002060006101000a81548160ff0219169083151502179055508173ffffffffffffffffffffffffffffffffffffffff168373ffffffffffffffffffffffffffffffffffffffff167f17307eab39ab6107e8899845ad3d59bd9653f200f220920489ca2b5937696c31836040516114269190612758565b60405180910390a3505050565b60008373ffffffffffffffffffffffffffffffffffffffff163b11156115dd578273ffffffffffffffffffffffffffffffffffffffff1663150b7a02868685856040518563ffffffff1660e01b8152600401611492949392919061327f565b6020604051808303816000875af19250505080156114ce57506040513d601f19601f820116820180604052508101906114cb91906132e0565b60015b611552573d80600081146114fe576040519150601f19603f3d011682016040523d82523d6000602084013e611503565b606091505b50600081510361154a57836040517f64a0ae920000000000000000000000000000000000000000000000000000000081526004016115419190612901565b60405180910390fd5b805160208201fd5b63150b7a0260e01b7bffffffffffffffffffffffffffffffffffffffffffffffffffffffff1916817bffffffffffffffffffffffffffffffffffffffffffffffffffffffff1916146115db57836040517f64a0ae920000000000000000000000000000000000000000000000000000000081526004016115d29190612901565b60405180910390fd5b505b5050505050565b6115fe828260405180602001604052806000815250611af1565b5050565b80600a6000848152602001908152602001600020908161162291906134b9565b507ff8e1a15aba9398e019f0b49df1a4fde98ee17ae345cb5f6b5e2c27f5033e8ce7826040516116529190612988565b60405180910390a15050565b606061166982611082565b506000600a6000848152602001908152602001600020805461168a90612eca565b80601f01602080910402602001604051908101604052809291908181526020018280546116b690612eca565b80156117035780601f106116d857610100808354040283529160200191611703565b820191906000526020600020905b8154815290600101906020018083116116e657829003601f168201915b505050505090506000611714611b15565b9050600081510361172957819250505061176c565b60008251111561175e5780826040516020016117469291906135c7565b6040516020818303038152906040529250505061176c565b61176784611b2c565b925050505b919050565b6000634906490660e01b7bffffffffffffffffffffffffffffffffffffffffffffffffffffffff1916827bffffffffffffffffffffffffffffffffffffffffffffffffffffffff191614806117cb57506117ca82611b95565b5b9050919050565b60006002600083815260200190815260200160002060009054906101000a900473ffffffffffffffffffffffffffffffffffffffff169050919050565b80806118485750600073ffffffffffffffffffffffffffffffffffffffff168273ffffffffffffffffffffffffffffffffffffffff1614155b1561197c57600061185884611082565b9050600073ffffffffffffffffffffffffffffffffffffffff168373ffffffffffffffffffffffffffffffffffffffff16141580156118c357508273ffffffffffffffffffffffffffffffffffffffff168173ffffffffffffffffffffffffffffffffffffffff1614155b80156118d657506118d48184610ed0565b155b1561191857826040517fa9fbf51f00000000000000000000000000000000000000000000000000000000815260040161190f9190612901565b60405180910390fd5b811561197a57838573ffffffffffffffffffffffffffffffffffffffff168273ffffffffffffffffffffffffffffffffffffffff167f8c5be1e5ebec7d5bd14f71427d1e84f3dd0314c0f7b2291e5b200ac8c7c3b92560405160405180910390a45b505b836004600085815260200190815260200160002060006101000a81548173ffffffffffffffffffffffffffffffffffffffff021916908373ffffffffffffffffffffffffffffffffffffffff16021790555050505050565b6000806119e2858585611c0f565b9050600073ffffffffffffffffffffffffffffffffffffffff168173ffffffffffffffffffffffffffffffffffffffff1603611a2657611a2184611e29565b611a65565b8473ffffffffffffffffffffffffffffffffffffffff168173ffffffffffffffffffffffffffffffffffffffff1614611a6457611a638185611e72565b5b5b600073ffffffffffffffffffffffffffffffffffffffff168573ffffffffffffffffffffffffffffffffffffffff1603611aa757611aa284611f5d565b611ae6565b8473ffffffffffffffffffffffffffffffffffffffff168173ffffffffffffffffffffffffffffffffffffffff1614611ae557611ae4858561202e565b5b5b809150509392505050565b611afb83836120b9565b611b10611b06611147565b6000858585611433565b505050565b606060405180602001604052806000815250905090565b6060611b3782611082565b506000611b42611b15565b90506000815111611b625760405180602001604052806000815250611b8d565b80611b6c846121b2565b604051602001611b7d9291906135c7565b6040516020818303038152906040525b915050919050565b60007f780e9d63000000000000000000000000000000000000000000000000000000007bffffffffffffffffffffffffffffffffffffffffffffffffffffffff1916827bffffffffffffffffffffffffffffffffffffffffffffffffffffffff19161480611c085750611c0782612280565b5b9050919050565b600080611c1b846117d2565b9050600073ffffffffffffffffffffffffffffffffffffffff168373ffffffffffffffffffffffffffffffffffffffff1614611c5d57611c5c818486612362565b5b600073ffffffffffffffffffffffffffffffffffffffff168173ffffffffffffffffffffffffffffffffffffffff1614611cee57611c9f60008560008061180f565b6001600360008373ffffffffffffffffffffffffffffffffffffffff1673ffffffffffffffffffffffffffffffffffffffff168152602001908152602001600020600082825403925050819055505b600073ffffffffffffffffffffffffffffffffffffffff168573ffffffffffffffffffffffffffffffffffffffff1614611d71576001600360008773ffffffffffffffffffffffffffffffffffffffff1673ffffffffffffffffffffffffffffffffffffffff168152602001908152602001600020600082825401925050819055505b846002600086815260200190815260200160002060006101000a81548173ffffffffffffffffffffffffffffffffffffffff021916908373ffffffffffffffffffffffffffffffffffffffff160217905550838573ffffffffffffffffffffffffffffffffffffffff168273ffffffffffffffffffffffffffffffffffffffff167fddf252ad1be2c89b69c2b068fc378daa952ba7f163c4a11628f55a4df523b3ef60405160405180910390a4809150509392505050565b6008805490506009600083815260200190815260200160002081905550600881908060018154018082558091505060019003906000526020600020016000909190919091505550565b6000611e7d83610b31565b90506000600760008481526020019081526020016000205490506000600660008673ffffffffffffffffffffffffffffffffffffffff1673ffffffffffffffffffffffffffffffffffffffff1681526020019081526020016000209050828214611f295760008160008581526020019081526020016000205490508082600085815260200190815260200160002081905550826007600083815260200190815260200160002081905550505b6007600085815260200190815260200160002060009055806000848152602001908152602001600020600090555050505050565b60006001600880549050611f7191906135eb565b9050600060096000848152602001908152602001600020549050600060088381548110611fa157611fa0613121565b5b906000526020600020015490508060088381548110611fc357611fc2613121565b5b9060005260206000200181905550816009600083815260200190815260200160002081905550600960008581526020019081526020016000206000905560088054806120125761201161361f565b5b6001900381819060005260206000200160009055905550505050565b6000600161203b84610b31565b61204591906135eb565b905081600660008573ffffffffffffffffffffffffffffffffffffffff1673ffffffffffffffffffffffffffffffffffffffff168152602001908152602001600020600083815260200190815260200160002081905550806007600084815260200190815260200160002081905550505050565b600073ffffffffffffffffffffffffffffffffffffffff168273ffffffffffffffffffffffffffffffffffffffff160361212b5760006040517f64a0ae920000000000000000000000000000000000000000000000000000000081526004016121229190612901565b60405180910390fd5b600061213983836000611161565b9050600073ffffffffffffffffffffffffffffffffffffffff168173ffffffffffffffffffffffffffffffffffffffff16146121ad5760006040517f73c6ac6e0000000000000000000000000000000000000000000000000000000081526004016121a49190612901565b60405180910390fd5b505050565b6060600060016121c184612426565b01905060008167ffffffffffffffff8111156121e0576121df612b73565b5b6040519080825280601f01601f1916602001820160405280156122125781602001600182028036833780820191505090505b509050600082602083010190505b600115612275578080600190039150507f3031323334353637383961626364656600000000000000000000000000000000600a86061a8153600a858161226957612268612fa3565b5b04945060008503612220575b819350505050919050565b60007f80ac58cd000000000000000000000000000000000000000000000000000000007bffffffffffffffffffffffffffffffffffffffffffffffffffffffff1916827bffffffffffffffffffffffffffffffffffffffffffffffffffffffff1916148061234b57507f5b5e139f000000000000000000000000000000000000000000000000000000007bffffffffffffffffffffffffffffffffffffffffffffffffffffffff1916827bffffffffffffffffffffffffffffffffffffffffffffffffffffffff1916145b8061235b575061235a82612579565b5b9050919050565b61236d8383836125e3565b61242157600073ffffffffffffffffffffffffffffffffffffffff168373ffffffffffffffffffffffffffffffffffffffff16036123e257806040517f7e2732890000000000000000000000000000000000000000000000000000000081526004016123d99190612988565b60405180910390fd5b81816040517f177e802f000000000000000000000000000000000000000000000000000000008152600401612418929190612a36565b60405180910390fd5b505050565b600080600090507a184f03e93ff9f4daa797ed6e38ed64bf6a1f0100000000000000008310612484577a184f03e93ff9f4daa797ed6e38ed64bf6a1f010000000000000000838161247a57612479612fa3565b5b0492506040810190505b6d04ee2d6d415b85acef810000000083106124c1576d04ee2d6d415b85acef810000000083816124b7576124b6612fa3565b5b0492506020810190505b662386f26fc1000083106124f057662386f26fc1000083816124e6576124e5612fa3565b5b0492506010810190505b6305f5e1008310612519576305f5e100838161250f5761250e612fa3565b5b0492506008810190505b612710831061253e57612710838161253457612533612fa3565b5b0492506004810190505b60648310612561576064838161255757612556612fa3565b5b0492506002810190505b600a8310612570576001810190505b80915050919050565b60007f01ffc9a7000000000000000000000000000000000000000000000000000000007bffffffffffffffffffffffffffffffffffffffffffffffffffffffff1916827bffffffffffffffffffffffffffffffffffffffffffffffffffffffff1916149050919050565b60008073ffffffffffffffffffffffffffffffffffffffff168373ffffffffffffffffffffffffffffffffffffffff161415801561269b57508273ffffffffffffffffffffffffffffffffffffffff168473ffffffffffffffffffffffffffffffffffffffff16148061265c575061265b8484610ed0565b5b8061269a57508273ffffffffffffffffffffffffffffffffffffffff166126828361110a565b73ffffffffffffffffffffffffffffffffffffffff16145b5b90509392505050565b6000604051905090565b600080fd5b600080fd5b60007fffffffff0000000000000000000000000000000000000000000000000000000082169050919050565b6126ed816126b8565b81146126f857600080fd5b50565b60008135905061270a816126e4565b92915050565b600060208284031215612726576127256126ae565b5b6000612734848285016126fb565b91505092915050565b60008115159050919050565b6127528161273d565b82525050565b600060208201905061276d6000830184612749565b92915050565b6000819050919050565b61278681612773565b811461279157600080fd5b50565b6000813590506127a38161277d565b92915050565b6000602082840312156127bf576127be6126ae565b5b60006127cd84828501612794565b91505092915050565b6127df81612773565b82525050565b60006040820190506127fa60008301856127d6565b61280760208301846127d6565b9392505050565b600081519050919050565b600082825260208201905092915050565b60005b8381101561284857808201518184015260208101905061282d565b60008484015250505050565b6000601f19601f8301169050919050565b60006128708261280e565b61287a8185612819565b935061288a81856020860161282a565b61289381612854565b840191505092915050565b600060208201905081810360008301526128b88184612865565b905092915050565b600073ffffffffffffffffffffffffffffffffffffffff82169050919050565b60006128eb826128c0565b9050919050565b6128fb816128e0565b82525050565b600060208201905061291660008301846128f2565b92915050565b612925816128e0565b811461293057600080fd5b50565b6000813590506129428161291c565b92915050565b6000806040838503121561295f5761295e6126ae565b5b600061296d85828601612933565b925050602061297e85828601612794565b9150509250929050565b600060208201905061299d60008301846127d6565b92915050565b6000806000606084860312156129bc576129bb6126ae565b5b60006129ca86828701612933565b93505060206129db86828701612933565b92505060406129ec86828701612794565b9150509250925092565b60008060408385031215612a0d57612a0c6126ae565b5b6000612a1b85828601612794565b9250506020612a2c85828601612794565b9150509250929050565b6000604082019050612a4b60008301856128f2565b612a5860208301846127d6565b9392505050565b60006bffffffffffffffffffffffff82169050919050565b612a8081612a5f565b8114612a8b57600080fd5b50565b600081359050612a9d81612a77565b92915050565b600060208284031215612ab957612ab86126ae565b5b6000612ac784828501612a8e565b91505092915050565b600060208284031215612ae657612ae56126ae565b5b6000612af484828501612933565b91505092915050565b612b068161273d565b8114612b1157600080fd5b50565b600081359050612b2381612afd565b92915050565b60008060408385031215612b4057612b3f6126ae565b5b6000612b4e85828601612933565b9250506020612b5f85828601612b14565b9150509250929050565b600080fd5b600080fd5b7f4e487b7100000000000000000000000000000000000000000000000000000000600052604160045260246000fd5b612bab82612854565b810181811067ffffffffffffffff82111715612bca57612bc9612b73565b5b80604052505050565b6000612bdd6126a4565b9050612be98282612ba2565b919050565b600067ffffffffffffffff821115612c0957612c08612b73565b5b612c1282612854565b9050602081019050919050565b82818337600083830152505050565b6000612c41612c3c84612bee565b612bd3565b905082815260208101848484011115612c5d57612c5c612b6e565b5b612c68848285612c1f565b509392505050565b600082601f830112612c8557612c84612b69565b5b8135612c95848260208601612c2e565b91505092915050565b60008060008060808587031215612cb857612cb76126ae565b5b6000612cc687828801612933565b9450506020612cd787828801612933565b9350506040612ce887828801612794565b925050606085013567ffffffffffffffff811115612d0957612d086126b3565b5b612d1587828801612c70565b91505092959194509250565b600067ffffffffffffffff821115612d3c57612d3b612b73565b5b612d4582612854565b9050602081019050919050565b6000612d65612d6084612d21565b612bd3565b905082815260208101848484011115612d8157612d80612b6e565b5b612d8c848285612c1f565b509392505050565b600082601f830112612da957612da8612b69565b5b8135612db9848260208601612d52565b91505092915050565b600080600060608486031215612ddb57612dda6126ae565b5b6000612de986828701612933565b935050602084013567ffffffffffffffff811115612e0a57612e096126b3565b5b612e1686828701612d94565b9250506040612e2786828701612794565b9150509250925092565b60008060408385031215612e4857612e476126ae565b5b6000612e5685828601612933565b9250506020612e6785828601612933565b9150509250929050565b612e7a81612a5f565b82525050565b6000602082019050612e956000830184612e71565b92915050565b7f4e487b7100000000000000000000000000000000000000000000000000000000600052602260045260246000fd5b60006002820490506001821680612ee257607f821691505b602082108103612ef557612ef4612e9b565b5b50919050565b6000606082019050612f1060008301866128f2565b612f1d60208301856127d6565b612f2a60408301846128f2565b949350505050565b7f4e487b7100000000000000000000000000000000000000000000000000000000600052601160045260246000fd5b6000612f6c82612773565b9150612f7783612773565b9250828202612f8581612773565b91508282048414831517612f9c57612f9b612f32565b5b5092915050565b7f4e487b7100000000000000000000000000000000000000000000000000000000600052601260045260246000fd5b6000612fdd82612773565b9150612fe883612773565b925082612ff857612ff7612fa3565b5b828204905092915050565b7f4e6f2066756e647320746f2077697468647261772e0000000000000000000000600082015250565b6000613039601583612819565b915061304482613003565b602082019050919050565b600060208201905081810360008301526130688161302c565b9050919050565b600081905092915050565b50565b600061308a60008361306f565b91506130958261307a565b600082019050919050565b60006130ab8261307d565b9150819050919050565b7f5769746864726177616c206661696c65642e0000000000000000000000000000600082015250565b60006130eb601283612819565b91506130f6826130b5565b602082019050919050565b6000602082019050818103600083015261311a816130de565b9050919050565b7f4e487b7100000000000000000000000000000000000000000000000000000000600052603260045260246000fd5b7f5469636b65744e46543a2043616c6c6572206973206e6f74207468652061707060008201527f726f766564206d61726b6574706c616365000000000000000000000000000000602082015250565b60006131ac603183612819565b91506131b782613150565b604082019050919050565b600060208201905081810360008301526131db8161319f565b9050919050565b60006131ed82612773565b91507fffffffffffffffffffffffffffffffffffffffffffffffffffffffffffffffff820361321f5761321e612f32565b5b600182019050919050565b600081519050919050565b600082825260208201905092915050565b60006132518261322a565b61325b8185613235565b935061326b81856020860161282a565b61327481612854565b840191505092915050565b600060808201905061329460008301876128f2565b6132a160208301866128f2565b6132ae60408301856127d6565b81810360608301526132c08184613246565b905095945050505050565b6000815190506132da816126e4565b92915050565b6000602082840312156132f6576132f56126ae565b5b6000613304848285016132cb565b91505092915050565b60008190508160005260206000209050919050565b60006020601f8301049050919050565b600082821b905092915050565b60006008830261336f7fffffffffffffffffffffffffffffffffffffffffffffffffffffffffffffffff82613332565b6133798683613332565b95508019841693508086168417925050509392505050565b6000819050919050565b60006133b66133b16133ac84612773565b613391565b612773565b9050919050565b6000819050919050565b6133d08361339b565b6133e46133dc826133bd565b84845461333f565b825550505050565b600090565b6133f96133ec565b6134048184846133c7565b505050565b5b818110156134285761341d6000826133f1565b60018101905061340a565b5050565b601f82111561346d5761343e8161330d565b61344784613322565b81016020851015613456578190505b61346a61346285613322565b830182613409565b50505b505050565b600082821c905092915050565b600061349060001984600802613472565b1980831691505092915050565b60006134a9838361347f565b9150826002028217905092915050565b6134c28261280e565b67ffffffffffffffff8111156134db576134da612b73565b5b6134e58254612eca565b6134f082828561342c565b600060209050601f8311600181146135235760008415613511578287015190505b61351b858261349d565b865550613583565b601f1984166135318661330d565b60005b8281101561355957848901518255600182019150602085019450602081019050613534565b868310156135765784890151613572601f89168261347f565b8355505b6001600288020188555050505b505050505050565b600081905092915050565b60006135a18261280e565b6135ab818561358b565b93506135bb81856020860161282a565b80840191505092915050565b60006135d38285613596565b91506135df8284613596565b91508190509392505050565b60006135f682612773565b915061360183612773565b925082820390508181111561361957613618612f32565b5b92915050565b7f4e487b7100000000000000000000000000000000000000000000000000000000600052603160045260246000fdfea2646970667358221220edf29189c35c18851fe60d5c61fa2e6fb72ac6681a373e7ff56d2e9be21c709364736f6c634300081c0033a2646970667358221220f2544f3d13850bc1e950b818f94d464f7f001fb32274acda568e647f4034ce5564736f6c634300081c0033",
  "linkReferences": {},
  "deployedLinkReferences": {}
}