{
  "_format": "hh-sol-artifact-1",
  "contractName": "TicketNFTFactory",
  "sourceName": "contracts/TicketNFTFactory.sol",
  "abi": [
    {
      "anonymous": false,
      "inputs": [
        {
          "indexed": true,
          "internalType": "address",
          "name": "eventContract",
          "type": "address"
        },
        {
          "indexed": true,
          "internalType": "address",
          "name": "organizer",
          "type": "address"
        }
      ],
      "name": "EventContractCreated",
      "type": "event"
    },
    {
      "inputs": [
        {
          "internalType": "uint16",
          "name": "_maxResaleCount",
          "type": "uint16"
        },
        {
          "internalType": "uint16",
          "name": "_resalePriceCapPct",
          "type": "uint16"
        }
      ],
      "name": "createEventContract",
      "outputs": [],
      "stateMutability": "nonpayable",
      "type": "function"
    },
    {
      "inputs": [
        {
          "internalType": "uint256",
          "name": "",
          "type": "uint256"
        }
      ],
      "name": "deployedEventContracts",
      "outputs": [
        {
          "internalType": "contract TicketNFT",
          "name": "",
          "type": "address"
        }
      ],
      "stateMutability": "view",
      "type": "function"
    }
  ],
  "bytecode": "0x608060405234801561001057600080fd5b506147cd806100206000396000f3fe60806040523480156200001157600080fd5b50600436106200003a5760003560e01c806308a13fee146200003f5780638902f93c1462000075575b600080fd5b6200005d600480360381019062000057919062000226565b62000095565b6040516200006c9190620002e3565b60405180910390f35b6200009360048036038101906200008d91906200033f565b620000d5565b005b60008181548110620000a657600080fd5b906000526020600020016000915054906101000a900473ffffffffffffffffffffffffffffffffffffffff1681565b6000338383604051620000e890620001d8565b620000f693929190620003bc565b604051809103906000f08015801562000113573d6000803e3d6000fd5b5090506000819080600181540180825580915050600190039060005260206000200160009091909190916101000a81548173ffffffffffffffffffffffffffffffffffffffff021916908373ffffffffffffffffffffffffffffffffffffffff1602179055503373ffffffffffffffffffffffffffffffffffffffff168173ffffffffffffffffffffffffffffffffffffffff167fc8efa8b5a7b93f12b6d5c818c5aee7334382101389704f4549ce1f12810ca97960405160405180910390a3505050565b61439e80620003fa83390190565b600080fd5b6000819050919050565b6200020081620001eb565b81146200020c57600080fd5b50565b6000813590506200022081620001f5565b92915050565b6000602082840312156200023f576200023e620001e6565b5b60006200024f848285016200020f565b91505092915050565b600073ffffffffffffffffffffffffffffffffffffffff82169050919050565b6000819050919050565b6000620002a36200029d620002978462000258565b62000278565b62000258565b9050919050565b6000620002b78262000282565b9050919050565b6000620002cb82620002aa565b9050919050565b620002dd81620002be565b82525050565b6000602082019050620002fa6000830184620002d2565b92915050565b600061ffff82169050919050565b620003198162000300565b81146200032557600080fd5b50565b60008135905062000339816200030e565b92915050565b60008060408385031215620003595762000358620001e6565b5b6000620003698582860162000328565b92505060206200037c8582860162000328565b9150509250929050565b60006200039382620002aa565b9050919050565b620003a58162000386565b82525050565b620003b68162000300565b82525050565b6000606082019050620003d360008301866200039a565b620003e26020830185620003ab565b620003f16040830184620003ab565b94935050505056fe60c06040523480156200001157600080fd5b506040516200439e3803806200439e83398181016040528101906200003791906200031c565b826040518060400160405280600981526020017f5469636b65744e465400000000000000000000000000000000000000000000008152506040518060400160405280600381526020017f544b5400000000000000000000000000000000000000000000000000000000008152508160009081620000b59190620005f2565b508060019081620000c79190620005f2565b505050600073ffffffffffffffffffffffffffffffffffffffff168173ffffffffffffffffffffffffffffffffffffffff16036200013f5760006040517f1e4fbdf7000000000000000000000000000000000000000000000000000000008152600401620001369190620006ea565b60405180910390fd5b6200015081620001ad60201b60201c565b506101f4600f60146101000a8154816bffffffffffffffffffffffff02191690836bffffffffffffffffffffffff1602179055508161ffff1660808161ffff16815250508061ffff1660a08161ffff168152505050505062000707565b6000600b60009054906101000a900473ffffffffffffffffffffffffffffffffffffffff16905081600b60006101000a81548173ffffffffffffffffffffffffffffffffffffffff021916908373ffffffffffffffffffffffffffffffffffffffff1602179055508173ffffffffffffffffffffffffffffffffffffffff168173ffffffffffffffffffffffffffffffffffffffff167f8be0079c531659141344cd1fd0a4f28419497f9722a3daafe3b4186f6b6457e060405160405180910390a35050565b600080fd5b600073ffffffffffffffffffffffffffffffffffffffff82169050919050565b6000620002a58262000278565b9050919050565b620002b78162000298565b8114620002c357600080fd5b50565b600081519050620002d781620002ac565b92915050565b600061ffff82169050919050565b620002f681620002dd565b81146200030257600080fd5b50565b6000815190506200031681620002eb565b92915050565b60008060006060848603121562000338576200033762000273565b5b60006200034886828701620002c6565b93505060206200035b8682870162000305565b92505060406200036e8682870162000305565b9150509250925092565b600081519050919050565b7f4e487b7100000000000000000000000000000000000000000000000000000000600052604160045260246000fd5b7f4e487b7100000000000000000000000000000000000000000000000000000000600052602260045260246000fd5b60006002820490506001821680620003fa57607f821691505b60208210810362000410576200040f620003b2565b5b50919050565b60008190508160005260206000209050919050565b60006020601f8301049050919050565b600082821b905092915050565b6000600883026200047a7fffffffffffffffffffffffffffffffffffffffffffffffffffffffffffffffff826200043b565b6200048686836200043b565b95508019841693508086168417925050509392505050565b6000819050919050565b6000819050919050565b6000620004d3620004cd620004c7846200049e565b620004a8565b6200049e565b9050919050565b6000819050919050565b620004ef83620004b2565b62000507620004fe82620004da565b84845462000448565b825550505050565b600090565b6200051e6200050f565b6200052b818484620004e4565b505050565b5b8181101562000553576200054760008262000514565b60018101905062000531565b5050565b601f821115620005a2576200056c8162000416565b62000577846200042b565b8101602085101562000587578190505b6200059f62000596856200042b565b83018262000530565b50505b505050565b600082821c905092915050565b6000620005c760001984600802620005a7565b1980831691505092915050565b6000620005e28383620005b4565b9150826002028217905092915050565b620005fd8262000378565b67ffffffffffffffff81111562000619576200061862000383565b5b620006258254620003e1565b6200063282828562000557565b600060209050601f8311600181146200066a576000841562000655578287015190505b620006618582620005d4565b865550620006d1565b601f1984166200067a8662000416565b60005b82811015620006a4578489015182556001820191506020850194506020810190506200067d565b86831015620006c45784890151620006c0601f891682620005b4565b8355505b6001600288020188555050505b505050505050565b620006e48162000298565b82525050565b6000602082019050620007016000830184620006d9565b92915050565b60805160a051613c716200072d6000396000610cdb01526000610b6c0152613c716000f3fe6080604052600436106101ee5760003560e01c80636352211e1161010d578063a476b73d116100a0578063c87b56dd1161006f578063c87b56dd14610703578063daa17f4914610740578063e985e9c51461076b578063f2fde38b146107a8578063f881917c146107d1576101ee565b8063a476b73d1461066c578063b47cc55614610695578063b88d4fde146106be578063ba7aef43146106e7576101ee565b80638da5cb5b116100dc5780638da5cb5b146105c4578063942f357e146105ef57806395d89b4114610618578063a22cb46514610643576101ee565b80636352211e1461050857806370a0823114610545578063715018a61461058257806375794a3c14610599576101ee565b80632f745c59116101855780633ccfd60b116101545780633ccfd60b1461046057806342842e0e1461047757806348ad538e146104a05780634f6ccce7146104cb576101ee565b80632f745c591461039157806331faafb4146103ce57806335332e33146103f7578063394803fd14610422576101ee565b8063095ea7b3116101c1578063095ea7b3146102d657806318160ddd146102ff57806323b872dd1461032a5780632a55205a14610353576101ee565b806301ffc9a7146101f3578063033fab351461023057806306fdde031461026e578063081812fc14610299575b600080fd5b3480156101ff57600080fd5b5061021a60048036038101906102159190612ba1565b6107fc565b6040516102279190612be9565b60405180910390f35b34801561023c57600080fd5b5061025760048036038101906102529190612c3a565b61080e565b604051610265929190612c76565b60405180910390f35b34801561027a57600080fd5b5061028361085b565b6040516102909190612d2f565b60405180910390f35b3480156102a557600080fd5b506102c060048036038101906102bb9190612c3a565b6108ed565b6040516102cd9190612d92565b60405180910390f35b3480156102e257600080fd5b506102fd60048036038101906102f89190612dd9565b610909565b005b34801561030b57600080fd5b5061031461091f565b6040516103219190612e19565b60405180910390f35b34801561033657600080fd5b50610351600480360381019061034c9190612e34565b61092c565b005b34801561035f57600080fd5b5061037a60048036038101906103759190612e87565b610a2e565b604051610388929190612ec7565b60405180910390f35b34801561039d57600080fd5b506103b860048036038101906103b39190612dd9565b610a85565b6040516103c59190612e19565b60405180910390f35b3480156103da57600080fd5b506103f560048036038101906103f09190612f34565b610b2e565b005b34801561040357600080fd5b5061040c610b6a565b6040516104199190612f7e565b60405180910390f35b34801561042e57600080fd5b5061044960048036038101906104449190612c3a565b610b8e565b604051610457929190612c76565b60405180910390f35b34801561046c57600080fd5b50610475610bb2565b005b34801561048357600080fd5b5061049e60048036038101906104999190612e34565b610cb9565b005b3480156104ac57600080fd5b506104b5610cd9565b6040516104c29190612f7e565b60405180910390f35b3480156104d757600080fd5b506104f260048036038101906104ed9190612c3a565b610cfd565b6040516104ff9190612e19565b60405180910390f35b34801561051457600080fd5b5061052f600480360381019061052a9190612c3a565b610d73565b60405161053c9190612d92565b60405180910390f35b34801561055157600080fd5b5061056c60048036038101906105679190612f99565b610d85565b6040516105799190612e19565b60405180910390f35b34801561058e57600080fd5b50610597610e3f565b005b3480156105a557600080fd5b506105ae610e53565b6040516105bb9190612e19565b60405180910390f35b3480156105d057600080fd5b506105d9610e5d565b6040516105e69190612d92565b60405180910390f35b3480156105fb57600080fd5b5061061660048036038101906106119190612e87565b610e87565b005b34801561062457600080fd5b5061062d610f56565b60405161063a9190612d2f565b60405180910390f35b34801561064f57600080fd5b5061066a60048036038101906106659190612ff2565b610fe8565b005b34801561067857600080fd5b50610693600480360381019061068e9190612c3a565b610ffe565b005b3480156106a157600080fd5b506106bc60048036038101906106b79190612f99565b611038565b005b3480156106ca57600080fd5b506106e560048036038101906106e09190613167565b611084565b005b61070160048036038101906106fc919061328b565b6110a9565b005b34801561070f57600080fd5b5061072a60048036038101906107259190612c3a565b611161565b6040516107379190612d2f565b60405180910390f35b34801561074c57600080fd5b50610755611173565b6040516107629190612d92565b60405180910390f35b34801561077757600080fd5b50610792600480360381019061078d91906132fa565b611199565b60405161079f9190612be9565b60405180910390f35b3480156107b457600080fd5b506107cf60048036038101906107ca9190612f99565b61122d565b005b3480156107dd57600080fd5b506107e66112b3565b6040516107f39190613349565b60405180910390f35b6000610807826112d1565b9050919050565b600080600060106000858152602001908152602001600020604051806040016040529081600082015481526020016001820154815250509050806000015181602001519250925050915091565b60606000805461086a90613393565b80601f016020809104026020016040519081016040528092919081815260200182805461089690613393565b80156108e35780601f106108b8576101008083540402835291602001916108e3565b820191906000526020600020905b8154815290600101906020018083116108c657829003601f168201915b5050505050905090565b60006108f88261134b565b50610902826113d3565b9050919050565b61091b8282610916611410565b611418565b5050565b6000600880549050905090565b600073ffffffffffffffffffffffffffffffffffffffff168273ffffffffffffffffffffffffffffffffffffffff160361099e5760006040517f64a0ae920000000000000000000000000000000000000000000000000000000081526004016109959190612d92565b60405180910390fd5b60006109b283836109ad611410565b61142a565b90508373ffffffffffffffffffffffffffffffffffffffff168173ffffffffffffffffffffffffffffffffffffffff1614610a28578382826040517f64283d7b000000000000000000000000000000000000000000000000000000008152600401610a1f939291906133c4565b60405180910390fd5b50505050565b600080610a39610e5d565b612710600f60149054906101000a90046bffffffffffffffffffffffff166bffffffffffffffffffffffff1685610a70919061342a565b610a7a919061349b565b915091509250929050565b6000610a9083610d85565b8210610ad55782826040517fa57d13dc000000000000000000000000000000000000000000000000000000008152600401610acc929190612ec7565b60405180910390fd5b600660008473ffffffffffffffffffffffffffffffffffffffff1673ffffffffffffffffffffffffffffffffffffffff168152602001908152602001600020600083815260200190815260200160002054905092915050565b610b36611582565b80600f60146101000a8154816bffffffffffffffffffffffff02191690836bffffffffffffffffffffffff16021790555050565b7f000000000000000000000000000000000000000000000000000000000000000081565b60106020528060005260406000206000915090508060000154908060010154905082565b610bba611582565b600047905060008111610c02576040517f08c379a0000000000000000000000000000000000000000000000000000000008152600401610bf990613518565b60405180910390fd5b6000610c0c610e5d565b73ffffffffffffffffffffffffffffffffffffffff1682604051610c2f90613569565b60006040518083038185875af1925050503d8060008114610c6c576040519150601f19603f3d011682016040523d82523d6000602084013e610c71565b606091505b5050905080610cb5576040517f08c379a0000000000000000000000000000000000000000000000000000000008152600401610cac906135ca565b60405180910390fd5b5050565b610cd483838360405180602001604052806000815250611084565b505050565b7f000000000000000000000000000000000000000000000000000000000000000081565b6000610d0761091f565b8210610d4d576000826040517fa57d13dc000000000000000000000000000000000000000000000000000000008152600401610d44929190612ec7565b60405180910390fd5b60088281548110610d6157610d606135ea565b5b90600052602060002001549050919050565b6000610d7e8261134b565b9050919050565b60008073ffffffffffffffffffffffffffffffffffffffff168273ffffffffffffffffffffffffffffffffffffffff1603610df85760006040517f89c62b64000000000000000000000000000000000000000000000000000000008152600401610def9190612d92565b60405180910390fd5b600360008373ffffffffffffffffffffffffffffffffffffffff1673ffffffffffffffffffffffffffffffffffffffff168152602001908152602001600020549050919050565b610e47611582565b610e516000611609565b565b6000600e54905090565b6000600b60009054906101000a900473ffffffffffffffffffffffffffffffffffffffff16905090565b600f60009054906101000a900473ffffffffffffffffffffffffffffffffffffffff1673ffffffffffffffffffffffffffffffffffffffff163373ffffffffffffffffffffffffffffffffffffffff1614610f17576040517f08c379a0000000000000000000000000000000000000000000000000000000008152600401610f0e9061368b565b60405180910390fd5b6000601060008481526020019081526020016000209050818160000181905550806001016000815480929190610f4c906136ab565b9190505550505050565b606060018054610f6590613393565b80601f0160208091040260200160405190810160405280929190818152602001828054610f9190613393565b8015610fde5780601f10610fb357610100808354040283529160200191610fde565b820191906000526020600020905b815481529060010190602001808311610fc157829003601f168201915b5050505050905090565b610ffa610ff3611410565b83836116cf565b5050565b611006611582565b61100f8161183e565b601060008281526020019081526020016000206000808201600090556001820160009055505050565b611040611582565b80600f60006101000a81548173ffffffffffffffffffffffffffffffffffffffff021916908373ffffffffffffffffffffffffffffffffffffffff16021790555050565b61108f84848461092c565b6110a361109a611410565b858585856118c4565b50505050565b803410156110ec576040517f08c379a00000000000000000000000000000000000000000000000000000000081526004016110e390613765565b60405180910390fd5b6000600e6000815480929190611101906136ab565b9190505590506111118482611a75565b61111b8184611a93565b6040518060400160405280838152602001600081525060106000838152602001908152602001600020600082015181600001556020820151816001015590505050505050565b606061116c82611aef565b9050919050565b600f60009054906101000a900473ffffffffffffffffffffffffffffffffffffffff1681565b6000600560008473ffffffffffffffffffffffffffffffffffffffff1673ffffffffffffffffffffffffffffffffffffffff16815260200190815260200160002060008373ffffffffffffffffffffffffffffffffffffffff1673ffffffffffffffffffffffffffffffffffffffff16815260200190815260200160002060009054906101000a900460ff16905092915050565b611235611582565b600073ffffffffffffffffffffffffffffffffffffffff168173ffffffffffffffffffffffffffffffffffffffff16036112a75760006040517f1e4fbdf700000000000000000000000000000000000000000000000000000000815260040161129e9190612d92565b60405180910390fd5b6112b081611609565b50565b600f60149054906101000a90046bffffffffffffffffffffffff1681565b60007f2a55205a000000000000000000000000000000000000000000000000000000007bffffffffffffffffffffffffffffffffffffffffffffffffffffffff1916827bffffffffffffffffffffffffffffffffffffffffffffffffffffffff19161480611344575061134382611c02565b5b9050919050565b60008061135783611c63565b9050600073ffffffffffffffffffffffffffffffffffffffff168173ffffffffffffffffffffffffffffffffffffffff16036113ca57826040517f7e2732890000000000000000000000000000000000000000000000000000000081526004016113c19190612e19565b60405180910390fd5b80915050919050565b60006004600083815260200190815260200160002060009054906101000a900473ffffffffffffffffffffffffffffffffffffffff169050919050565b600033905090565b6114258383836001611ca0565b505050565b60008061143684611c63565b9050600073ffffffffffffffffffffffffffffffffffffffff168173ffffffffffffffffffffffffffffffffffffffff160361147f57611477858585611e65565b91505061157b565b600f60009054906101000a900473ffffffffffffffffffffffffffffffffffffffff1673ffffffffffffffffffffffffffffffffffffffff168573ffffffffffffffffffffffffffffffffffffffff1614806115285750600f60009054906101000a900473ffffffffffffffffffffffffffffffffffffffff1673ffffffffffffffffffffffffffffffffffffffff168173ffffffffffffffffffffffffffffffffffffffff16145b1561154057611538858585611e65565b91505061157b565b6040517f08c379a0000000000000000000000000000000000000000000000000000000008152600401611572906137f7565b60405180910390fd5b9392505050565b61158a611410565b73ffffffffffffffffffffffffffffffffffffffff166115a8610e5d565b73ffffffffffffffffffffffffffffffffffffffff1614611607576115cb611410565b6040517f118cdaa70000000000000000000000000000000000000000000000000000000081526004016115fe9190612d92565b60405180910390fd5b565b6000600b60009054906101000a900473ffffffffffffffffffffffffffffffffffffffff16905081600b60006101000a81548173ffffffffffffffffffffffffffffffffffffffff021916908373ffffffffffffffffffffffffffffffffffffffff1602179055508173ffffffffffffffffffffffffffffffffffffffff168173ffffffffffffffffffffffffffffffffffffffff167f8be0079c531659141344cd1fd0a4f28419497f9722a3daafe3b4186f6b6457e060405160405180910390a35050565b600073ffffffffffffffffffffffffffffffffffffffff168273ffffffffffffffffffffffffffffffffffffffff160361174057816040517f5b08ba180000000000000000000000000000000000000000000000000000000081526004016117379190612d92565b60405180910390fd5b80600560008573ffffffffffffffffffffffffffffffffffffffff1673ffffffffffffffffffffffffffffffffffffffff16815260200190815260200160002060008473ffffffffffffffffffffffffffffffffffffffff1673ffffffffffffffffffffffffffffffffffffffff16815260200190815260200160002060006101000a81548160ff0219169083151502179055508173ffffffffffffffffffffffffffffffffffffffff168373ffffffffffffffffffffffffffffffffffffffff167f17307eab39ab6107e8899845ad3d59bd9653f200f220920489ca2b5937696c31836040516118319190612be9565b60405180910390a3505050565b600061184d600083600061142a565b9050600073ffffffffffffffffffffffffffffffffffffffff168173ffffffffffffffffffffffffffffffffffffffff16036118c057816040517f7e2732890000000000000000000000000000000000000000000000000000000081526004016118b79190612e19565b60405180910390fd5b5050565b60008373ffffffffffffffffffffffffffffffffffffffff163b1115611a6e578273ffffffffffffffffffffffffffffffffffffffff1663150b7a02868685856040518563ffffffff1660e01b8152600401611923949392919061386c565b6020604051808303816000875af192505050801561195f57506040513d601f19601f8201168201806040525081019061195c91906138cd565b60015b6119e3573d806000811461198f576040519150601f19603f3d011682016040523d82523d6000602084013e611994565b606091505b5060008151036119db57836040517f64a0ae920000000000000000000000000000000000000000000000000000000081526004016119d29190612d92565b60405180910390fd5b805160208201fd5b63150b7a0260e01b7bffffffffffffffffffffffffffffffffffffffffffffffffffffffff1916817bffffffffffffffffffffffffffffffffffffffffffffffffffffffff191614611a6c57836040517f64a0ae92000000000000000000000000000000000000000000000000000000008152600401611a639190612d92565b60405180910390fd5b505b5050505050565b611a8f828260405180602001604052806000815250611f82565b5050565b80600a60008481526020019081526020016000209081611ab39190613aa6565b507ff8e1a15aba9398e019f0b49df1a4fde98ee17ae345cb5f6b5e2c27f5033e8ce782604051611ae39190612e19565b60405180910390a15050565b6060611afa8261134b565b506000600a60008481526020019081526020016000208054611b1b90613393565b80601f0160208091040260200160405190810160405280929190818152602001828054611b4790613393565b8015611b945780601f10611b6957610100808354040283529160200191611b94565b820191906000526020600020905b815481529060010190602001808311611b7757829003601f168201915b505050505090506000611ba5611fa6565b90506000815103611bba578192505050611bfd565b600082511115611bef578082604051602001611bd7929190613bb4565b60405160208183030381529060405292505050611bfd565b611bf884611fbd565b925050505b919050565b6000634906490660e01b7bffffffffffffffffffffffffffffffffffffffffffffffffffffffff1916827bffffffffffffffffffffffffffffffffffffffffffffffffffffffff19161480611c5c5750611c5b82612026565b5b9050919050565b60006002600083815260200190815260200160002060009054906101000a900473ffffffffffffffffffffffffffffffffffffffff169050919050565b8080611cd95750600073ffffffffffffffffffffffffffffffffffffffff168273ffffffffffffffffffffffffffffffffffffffff1614155b15611e0d576000611ce98461134b565b9050600073ffffffffffffffffffffffffffffffffffffffff168373ffffffffffffffffffffffffffffffffffffffff1614158015611d5457508273ffffffffffffffffffffffffffffffffffffffff168173ffffffffffffffffffffffffffffffffffffffff1614155b8015611d675750611d658184611199565b155b15611da957826040517fa9fbf51f000000000000000000000000000000000000000000000000000000008152600401611da09190612d92565b60405180910390fd5b8115611e0b57838573ffffffffffffffffffffffffffffffffffffffff168273ffffffffffffffffffffffffffffffffffffffff167f8c5be1e5ebec7d5bd14f71427d1e84f3dd0314c0f7b2291e5b200ac8c7c3b92560405160405180910390a45b505b836004600085815260200190815260200160002060006101000a81548173ffffffffffffffffffffffffffffffffffffffff021916908373ffffffffffffffffffffffffffffffffffffffff16021790555050505050565b600080611e738585856120a0565b9050600073ffffffffffffffffffffffffffffffffffffffff168173ffffffffffffffffffffffffffffffffffffffff1603611eb757611eb2846122ba565b611ef6565b8473ffffffffffffffffffffffffffffffffffffffff168173ffffffffffffffffffffffffffffffffffffffff1614611ef557611ef48185612303565b5b5b600073ffffffffffffffffffffffffffffffffffffffff168573ffffffffffffffffffffffffffffffffffffffff1603611f3857611f33846123ee565b611f77565b8473ffffffffffffffffffffffffffffffffffffffff168173ffffffffffffffffffffffffffffffffffffffff1614611f7657611f7585856124bf565b5b5b809150509392505050565b611f8c838361254a565b611fa1611f97611410565b60008585856118c4565b505050565b606060405180602001604052806000815250905090565b6060611fc88261134b565b506000611fd3611fa6565b90506000815111611ff3576040518060200160405280600081525061201e565b80611ffd84612643565b60405160200161200e929190613bb4565b6040516020818303038152906040525b915050919050565b60007f780e9d63000000000000000000000000000000000000000000000000000000007bffffffffffffffffffffffffffffffffffffffffffffffffffffffff1916827bffffffffffffffffffffffffffffffffffffffffffffffffffffffff19161480612099575061209882612711565b5b9050919050565b6000806120ac84611c63565b9050600073ffffffffffffffffffffffffffffffffffffffff168373ffffffffffffffffffffffffffffffffffffffff16146120ee576120ed8184866127f3565b5b600073ffffffffffffffffffffffffffffffffffffffff168173ffffffffffffffffffffffffffffffffffffffff161461217f57612130600085600080611ca0565b6001600360008373ffffffffffffffffffffffffffffffffffffffff1673ffffffffffffffffffffffffffffffffffffffff168152602001908152602001600020600082825403925050819055505b600073ffffffffffffffffffffffffffffffffffffffff168573ffffffffffffffffffffffffffffffffffffffff1614612202576001600360008773ffffffffffffffffffffffffffffffffffffffff1673ffffffffffffffffffffffffffffffffffffffff168152602001908152602001600020600082825401925050819055505b846002600086815260200190815260200160002060006101000a81548173ffffffffffffffffffffffffffffffffffffffff021916908373ffffffffffffffffffffffffffffffffffffffff160217905550838573ffffffffffffffffffffffffffffffffffffffff168273ffffffffffffffffffffffffffffffffffffffff167fddf252ad1be2c89b69c2b068fc378daa952ba7f163c4a11628f55a4df523b3ef60405160405180910390a4809150509392505050565b6008805490506009600083815260200190815260200160002081905550600881908060018154018082558091505060019003906000526020600020016000909190919091505550565b600061230e83610d85565b90506000600760008481526020019081526020016000205490506000600660008673ffffffffffffffffffffffffffffffffffffffff1673ffffffffffffffffffffffffffffffffffffffff16815260200190815260200160002090508282146123ba5760008160008581526020019081526020016000205490508082600085815260200190815260200160002081905550826007600083815260200190815260200160002081905550505b6007600085815260200190815260200160002060009055806000848152602001908152602001600020600090555050505050565b600060016008805490506124029190613bd8565b9050600060096000848152602001908152602001600020549050600060088381548110612432576124316135ea565b5b906000526020600020015490508060088381548110612454576124536135ea565b5b9060005260206000200181905550816009600083815260200190815260200160002081905550600960008581526020019081526020016000206000905560088054806124a3576124a2613c0c565b5b6001900381819060005260206000200160009055905550505050565b600060016124cc84610d85565b6124d69190613bd8565b905081600660008573ffffffffffffffffffffffffffffffffffffffff1673ffffffffffffffffffffffffffffffffffffffff168152602001908152602001600020600083815260200190815260200160002081905550806007600084815260200190815260200160002081905550505050565b600073ffffffffffffffffffffffffffffffffffffffff168273ffffffffffffffffffffffffffffffffffffffff16036125bc5760006040517f64a0ae920000000000000000000000000000000000000000000000000000000081526004016125b39190612d92565b60405180910390fd5b60006125ca8383600061142a565b9050600073ffffffffffffffffffffffffffffffffffffffff168173ffffffffffffffffffffffffffffffffffffffff161461263e5760006040517f73c6ac6e0000000000000000000000000000000000000000000000000000000081526004016126359190612d92565b60405180910390fd5b505050565b606060006001612652846128b7565b01905060008167ffffffffffffffff8111156126715761267061303c565b5b6040519080825280601f01601f1916602001820160405280156126a35781602001600182028036833780820191505090505b509050600082602083010190505b600115612706578080600190039150507f3031323334353637383961626364656600000000000000000000000000000000600a86061a8153600a85816126fa576126f961346c565b5b049450600085036126b1575b819350505050919050565b60007f80ac58cd000000000000000000000000000000000000000000000000000000007bffffffffffffffffffffffffffffffffffffffffffffffffffffffff1916827bffffffffffffffffffffffffffffffffffffffffffffffffffffffff191614806127dc57507f5b5e139f000000000000000000000000000000000000000000000000000000007bffffffffffffffffffffffffffffffffffffffffffffffffffffffff1916827bffffffffffffffffffffffffffffffffffffffffffffffffffffffff1916145b806127ec57506127eb82612a0a565b5b9050919050565b6127fe838383612a74565b6128b257600073ffffffffffffffffffffffffffffffffffffffff168373ffffffffffffffffffffffffffffffffffffffff160361287357806040517f7e27328900000000000000000000000000000000000000000000000000000000815260040161286a9190612e19565b60405180910390fd5b81816040517f177e802f0000000000000000000000000000000000000000000000000000000081526004016128a9929190612ec7565b60405180910390fd5b505050565b600080600090507a184f03e93ff9f4daa797ed6e38ed64bf6a1f0100000000000000008310612915577a184f03e93ff9f4daa797ed6e38ed64bf6a1f010000000000000000838161290b5761290a61346c565b5b0492506040810190505b6d04ee2d6d415b85acef81000000008310612952576d04ee2d6d415b85acef810000000083816129485761294761346c565b5b0492506020810190505b662386f26fc10000831061298157662386f26fc1000083816129775761297661346c565b5b0492506010810190505b6305f5e10083106129aa576305f5e10083816129a05761299f61346c565b5b0492506008810190505b61271083106129cf5761271083816129c5576129c461346c565b5b0492506004810190505b606483106129f257606483816129e8576129e761346c565b5b0492506002810190505b600a8310612a01576001810190505b80915050919050565b60007f01ffc9a7000000000000000000000000000000000000000000000000000000007bffffffffffffffffffffffffffffffffffffffffffffffffffffffff1916827bffffffffffffffffffffffffffffffffffffffffffffffffffffffff1916149050919050565b60008073ffffffffffffffffffffffffffffffffffffffff168373ffffffffffffffffffffffffffffffffffffffff1614158015612b2c57508273ffffffffffffffffffffffffffffffffffffffff168473ffffffffffffffffffffffffffffffffffffffff161480612aed5750612aec8484611199565b5b80612b2b57508273ffffffffffffffffffffffffffffffffffffffff16612b13836113d3565b73ffffffffffffffffffffffffffffffffffffffff16145b5b90509392505050565b6000604051905090565b600080fd5b600080fd5b60007fffffffff0000000000000000000000000000000000000000000000000000000082169050919050565b612b7e81612b49565b8114612b8957600080fd5b50565b600081359050612b9b81612b75565b92915050565b600060208284031215612bb757612bb6612b3f565b5b6000612bc584828501612b8c565b91505092915050565b60008115159050919050565b612be381612bce565b82525050565b6000602082019050612bfe6000830184612bda565b92915050565b6000819050919050565b612c1781612c04565b8114612c2257600080fd5b50565b600081359050612c3481612c0e565b92915050565b600060208284031215612c5057612c4f612b3f565b5b6000612c5e84828501612c25565b91505092915050565b612c7081612c04565b82525050565b6000604082019050612c8b6000830185612c67565b612c986020830184612c67565b9392505050565b600081519050919050565b600082825260208201905092915050565b60005b83811015612cd9578082015181840152602081019050612cbe565b60008484015250505050565b6000601f19601f8301169050919050565b6000612d0182612c9f565b612d0b8185612caa565b9350612d1b818560208601612cbb565b612d2481612ce5565b840191505092915050565b60006020820190508181036000830152612d498184612cf6565b905092915050565b600073ffffffffffffffffffffffffffffffffffffffff82169050919050565b6000612d7c82612d51565b9050919050565b612d8c81612d71565b82525050565b6000602082019050612da76000830184612d83565b92915050565b612db681612d71565b8114612dc157600080fd5b50565b600081359050612dd381612dad565b92915050565b60008060408385031215612df057612def612b3f565b5b6000612dfe85828601612dc4565b9250506020612e0f85828601612c25565b9150509250929050565b6000602082019050612e2e6000830184612c67565b92915050565b600080600060608486031215612e4d57612e4c612b3f565b5b6000612e5b86828701612dc4565b9350506020612e6c86828701612dc4565b9250506040612e7d86828701612c25565b9150509250925092565b60008060408385031215612e9e57612e9d612b3f565b5b6000612eac85828601612c25565b9250506020612ebd85828601612c25565b9150509250929050565b6000604082019050612edc6000830185612d83565b612ee96020830184612c67565b9392505050565b60006bffffffffffffffffffffffff82169050919050565b612f1181612ef0565b8114612f1c57600080fd5b50565b600081359050612f2e81612f08565b92915050565b600060208284031215612f4a57612f49612b3f565b5b6000612f5884828501612f1f565b91505092915050565b600061ffff82169050919050565b612f7881612f61565b82525050565b6000602082019050612f936000830184612f6f565b92915050565b600060208284031215612faf57612fae612b3f565b5b6000612fbd84828501612dc4565b91505092915050565b612fcf81612bce565b8114612fda57600080fd5b50565b600081359050612fec81612fc6565b92915050565b6000806040838503121561300957613008612b3f565b5b600061301785828601612dc4565b925050602061302885828601612fdd565b9150509250929050565b600080fd5b600080fd5b7f4e487b7100000000000000000000000000000000000000000000000000000000600052604160045260246000fd5b61307482612ce5565b810181811067ffffffffffffffff821117156130935761309261303c565b5b80604052505050565b60006130a6612b35565b90506130b2828261306b565b919050565b600067ffffffffffffffff8211156130d2576130d161303c565b5b6130db82612ce5565b9050602081019050919050565b82818337600083830152505050565b600061310a613105846130b7565b61309c565b90508281526020810184848401111561312657613125613037565b5b6131318482856130e8565b509392505050565b600082601f83011261314e5761314d613032565b5b813561315e8482602086016130f7565b91505092915050565b6000806000806080858703121561318157613180612b3f565b5b600061318f87828801612dc4565b94505060206131a087828801612dc4565b93505060406131b187828801612c25565b925050606085013567ffffffffffffffff8111156131d2576131d1612b44565b5b6131de87828801613139565b91505092959194509250565b600067ffffffffffffffff8211156132055761320461303c565b5b61320e82612ce5565b9050602081019050919050565b600061322e613229846131ea565b61309c565b90508281526020810184848401111561324a57613249613037565b5b6132558482856130e8565b509392505050565b600082601f83011261327257613271613032565b5b813561328284826020860161321b565b91505092915050565b6000806000606084860312156132a4576132a3612b3f565b5b60006132b286828701612dc4565b935050602084013567ffffffffffffffff8111156132d3576132d2612b44565b5b6132df8682870161325d565b92505060406132f086828701612c25565b9150509250925092565b6000806040838503121561331157613310612b3f565b5b600061331f85828601612dc4565b925050602061333085828601612dc4565b9150509250929050565b61334381612ef0565b82525050565b600060208201905061335e600083018461333a565b92915050565b7f4e487b7100000000000000000000000000000000000000000000000000000000600052602260045260246000fd5b600060028204905060018216806133ab57607f821691505b6020821081036133be576133bd613364565b5b50919050565b60006060820190506133d96000830186612d83565b6133e66020830185612c67565b6133f36040830184612d83565b949350505050565b7f4e487b7100000000000000000000000000000000000000000000000000000000600052601160045260246000fd5b600061343582612c04565b915061344083612c04565b925082820261344e81612c04565b91508282048414831517613465576134646133fb565b5b5092915050565b7f4e487b7100000000000000000000000000000000000000000000000000000000600052601260045260246000fd5b60006134a682612c04565b91506134b183612c04565b9250826134c1576134c061346c565b5b828204905092915050565b7f4e6f2066756e647320746f2077697468647261772e0000000000000000000000600082015250565b6000613502601583612caa565b915061350d826134cc565b602082019050919050565b60006020820190508181036000830152613531816134f5565b9050919050565b600081905092915050565b50565b6000613553600083613538565b915061355e82613543565b600082019050919050565b600061357482613546565b9150819050919050565b7f5769746864726177616c206661696c65642e0000000000000000000000000000600082015250565b60006135b4601283612caa565b91506135bf8261357e565b602082019050919050565b600060208201905081810360008301526135e3816135a7565b9050919050565b7f4e487b7100000000000000000000000000000000000000000000000000000000600052603260045260246000fd5b7f5469636b65744e46543a2043616c6c6572206973206e6f74207468652061707060008201527f726f766564206d61726b6574706c616365000000000000000000000000000000602082015250565b6000613675603183612caa565b915061368082613619565b604082019050919050565b600060208201905081810360008301526136a481613668565b9050919050565b60006136b682612c04565b91507fffffffffffffffffffffffffffffffffffffffffffffffffffffffffffffffff82036136e8576136e76133fb565b5b600182019050919050565b7f5469636b65744e46543a204d7573742073656e6420636f72726563742070726960008201527f636520746f206d696e7400000000000000000000000000000000000000000000602082015250565b600061374f602a83612caa565b915061375a826136f3565b604082019050919050565b6000602082019050818103600083015261377e81613742565b9050919050565b7f5469636b65744e46543a205472616e736665727320617265206f6e6c7920616c60008201527f6c6f7765642076696120746865206d61726b6574706c61636500000000000000602082015250565b60006137e1603983612caa565b91506137ec82613785565b604082019050919050565b60006020820190508181036000830152613810816137d4565b9050919050565b600081519050919050565b600082825260208201905092915050565b600061383e82613817565b6138488185613822565b9350613858818560208601612cbb565b61386181612ce5565b840191505092915050565b60006080820190506138816000830187612d83565b61388e6020830186612d83565b61389b6040830185612c67565b81810360608301526138ad8184613833565b905095945050505050565b6000815190506138c781612b75565b92915050565b6000602082840312156138e3576138e2612b3f565b5b60006138f1848285016138b8565b91505092915050565b60008190508160005260206000209050919050565b60006020601f8301049050919050565b600082821b905092915050565b60006008830261395c7fffffffffffffffffffffffffffffffffffffffffffffffffffffffffffffffff8261391f565b613966868361391f565b95508019841693508086168417925050509392505050565b6000819050919050565b60006139a361399e61399984612c04565b61397e565b612c04565b9050919050565b6000819050919050565b6139bd83613988565b6139d16139c9826139aa565b84845461392c565b825550505050565b600090565b6139e66139d9565b6139f18184846139b4565b505050565b5b81811015613a1557613a0a6000826139de565b6001810190506139f7565b5050565b601f821115613a5a57613a2b816138fa565b613a348461390f565b81016020851015613a43578190505b613a57613a4f8561390f565b8301826139f6565b50505b505050565b600082821c905092915050565b6000613a7d60001984600802613a5f565b1980831691505092915050565b6000613a968383613a6c565b9150826002028217905092915050565b613aaf82612c9f565b67ffffffffffffffff811115613ac857613ac761303c565b5b613ad28254613393565b613add828285613a19565b600060209050601f831160018114613b105760008415613afe578287015190505b613b088582613a8a565b865550613b70565b601f198416613b1e866138fa565b60005b82811015613b4657848901518255600182019150602085019450602081019050613b21565b86831015613b635784890151613b5f601f891682613a6c565b8355505b6001600288020188555050505b505050505050565b600081905092915050565b6000613b8e82612c9f565b613b988185613b78565b9350613ba8818560208601612cbb565b80840191505092915050565b6000613bc08285613b83565b9150613bcc8284613b83565b91508190509392505050565b6000613be382612c04565b9150613bee83612c04565b9250828203905081811115613c0657613c056133fb565b5b92915050565b7f4e487b7100000000000000000000000000000000000000000000000000000000600052603160045260246000fdfea2646970667358221220f4841f408194cb8377173b015a7d76d9ae7baf55af4c1c378844ebd330857f9f64736f6c63430008140033a26469706673582212202e7acdda51ded3b6571139f7c81ac618094f11588ed6cb23ae29078fe3fc9cb964736f6c63430008140033",
  "linkReferences": {},
  "deployedLinkReferences": {}
}